Component: ARM Compiler 5.05 update 1 (build 106) Tool: armlink [4d0efa]

==============================================================================

Section Cross References

    interrupts_hc32l13x.o(i.EnableNvic) refers to interrupts_hc32l13x.o(i.NVIC_SetPriority) for NVIC_SetPriority
    interrupts_hc32l13x.o(i.LPTIM_IRQHandler) refers (Weak) to mytimer.o(i.LpTim_IRQHandler) for LpTim_IRQHandler
    interrupts_hc32l13x.o(i.LPUART1_IRQHandler) refers (Weak) to myuart.o(i.LpUart1_IRQHandler) for LpUart1_IRQHandler
    interrupts_hc32l13x.o(i.LVD_IRQHandler) refers (Weak) to mylvd.o(i.Lvd_IRQHandler) for Lvd_IRQHandler
    interrupts_hc32l13x.o(i.PCNT_IRQHandler) refers (Weak) to mytimer.o(i.Pcnt_IRQHandler) for Pcnt_IRQHandler
    interrupts_hc32l13x.o(i.RTC_IRQHandler) refers (Weak) to myrtc.o(i.Rtc_IRQHandler) for Rtc_IRQHandler
    interrupts_hc32l13x.o(i.TIM0_IRQHandler) refers (Weak) to mybt.o(i.Tim0_IRQHandler) for Tim0_IRQHandler
    system_hc32l13x.o(i.SystemCoreClockUpdate) refers to sysctrl.o(i.Sysctrl_GetHClkFreq) for Sysctrl_GetHClkFreq
    system_hc32l13x.o(i.SystemCoreClockUpdate) refers to system_hc32l13x.o(.data) for SystemCoreClock
    system_hc32l13x.o(i.SystemInit) refers to sysctrl.o(i.Sysctrl_SetRCLTrim) for Sysctrl_SetRCLTrim
    system_hc32l13x.o(i.SystemInit) refers to sysctrl.o(i.Sysctrl_ClkSourceEnable) for Sysctrl_ClkSourceEnable
    system_hc32l13x.o(i.SystemInit) refers to sysctrl.o(i.Sysctrl_SysClkSwitch) for Sysctrl_SysClkSwitch
    system_hc32l13x.o(i.SystemInit) refers to sysctrl.o(i.Sysctrl_SetRCHTrim) for Sysctrl_SetRCHTrim
    system_hc32l13x.o(i.SystemInit) refers to system_hc32l13x.o(i.SystemCoreClockUpdate) for SystemCoreClockUpdate
    startup_hc32l13x.o(RESET) refers to startup_hc32l13x.o(STACK) for __initial_sp
    startup_hc32l13x.o(RESET) refers to startup_hc32l13x.o(.text) for Reset_Handler
    startup_hc32l13x.o(RESET) refers to context_rvds.o(.text) for HardFault_Handler
    startup_hc32l13x.o(RESET) refers to board.o(i.SysTick_Handler) for SysTick_Handler
==============================================================================

Removing Unused input sections from the image.

    Removing interrupts_hc32l13x.o(.rev16_text), (4 bytes).
    Removing interrupts_hc32l13x.o(.revsh_text), (4 bytes).
    Removing system_hc32l13x.o(.rev16_text), (4 bytes).
    Removing system_hc32l13x.o(.revsh_text), (4 bytes).
    Removing startup_hc32l13x.o(HEAP), (256 bytes).
    Removing adc.o(.rev16_text), (4 bytes).
    Removing adc.o(.revsh_text), (4 bytes).
    Removing adc.o(i.Adc_CfgJqrChannel), (136 bytes).
    Removing adc.o(i.Adc_CfgSglChannel), (36 bytes).
    Removing adc.o(i.Adc_CfgSqrChannel), (440 bytes).
    Removing adc.o(i.Adc_ClrAccResult), (20 bytes).
    Removing adc.o(i.Adc_ClrIrqStatus), (16 bytes).
    Removing adc.o(i.Adc_Disable), (20 bytes).
    Removing adc.o(i.Adc_DisableIrq), (20 bytes).
    Removing adc.o(i.Adc_EnableIrq), (24 bytes).
    Removing adc.o(i.Adc_GetAccResult), (12 bytes).
    Removing adc.o(i.Adc_GetIrqStatus), (24 bytes).
    Removing adc.o(i.Adc_GetJqrResult), (16 bytes).
==============================================================================

Image Symbol Table

    Local Symbols

    Symbol Name                              Value     Ov Type        Size  Object(Section)

    RESET                                    0x00000000   Section      192  startup_hc32l13x.o(RESET)
    ../clib/microlib/division.c              0x00000000   Number         0  uidiv.o ABSOLUTE
    ../clib/microlib/division.c              0x00000000   Number         0  idiv.o ABSOLUTE
    ../clib/microlib/init/entry.s            0x00000000   Number         0  entry11b.o ABSOLUTE
    ../clib/microlib/init/entry.s            0x00000000   Number         0  entry8b.o ABSOLUTE
    ../clib/microlib/init/entry.s            0x00000000   Number         0  entry2.o ABSOLUTE
    ../clib/microlib/init/entry.s            0x00000000   Number         0  entry.o ABSOLUTE
    ../clib/microlib/init/entry.s            0x00000000   Number         0  entry11a.o ABSOLUTE
    ../clib/microlib/init/entry.s            0x00000000   Number         0  entry10b.o ABSOLUTE
    ../clib/microlib/init/entry.s            0x00000000   Number         0  entry5.o ABSOLUTE
    ../clib/microlib/init/entry.s            0x00000000   Number         0  entry7a.o ABSOLUTE
    ../clib/microlib/init/entry.s            0x00000000   Number         0  entry10a.o ABSOLUTE
    ../clib/microlib/init/entry.s            0x00000000   Number         0  entry9b.o ABSOLUTE
    ../clib/microlib/init/entry.s            0x00000000   Number         0  entry7b.o ABSOLUTE
    ../clib/microlib/init/entry.s            0x00000000   Number         0  entry9a.o ABSOLUTE
    ../clib/microlib/init/entry.s            0x00000000   Number         0  entry8a.o ABSOLUTE
    ../clib/microlib/longlong.c              0x00000000   Number         0  llsshr.o ABSOLUTE
    ../clib/microlib/longlong.c              0x00000000   Number         0  llushr.o ABSOLUTE
    ../clib/microlib/longlong.c              0x00000000   Number         0  llshl.o ABSOLUTE
    ../clib/microlib/string/memcpy.c         0x00000000   Number         0  memcpyb.o ABSOLUTE
    ../clib/microlib/string/memcpy.c         0x00000000   Number         0  memcpya.o ABSOLUTE
    ../clib/microlib/string/memset.c         0x00000000   Number         0  memseta.o ABSOLUTE
    ../clib/microlib/stubs.s                 0x00000000   Number         0  useno.o ABSOLUTE
    ../clib/microlib/stubs.s                 0x00000000   Number         0  iusefp.o ABSOLUTE
    ../fplib/microlib/fpadd.c                0x00000000   Number         0  dadd.o ABSOLUTE
    ../fplib/microlib/fpdiv.c                0x00000000   Number         0  ddiv.o ABSOLUTE
    ../fplib/microlib/fpepilogue.c           0x00000000   Number         0  depilogue.o ABSOLUTE
    ../fplib/microlib/fpfix.c                0x00000000   Number         0  dfixui.o ABSOLUTE
    ../fplib/microlib/fpflt.c                0x00000000   Number         0  dflti.o ABSOLUTE
    ../fplib/microlib/fpflt.c                0x00000000   Number         0  dfltui.o ABSOLUTE
    ..\\common\\interrupts_hc32l13x.c        0x00000000   Number         0  interrupts_hc32l13x.o ABSOLUTE
    ..\\common\\system_hc32l13x.c            0x00000000   Number         0  system_hc32l13x.o ABSOLUTE
    ..\\driver\\src\\adc.c                   0x00000000   Number         0  adc.o ABSOLUTE
    ..\\driver\\src\\bgr.c                   0x00000000   Number         0  bgr.o ABSOLUTE
    ..\\driver\\src\\bt.c                    0x00000000   Number         0  bt.o ABSOLUTE
    ..\\driver\\src\\ddl.c                   0x00000000   Number         0  ddl.o ABSOLUTE
    ..\\driver\\src\\flash.c                 0x00000000   Number         0  flash.o ABSOLUTE
    ..\\driver\\src\\gpio.c                  0x00000000   Number         0  gpio.o ABSOLUTE
    ..\\driver\\src\\lpm.c                   0x00000000   Number         0  lpm.o ABSOLUTE
    ..\\driver\\src\\lptim.c                 0x00000000   Number         0  lptim.o ABSOLUTE
    ..\\driver\\src\\lpuart.c                0x00000000   Number         0  lpuart.o ABSOLUTE
    ..\\driver\\src\\lvd.c                   0x00000000   Number         0  lvd.o ABSOLUTE
    ..\\driver\\src\\rtc.c                   0x00000000   Number         0  rtc.o ABSOLUTE
    ..\\driver\\src\\sysctrl.c               0x00000000   Number         0  sysctrl.o ABSOLUTE
    ..\\driver\\src\\wdt.c                   0x00000000   Number         0  wdt.o ABSOLUTE
    ..\\hardware\\DataDeal.c                 0x00000000   Number         0  datadeal.o ABSOLUTE
    ..\\hardware\\MyAdc.c                    0x00000000   Number         0  myadc.o ABSOLUTE
    ..\\hardware\\MyKey.c                    0x00000000   Number         0  mykey.o ABSOLUTE
    ..\\hardware\\MyLVD.c                    0x00000000   Number         0  mylvd.o ABSOLUTE
    ..\\hardware\\MyTimer.c                  0x00000000   Number         0  mytimer.o ABSOLUTE
    ..\\hardware\\Myinit.c                   0x00000000   Number         0  myinit.o ABSOLUTE
    ..\\hardware\\myUart.c                   0x00000000   Number         0  myuart.o ABSOLUTE
    ..\\hardware\\mybt.c                     0x00000000   Number         0  mybt.o ABSOLUTE
    ..\\hardware\\mycrc.c                    0x00000000   Number         0  mycrc.o ABSOLUTE
    ..\\hardware\\myrtc.c                    0x00000000   Number         0  myrtc.o ABSOLUTE
    ..\\source\\HDEE.c                       0x00000000   Number         0  hdee.o ABSOLUTE
    ..\\source\\main.c                       0x00000000   Number         0  main.o ABSOLUTE
    ..\common\interrupts_hc32l13x.c          0x00000000   Number         0  interrupts_hc32l13x.o ABSOLUTE
    ..\common\startup_hc32l13x.s             0x00000000   Number         0  startup_hc32l13x.o ABSOLUTE
    ..\common\system_hc32l13x.c              0x00000000   Number         0  system_hc32l13x.o ABSOLUTE
    ..\driver\src\adc.c                      0x00000000   Number         0  adc.o ABSOLUTE
    ..\driver\src\bgr.c                      0x00000000   Number         0  bgr.o ABSOLUTE
    ..\driver\src\bt.c                       0x00000000   Number         0  bt.o ABSOLUTE
    ..\driver\src\ddl.c                      0x00000000   Number         0  ddl.o ABSOLUTE
    ..\driver\src\flash.c                    0x00000000   Number         0  flash.o ABSOLUTE
    ..\driver\src\gpio.c                     0x00000000   Number         0  gpio.o ABSOLUTE
    ..\driver\src\lpm.c                      0x00000000   Number         0  lpm.o ABSOLUTE
    ..\driver\src\lptim.c                    0x00000000   Number         0  lptim.o ABSOLUTE
    ..\driver\src\lpuart.c                   0x00000000   Number         0  lpuart.o ABSOLUTE
    ..\driver\src\lvd.c                      0x00000000   Number         0  lvd.o ABSOLUTE
    ..\driver\src\rtc.c                      0x00000000   Number         0  rtc.o ABSOLUTE
    ..\driver\src\sysctrl.c                  0x00000000   Number         0  sysctrl.o ABSOLUTE
    ..\driver\src\wdt.c                      0x00000000   Number         0  wdt.o ABSOLUTE
    ..\hardware\DataDeal.c                   0x00000000   Number         0  datadeal.o ABSOLUTE
    ..\hardware\MyAdc.c                      0x00000000   Number         0  myadc.o ABSOLUTE
    ..\hardware\MyKey.c                      0x00000000   Number         0  mykey.o ABSOLUTE
    ..\hardware\MyLVD.c                      0x00000000   Number         0  mylvd.o ABSOLUTE
    ..\hardware\MyTimer.c                    0x00000000   Number         0  mytimer.o ABSOLUTE
    ..\hardware\Myinit.c                     0x00000000   Number         0  myinit.o ABSOLUTE
    ..\hardware\myUart.c                     0x00000000   Number         0  myuart.o ABSOLUTE
    ..\hardware\mybt.c                       0x00000000   Number         0  mybt.o ABSOLUTE
    ..\hardware\mycrc.c                      0x00000000   Number         0  mycrc.o ABSOLUTE
    ..\hardware\myrtc.c                      0x00000000   Number         0  myrtc.o ABSOLUTE
    ..\source\HDEE.c                         0x00000000   Number         0  hdee.o ABSOLUTE
    ..\source\main.c                         0x00000000   Number         0  main.o ABSOLUTE
    D:\Keil\ARM\PACK\RealThread\RT-Thread\3.1.3\libcpu\arm\cortex-m0\context_rvds.S 0x00000000   Number         0  context_rvds.o ABSOLUTE
    D:\Keil\ARM\PACK\RealThread\RT-Thread\3.1.3\libcpu\arm\cortex-m0\cpuport.c 0x00000000   Number         0  cpuport.o ABSOLUTE
    D:\Keil\ARM\PACK\RealThread\RT-Thread\3.1.3\src\clock.c 0x00000000   Number         0  clock.o ABSOLUTE
    D:\Keil\ARM\PACK\RealThread\RT-Thread\3.1.3\src\components.c 0x00000000   Number         0  components.o ABSOLUTE
    D:\Keil\ARM\PACK\RealThread\RT-Thread\3.1.3\src\idle.c 0x00000000   Number         0  idle.o ABSOLUTE
    D:\Keil\ARM\PACK\RealThread\RT-Thread\3.1.3\src\ipc.c 0x00000000   Number         0  ipc.o ABSOLUTE
    D:\Keil\ARM\PACK\RealThread\RT-Thread\3.1.3\src\irq.c 0x00000000   Number         0  irq.o ABSOLUTE
    D:\Keil\ARM\PACK\RealThread\RT-Thread\3.1.3\src\kservice.c 0x00000000   Number         0  kservice.o ABSOLUTE
    D:\Keil\ARM\PACK\RealThread\RT-Thread\3.1.3\src\mem.c 0x00000000   Number         0  mem.o ABSOLUTE
    D:\Keil\ARM\PACK\RealThread\RT-Thread\3.1.3\src\object.c 0x00000000   Number         0  object.o ABSOLUTE
    D:\Keil\ARM\PACK\RealThread\RT-Thread\3.1.3\src\scheduler.c 0x00000000   Number         0  scheduler.o ABSOLUTE
    D:\Keil\ARM\PACK\RealThread\RT-Thread\3.1.3\src\thread.c 0x00000000   Number         0  thread.o ABSOLUTE
    D:\Keil\ARM\PACK\RealThread\RT-Thread\3.1.3\src\timer.c 0x00000000   Number         0  timer.o ABSOLUTE
    RTE\RTOS\board.c                         0x00000000   Number         0  board.o ABSOLUTE
    dc.s                                     0x00000000   Number         0  dc.o ABSOLUTE
    handlers.s                               0x00000000   Number         0  handlers.o ABSOLUTE
    init.s                                   0x00000000   Number         0  init.o ABSOLUTE
    .ARM.Collect$$$$00000000                 0x000000c0   Section        0  entry.o(.ARM.Collect$$$$00000000)
    .ARM.Collect$$$$00000001                 0x000000c0   Section        4  entry2.o(.ARM.Collect$$$$00000001)
    .ARM.Collect$$$$00000004                 0x000000c4   Section        4  entry5.o(.ARM.Collect$$$$00000004)
    .ARM.Collect$$$$00000008                 0x000000c8   Section        0  entry7b.o(.ARM.Collect$$$$00000008)
    .ARM.Collect$$$$0000000A                 0x000000c8   Section        0  entry8b.o(.ARM.Collect$$$$0000000A)
    .ARM.Collect$$$$0000000B                 0x000000c8   Section        8  entry9a.o(.ARM.Collect$$$$0000000B)
    .ARM.Collect$$$$0000000D                 0x000000d0   Section        0  entry10a.o(.ARM.Collect$$$$0000000D)
    .ARM.Collect$$$$0000000F                 0x000000d0   Section        0  entry11a.o(.ARM.Collect$$$$0000000F)
    .ARM.Collect$$$$00002712                 0x000000d0   Section        4  entry2.o(.ARM.Collect$$$$00002712)
    __lit__00000000                          0x000000d0   Data           4  entry2.o(.ARM.Collect$$$$00002712)
    .text                                    0x000000d4   Section       60  startup_hc32l13x.o(.text)
    .text                                    0x00000110   Section      216  context_rvds.o(.text)
    .text                                    0x000001e8   Section        0  uidiv.o(.text)
    .text                                    0x00000214   Section        0  idiv.o(.text)
    .text                                    0x0000023c   Section        0  memcpya.o(.text)
    .text                                    0x00000260   Section        0  memseta.o(.text)
    .text                                    0x00000284   Section        0  dadd.o(.text)
    .text                                    0x000003e8   Section        0  ddiv.o(.text)
    .text                                    0x000004d8   Section        0  dflti.o(.text)
    .text                                    0x00000500   Section        0  dfltui.o(.text)
    .text                                    0x0000051c   Section        0  dfixui.o(.text)
    .text                                    0x00000558   Section        0  llshl.o(.text)
    .text                                    0x00000578   Section        0  llushr.o(.text)
    .text                                    0x0000059a   Section        0  llsshr.o(.text)
    .text                                    0x000005c0   Section        0  iusefp.o(.text)
    .text                                    0x000005c0   Section        0  depilogue.o(.text)
    .text                                    0x00000680   Section       36  init.o(.text)
    i.$Sub$$main                             0x000006a4   Section        0  components.o(i.$Sub$$main)
    i.ADC_IRQHandler                         0x000006ae   Section        0  interrupts_hc32l13x.o(i.ADC_IRQHandler)
    i.Adc_Enable                             0x000006b8   Section        0  adc.o(i.Adc_Enable)
    i.Adc_Init                               0x000006cc   Section        0  adc.o(i.Adc_Init)
    i.Adc_SqrModeCfg                         0x00000734   Section        0  adc.o(i.Adc_SqrModeCfg)
    i.AppAdcSQRCfg                           0x000007a8   Section        0  myadc.o(i.AppAdcSQRCfg)
    i.AppAdc_temp                            0x00000a08   Section        0  myadc.o(i.AppAdc_temp)
    i.AppAdc_valve                           0x00000c48   Section        0  myadc.o(i.AppAdc_valve)
    i.Bgr_BgrEnable                          0x000011c0   Section        0  bgr.o(i.Bgr_BgrEnable)
    i.Bt_ClearIntFlag                        0x000011dc   Section        0  bt.o(i.Bt_ClearIntFlag)
    i.CLKTRIM_IRQHandler                     0x000011f8   Section        0  interrupts_hc32l13x.o(i.CLKTRIM_IRQHandler)
    .ARM.__at_0x1200                         0x00001200   Section        0  hdee.o(.ARM.__at_0x1200)
    i.AppMAdcInit                            0x00001278   Section        0  myadc.o(i.AppMAdcInit)
    i.Bt_GetIntFlag                          0x000012d0   Section        0  bt.o(i.Bt_GetIntFlag)
    i.DMAC_IRQHandler                        0x000012ec   Section        0  interrupts_hc32l13x.o(i.DMAC_IRQHandler)
    i.FLASH_RAM_IRQHandler                   0x000012f4   Section        0  interrupts_hc32l13x.o(i.FLASH_RAM_IRQHandler)
    .ARM.__at_0x1300                         0x00001300   Section        0  hdee.o(.ARM.__at_0x1300)
    i.Bt_M0_Cnt16Set                         0x00001348   Section        0  bt.o(i.Bt_M0_Cnt16Set)
    i.Bt_M0_Run                              0x00001368   Section        0  bt.o(i.Bt_M0_Run)
    i.Bt_M0_Stop                             0x00001384   Section        0  bt.o(i.Bt_M0_Stop)
    i.Bt_Mode0_EnableIrq                     0x000013a0   Section        0  bt.o(i.Bt_Mode0_EnableIrq)
    i.Crc_cal                                0x000013bc   Section        0  mycrc.o(i.Crc_cal)
    i.EeRecord_Write                         0x000013e8   Section        0  hdee.o(i.EeRecord_Write)
    .ARM.__at_0x1400                         0x00001400   Section        0  hdee.o(.ARM.__at_0x1400)
    i.Bt_Mode0_Init                          0x00001410   Section        0  bt.o(i.Bt_Mode0_Init)
    i.CalcCrc                                0x000014a8   Section        0  mycrc.o(i.CalcCrc)
    i.Conver_to_Temp                         0x00001500   Section        0  myadc.o(i.Conver_to_Temp)
    i.Crc_check                              0x00001580   Section        0  mycrc.o(i.Crc_check)
    i.Deal_Parameter                         0x000015cc   Section        0  datadeal.o(i.Deal_Parameter)
    i.EeRecord_AddCRC                        0x000015e8   Section        0  hdee.o(i.EeRecord_AddCRC)
    i.EeRecord_Append                        0x00001638   Section        0  hdee.o(i.EeRecord_Append)
    i.EeRecord_CheckCRC                      0x0000166c   Section        0  hdee.o(i.EeRecord_CheckCRC)
    i.EeRecord_CheckFF                       0x000016b4   Section        0  hdee.o(i.EeRecord_CheckFF)
    i.EeRecord_FindLastRecord                0x000016d4   Section        0  hdee.o(i.EeRecord_FindLastRecord)
    i.EeRecord_FindNewSpace                  0x00001750   Section        0  hdee.o(i.EeRecord_FindNewSpace)
    i.EeRecord_PageFlag_Modify               0x000017a8   Section        0  hdee.o(i.EeRecord_PageFlag_Modify)
    i.EnableNvic                             0x000017cc   Section        0  interrupts_hc32l13x.o(i.EnableNvic)
    i.Flash_ErasePage                        0x00001820   Section        0  hdee.o(i.Flash_ErasePage)
    i.Flash_Operation_DeIni                  0x00001834   Section        0  hdee.o(i.Flash_Operation_DeIni)
    i.Flash_Operation_Ini                    0x0000189c   Section        0  hdee.o(i.Flash_Operation_Ini)
    i.Flash_ReadBytes                        0x000019d4   Section        0  hdee.o(i.Flash_ReadBytes)
    i.Flash_WriteBytes                       0x000019e8   Section        0  hdee.o(i.Flash_WriteBytes)
    i.Get16Bit                               0x00001a3a   Section        0  ddl.o(i.Get16Bit)
    i.GetBit                                 0x00001a46   Section        0  ddl.o(i.GetBit)
    i.Gpio_ClearIrq                          0x00001a54   Section        0  gpio.o(i.Gpio_ClearIrq)
    i.Gpio_EnableIrq                         0x00001a70   Section        0  gpio.o(i.Gpio_EnableIrq)
    i.Gpio_Init                              0x00001a94   Section        0  gpio.o(i.Gpio_Init)
    i.Gpio_SetAfMode                         0x00001b24   Section        0  gpio.o(i.Gpio_SetAfMode)
    i.HDEE_BakZone_FindAddr                  0x00001b38   Section        0  hdee.o(i.HDEE_BakZone_FindAddr)
    i.HDEE_Ini                               0x00001b6c   Section        0  hdee.o(i.HDEE_Ini)
    i.HDEE_Read                              0x00001bb4   Section        0  hdee.o(i.HDEE_Read)
    i.I2C0_IRQHandler                        0x00001bf2   Section        0  interrupts_hc32l13x.o(i.I2C0_IRQHandler)
    i.I2C1_IRQHandler                        0x00001bfa   Section        0  interrupts_hc32l13x.o(i.I2C1_IRQHandler)
    i.Init_LpTimer                           0x00001c04   Section        0  mytimer.o(i.Init_LpTimer)
    i.Init_Parameter                         0x00001c64   Section        0  datadeal.o(i.Init_Parameter)
    i.Key_Init                               0x00001e24   Section        0  mykey.o(i.Key_Init)
    i.LCD_IRQHandler                         0x00001e90   Section        0  interrupts_hc32l13x.o(i.LCD_IRQHandler)
    i.LED3                                   0x00001e98   Section        0  myinit.o(i.LED3)
    i.LED4                                   0x00001eb4   Section        0  myinit.o(i.LED4)
    i.LED5                                   0x00001ed0   Section        0  myinit.o(i.LED5)
    i.LED6                                   0x00001ef0   Section        0  myinit.o(i.LED6)
    i.LED7                                   0x00001f0c   Section        0  myinit.o(i.LED7)
    i.LED8                                   0x00001f2c   Section        0  myinit.o(i.LED8)
    i.LED9                                   0x00001f4c   Section        0  myinit.o(i.LED9)
    i.LPTIM_IRQHandler                       0x00001f6c   Section        0  interrupts_hc32l13x.o(i.LPTIM_IRQHandler)
    i.LPUART0_IRQHandler                     0x00001f74   Section        0  interrupts_hc32l13x.o(i.LPUART0_IRQHandler)
    i.LPUART1_IRQHandler                     0x00001f7c   Section        0  interrupts_hc32l13x.o(i.LPUART1_IRQHandler)
    i.LPUart_ClrStatus                       0x00001f84   Section        0  lpuart.o(i.LPUart_ClrStatus)
    i.LPUart_EnableFunc                      0x00001f9a   Section        0  lpuart.o(i.LPUart_EnableFunc)
    i.LPUart_EnableIrq                       0x00001fae   Section        0  lpuart.o(i.LPUart_EnableIrq)
    i.LPUart_GetStatus                       0x00001fc2   Section        0  lpuart.o(i.LPUart_GetStatus)
    i.LPUart_Init                            0x00001fdc   Section        0  lpuart.o(i.LPUart_Init)
    i.LPUart_ReceiveData                     0x0000204c   Section        0  lpuart.o(i.LPUart_ReceiveData)
    i.LVD_IRQHandler                         0x00002054   Section        0  interrupts_hc32l13x.o(i.LVD_IRQHandler)
    i.LpTim_IRQHandler                       0x0000205c   Section        0  mytimer.o(i.LpTim_IRQHandler)
    i.LpUart1_IRQHandler                     0x000020e4   Section        0  myuart.o(i.LpUart1_IRQHandler)
    i.Lptim_ClrItStatus                      0x00002138   Section        0  lptim.o(i.Lptim_ClrItStatus)
    i.Lptim_Cmd                              0x0000214a   Section        0  lptim.o(i.Lptim_Cmd)
    i.Lptim_ConfIt                           0x0000215e   Section        0  lptim.o(i.Lptim_ConfIt)
    i.Lptim_GetItStatus                      0x00002172   Section        0  lptim.o(i.Lptim_GetItStatus)
    i.Lptim_Init                             0x00002182   Section        0  lptim.o(i.Lptim_Init)
    i.Lvd_ClearIrq                           0x0000222c   Section        0  lvd.o(i.Lvd_ClearIrq)
    i.Lvd_IRQHandler                         0x00002240   Section        0  mylvd.o(i.Lvd_IRQHandler)
    i.MyTempInit                             0x00002248   Section        0  myinit.o(i.MyTempInit)
    i.NVIC_SetPriority                       0x00002270   Section        0  interrupts_hc32l13x.o(i.NVIC_SetPriority)
    NVIC_SetPriority                         0x00002271   Thumb Code   110  interrupts_hc32l13x.o(i.NVIC_SetPriority)
    i.NVIC_SystemReset                       0x000022e8   Section        0  main.o(i.NVIC_SystemReset)
    NVIC_SystemReset                         0x000022e9   Thumb Code    18  main.o(i.NVIC_SystemReset)
    i.PCA_IRQHandler                         0x00002304   Section        0  interrupts_hc32l13x.o(i.PCA_IRQHandler)
    i.PCNT_IRQHandler                        0x0000230c   Section        0  interrupts_hc32l13x.o(i.PCNT_IRQHandler)
    i.PORTA_IRQHandler                       0x00002314   Section        0  mykey.o(i.PORTA_IRQHandler)
    i.Pcnt_IRQHandler                        0x00002410   Section        0  mytimer.o(i.Pcnt_IRQHandler)
    i.RTC_IRQHandler                         0x000024e8   Section        0  interrupts_hc32l13x.o(i.RTC_IRQHandler)
    i.Rtc_ClearPrdfItStatus                  0x000024f0   Section        0  rtc.o(i.Rtc_ClearPrdfItStatus)
    i.Rtc_Cmd                                0x00002504   Section        0  rtc.o(i.Rtc_Cmd)
    i.Rtc_CompCfg                            0x00002518   Section        0  rtc.o(i.Rtc_CompCfg)
    i.Rtc_GetPridItStatus                    0x00002554   Section        0  rtc.o(i.Rtc_GetPridItStatus)
    i.Rtc_IRQHandler                         0x00002564   Section        0  myrtc.o(i.Rtc_IRQHandler)
    i.Rtc_Init                               0x00002704   Section        0  rtc.o(i.Rtc_Init)
    i.Rtc_SetCyc                             0x0000275c   Section        0  rtc.o(i.Rtc_SetCyc)
    i.Rtc_SetTime                            0x000027c8   Section        0  rtc.o(i.Rtc_SetTime)
    i.SPI0_IRQHandler                        0x0000285c   Section        0  interrupts_hc32l13x.o(i.SPI0_IRQHandler)
    i.SPI1_IRQHandler                        0x00002864   Section        0  interrupts_hc32l13x.o(i.SPI1_IRQHandler)
    i.Set16Bit                               0x0000286c   Section        0  ddl.o(i.Set16Bit)
    i.SetBit                                 0x0000288a   Section        0  ddl.o(i.SetBit)
    i.Simple_Delay                           0x000028a8   Section        0  mykey.o(i.Simple_Delay)
    i.SysTick_Handler                        0x000028f8   Section        0  board.o(i.SysTick_Handler)
    i.Sysctrl_ClkSourceEnable                0x00002908   Section        0  sysctrl.o(i.Sysctrl_ClkSourceEnable)
    i.Sysctrl_GetHClkFreq                    0x00002a24   Section        0  sysctrl.o(i.Sysctrl_GetHClkFreq)
    i.Sysctrl_GetPClkFreq                    0x00002b98   Section        0  sysctrl.o(i.Sysctrl_GetPClkFreq)
    i.Sysctrl_SetPeripheralGate              0x00002bb8   Section        0  sysctrl.o(i.Sysctrl_SetPeripheralGate)
    i.Sysctrl_SetRCHTrim                     0x00002bd0   Section        0  sysctrl.o(i.Sysctrl_SetRCHTrim)
    i.Sysctrl_SetRCLTrim                     0x00002bf8   Section        0  sysctrl.o(i.Sysctrl_SetRCLTrim)
    i.Sysctrl_SysClkSwitch                   0x00002c20   Section        0  sysctrl.o(i.Sysctrl_SysClkSwitch)
    i.SystemCoreClockUpdate                  0x00002c4c   Section        0  system_hc32l13x.o(i.SystemCoreClockUpdate)
    i.SystemInit                             0x00002c5c   Section        0  system_hc32l13x.o(i.SystemInit)
    i.TIM0_IRQHandler                        0x00002c84   Section        0  interrupts_hc32l13x.o(i.TIM0_IRQHandler)
    i.TIM1_IRQHandler                        0x00002c8c   Section        0  interrupts_hc32l13x.o(i.TIM1_IRQHandler)
    i.TIM2_IRQHandler                        0x00002c94   Section        0  interrupts_hc32l13x.o(i.TIM2_IRQHandler)
    i.TIM3_IRQHandler                        0x00002c9c   Section        0  interrupts_hc32l13x.o(i.TIM3_IRQHandler)
    i.TIM4_IRQHandler                        0x00002ca4   Section        0  interrupts_hc32l13x.o(i.TIM4_IRQHandler)
    i.TIM5_IRQHandler                        0x00002cac   Section        0  interrupts_hc32l13x.o(i.TIM5_IRQHandler)
    i.TIM6_IRQHandler                        0x00002cb4   Section        0  interrupts_hc32l13x.o(i.TIM6_IRQHandler)
    i.Tim0_IRQHandler                        0x00002cbc   Section        0  mybt.o(i.Tim0_IRQHandler)
    i.UART0_IRQHandler                       0x00002d0c   Section        0  interrupts_hc32l13x.o(i.UART0_IRQHandler)
    i.UART1_IRQHandler                       0x00002d14   Section        0  interrupts_hc32l13x.o(i.UART1_IRQHandler)
    i.VC0_IRQHandler                         0x00002d1c   Section        0  interrupts_hc32l13x.o(i.VC0_IRQHandler)
    i.VC1_IRQHandler                         0x00002d24   Section        0  interrupts_hc32l13x.o(i.VC1_IRQHandler)
    i.WDT_IRQHandler                         0x00002d2c   Section        0  interrupts_hc32l13x.o(i.WDT_IRQHandler)
    i.WDT_int                                0x00002d34   Section        0  myinit.o(i.WDT_int)
    i.Wdt_Feed                               0x00002d48   Section        0  wdt.o(i.Wdt_Feed)
    i.Wdt_Init                               0x00002d58   Section        0  wdt.o(i.Wdt_Init)
    i.Wdt_Start                              0x00002d84   Section        0  wdt.o(i.Wdt_Start)
    i.Wdt_WriteWdtLoad                       0x00002d94   Section        0  wdt.o(i.Wdt_WriteWdtLoad)
    i.Write_Parameter                        0x00002dac   Section        0  datadeal.o(i.Write_Parameter)
    i._SysTick_Config                        0x00002dd4   Section        0  board.o(i._SysTick_Config)
    _SysTick_Config                          0x00002dd5   Thumb Code    40  board.o(i._SysTick_Config)
    i._SysctrlUnlock                         0x00002e08   Section        0  sysctrl.o(i._SysctrlUnlock)
    _SysctrlUnlock                           0x00002e09   Thumb Code    12  sysctrl.o(i._SysctrlUnlock)
    i.__ARM_clz                              0x00002e20   Section        0  depilogue.o(i.__ARM_clz)
    i.__ARM_common_switch8                   0x00002e4e   Section        0  adc.o(i.__ARM_common_switch8)
    i.__rt_ffs                               0x00002e6c   Section        0  kservice.o(i.__rt_ffs)
    i.__scatterload_copy                     0x00002ec8   Section       14  handlers.o(i.__scatterload_copy)
    i.__scatterload_null                     0x00002ed6   Section        2  handlers.o(i.__scatterload_null)
    i.__scatterload_zeroinit                 0x00002ed8   Section       14  handlers.o(i.__scatterload_zeroinit)
    i._has_defunct_thread                    0x00002ee8   Section        0  idle.o(i._has_defunct_thread)
    _has_defunct_thread                      0x00002ee9   Thumb Code    16  idle.o(i._has_defunct_thread)
    i._rt_thread_init                        0x00002efc   Section        0  thread.o(i._rt_thread_init)
    _rt_thread_init                          0x00002efd   Thumb Code   126  thread.o(i._rt_thread_init)
    i._rt_timer_init                         0x00002f84   Section        0  timer.o(i._rt_timer_init)
    _rt_timer_init                           0x00002f85   Thumb Code    60  timer.o(i._rt_timer_init)
    i._rt_timer_remove                       0x00002fc0   Section        0  timer.o(i._rt_timer_remove)
    _rt_timer_remove                         0x00002fc1   Thumb Code    46  timer.o(i._rt_timer_remove)
    i.app_Time0Start                         0x00002fee   Section        0  mybt.o(i.app_Time0Start)
    i.app_Timer0Cfg                          0x0000300e   Section        0  mybt.o(i.app_Timer0Cfg)
    i.auto_adjdegrees                        0x00003060   Section        0  main.o(i.auto_adjdegrees)
    i.data_process                           0x0000326c   Section        0  mybt.o(i.data_process)
    i.ddl_memclr                             0x00003590   Section        0  ddl.o(i.ddl_memclr)
    i.degrees_calculate                      0x000035b0   Section        0  main.o(i.degrees_calculate)
    i.delay100us                             0x000037f4   Section        0  ddl.o(i.delay100us)
    i.key_deal                               0x0000384c   Section        0  main.o(i.key_deal)
    i.led_hand                               0x000038e4   Section        0  mytimer.o(i.led_hand)
    i.main                                   0x000039c8   Section        0  main.o(i.main)
    i.main_thread_entry                      0x00003a88   Section        0  components.o(i.main_thread_entry)
    i.myRtcInit                              0x00003a96   Section        0  myrtc.o(i.myRtcInit)
    i.mygpio_init                            0x00003b08   Section        0  myinit.o(i.mygpio_init)
    i.myuart_init                            0x00003d34   Section        0  myuart.o(i.myuart_init)
    i.pcnt_time_init                         0x00003d98   Section        0  mytimer.o(i.pcnt_time_init)
    i.print_number                           0x00003e1c   Section        0  kservice.o(i.print_number)
    print_number                             0x00003e1d   Thumb Code   396  kservice.o(i.print_number)
    i.rt_application_init                    0x00003fb0   Section        0  components.o(i.rt_application_init)
    i.rt_components_board_init               0x00003ff0   Section        0  components.o(i.rt_components_board_init)
    i.rt_components_init                     0x0000400c   Section        0  components.o(i.rt_components_init)
    i.rt_enter_critical                      0x00004028   Section        0  scheduler.o(i.rt_enter_critical)
    i.rt_exit_critical                       0x00004048   Section        0  scheduler.o(i.rt_exit_critical)
    i.rt_hw_board_init                       0x00004090   Section        0  board.o(i.rt_hw_board_init)
    i.rt_hw_console_output                   0x000040b4   Section        0  kservice.o(i.rt_hw_console_output)
    i.rt_hw_hard_fault_exception             0x000040b8   Section        0  cpuport.o(i.rt_hw_hard_fault_exception)
    i.rt_hw_stack_init                       0x000041a8   Section        0  cpuport.o(i.rt_hw_stack_init)
    i.rt_interrupt_enter                     0x000041e8   Section        0  irq.o(i.rt_interrupt_enter)
    i.rt_interrupt_leave                     0x00004208   Section        0  irq.o(i.rt_interrupt_leave)
    i.rt_ipc_list_resume                     0x00004228   Section        0  ipc.o(i.rt_ipc_list_resume)
    rt_ipc_list_resume                       0x00004229   Thumb Code    20  ipc.o(i.rt_ipc_list_resume)
    i.rt_ipc_list_suspend                    0x0000423c   Section        0  ipc.o(i.rt_ipc_list_suspend)
    rt_ipc_list_suspend                      0x0000423d   Thumb Code    98  ipc.o(i.rt_ipc_list_suspend)
    i.rt_ipc_object_init                     0x0000429e   Section        0  ipc.o(i.rt_ipc_object_init)
    rt_ipc_object_init                       0x0000429f   Thumb Code    16  ipc.o(i.rt_ipc_object_init)
    i.rt_kprintf                             0x000042b0   Section        0  kservice.o(i.rt_kprintf)
    i.rt_list_init                           0x000042e4   Section        0  ipc.o(i.rt_list_init)
    rt_list_init                             0x000042e5   Thumb Code     6  ipc.o(i.rt_list_init)
    i.rt_list_init                           0x000042ea   Section        0  scheduler.o(i.rt_list_init)
    rt_list_init                             0x000042eb   Thumb Code     6  scheduler.o(i.rt_list_init)
    i.rt_list_init                           0x000042f0   Section        0  timer.o(i.rt_list_init)
    rt_list_init                             0x000042f1   Thumb Code     6  timer.o(i.rt_list_init)
    i.rt_list_insert_after                   0x000042f6   Section        0  thread.o(i.rt_list_insert_after)
    rt_list_insert_after                     0x000042f7   Thumb Code    14  thread.o(i.rt_list_insert_after)
    i.rt_list_insert_after                   0x00004304   Section        0  timer.o(i.rt_list_insert_after)
    rt_list_insert_after                     0x00004305   Thumb Code    14  timer.o(i.rt_list_insert_after)
    i.rt_list_insert_before                  0x00004312   Section        0  ipc.o(i.rt_list_insert_before)
    rt_list_insert_before                    0x00004313   Thumb Code    14  ipc.o(i.rt_list_insert_before)
    i.rt_list_isempty                        0x00004320   Section        0  ipc.o(i.rt_list_isempty)
    rt_list_isempty                          0x00004321   Thumb Code    16  ipc.o(i.rt_list_isempty)
    i.rt_list_isempty                        0x00004330   Section        0  timer.o(i.rt_list_isempty)
    rt_list_isempty                          0x00004331   Thumb Code    16  timer.o(i.rt_list_isempty)
    i.rt_list_remove                         0x00004340   Section        0  thread.o(i.rt_list_remove)
    rt_list_remove                           0x00004341   Thumb Code    18  thread.o(i.rt_list_remove)
    i.rt_memset                              0x00004352   Section        0  kservice.o(i.rt_memset)
    i.rt_object_detach                       0x0000439e   Section        0  object.o(i.rt_object_detach)
    i.rt_object_get_information              0x000043cc   Section        0  object.o(i.rt_object_get_information)
    i.rt_object_init                         0x000043f0   Section        0  object.o(i.rt_object_init)
    i.rt_object_is_systemobject              0x0000444e   Section        0  object.o(i.rt_object_is_systemobject)
    i.rt_schedule                            0x00004464   Section        0  scheduler.o(i.rt_schedule)
    i.rt_schedule_insert_thread              0x000044e8   Section        0  scheduler.o(i.rt_schedule_insert_thread)
    i.rt_schedule_remove_thread              0x0000453c   Section        0  scheduler.o(i.rt_schedule_remove_thread)
    i.rt_sem_init                            0x00004594   Section        0  ipc.o(i.rt_sem_init)
    i.rt_sem_release                         0x000045b6   Section        0  ipc.o(i.rt_sem_release)
    i.rt_sem_take                            0x000045f2   Section        0  ipc.o(i.rt_sem_take)
    i.rt_show_version                        0x0000466c   Section        0  kservice.o(i.rt_show_version)
    i.rt_strlen                              0x0000471c   Section        0  kservice.o(i.rt_strlen)
    i.rt_strncpy                             0x0000472e   Section        0  kservice.o(i.rt_strncpy)
    i.rt_system_scheduler_init               0x00004768   Section        0  scheduler.o(i.rt_system_scheduler_init)
    i.rt_system_scheduler_start              0x000047b4   Section        0  scheduler.o(i.rt_system_scheduler_start)
    i.rt_system_timer_init                   0x000047e4   Section        0  timer.o(i.rt_system_timer_init)
    i.rt_system_timer_thread_init            0x00004800   Section        0  timer.o(i.rt_system_timer_thread_init)
    i.rt_thread_exit                         0x00004804   Section        0  thread.o(i.rt_thread_exit)
    i.rt_thread_idle_entry                   0x0000485c   Section        0  idle.o(i.rt_thread_idle_entry)
    rt_thread_idle_entry                     0x0000485d   Thumb Code     8  idle.o(i.rt_thread_idle_entry)
    i.rt_thread_idle_excute                  0x00004864   Section        0  idle.o(i.rt_thread_idle_excute)
    i.rt_thread_idle_gethandler              0x000048e8   Section        0  idle.o(i.rt_thread_idle_gethandler)
    i.rt_thread_idle_init                    0x000048f0   Section        0  idle.o(i.rt_thread_idle_init)
    i.rt_thread_init                         0x0000492c   Section        0  thread.o(i.rt_thread_init)
    i.rt_thread_mdelay                       0x00004958   Section        0  thread.o(i.rt_thread_mdelay)
    i.rt_thread_resume                       0x0000496c   Section        0  thread.o(i.rt_thread_resume)
    i.rt_thread_self                         0x000049a8   Section        0  thread.o(i.rt_thread_self)
    i.rt_thread_sleep                        0x000049b4   Section        0  thread.o(i.rt_thread_sleep)
    i.rt_thread_startup                      0x000049f8   Section        0  thread.o(i.rt_thread_startup)
    i.rt_thread_suspend                      0x00004a28   Section        0  thread.o(i.rt_thread_suspend)
    i.rt_thread_timeout                      0x00004a6c   Section        0  thread.o(i.rt_thread_timeout)
    i.rt_thread_yield                        0x00004a8c   Section        0  thread.o(i.rt_thread_yield)
    i.rt_tick_from_millisecond               0x00004af0   Section        0  clock.o(i.rt_tick_from_millisecond)
    i.rt_tick_get                            0x00004b30   Section        0  clock.o(i.rt_tick_get)
    i.rt_tick_increase                       0x00004b3c   Section        0  clock.o(i.rt_tick_increase)
    i.rt_timer_check                         0x00004b6c   Section        0  timer.o(i.rt_timer_check)
    i.rt_timer_control                       0x00004bec   Section        0  timer.o(i.rt_timer_control)
    i.rt_timer_detach                        0x00004c28   Section        0  timer.o(i.rt_timer_detach)
    i.rt_timer_init                          0x00004c48   Section        0  timer.o(i.rt_timer_init)
    i.rt_timer_start                         0x00004c70   Section        0  timer.o(i.rt_timer_start)
    i.rt_timer_stop                          0x00004d78   Section        0  timer.o(i.rt_timer_stop)
    i.rt_vsnprintf                           0x00004da8   Section        0  kservice.o(i.rt_vsnprintf)
    i.rti_board_end                          0x00005110   Section        0  components.o(i.rti_board_end)
    rti_board_end                            0x00005111   Thumb Code     4  components.o(i.rti_board_end)
    i.rti_board_start                        0x00005114   Section        0  components.o(i.rti_board_start)
    rti_board_start                          0x00005115   Thumb Code     4  components.o(i.rti_board_start)
    i.rti_end                                0x00005118   Section        0  components.o(i.rti_end)
    rti_end                                  0x00005119   Thumb Code     4  components.o(i.rti_end)
    i.rti_start                              0x0000511c   Section        0  components.o(i.rti_start)
    rti_start                                0x0000511d   Thumb Code     4  components.o(i.rti_start)
    i.rtthread_startup                       0x00005120   Section        0  components.o(i.rtthread_startup)
    i.self_abs                               0x0000514a   Section        0  myadc.o(i.self_abs)
    i.skip_atoi                              0x0000515c   Section        0  kservice.o(i.skip_atoi)
    skip_atoi                                0x0000515d   Thumb Code    36  kservice.o(i.skip_atoi)
    i.temp_adj                               0x00005180   Section        0  main.o(i.temp_adj)
    i.thread1_entry                          0x000052e4   Section        0  main.o(i.thread1_entry)
    thread1_entry                            0x000052e5   Thumb Code    76  main.o(i.thread1_entry)
    i.thread2_entry                          0x00005344   Section        0  main.o(i.thread2_entry)
    thread2_entry                            0x00005345   Thumb Code   566  main.o(i.thread2_entry)
    i.uart1_send                             0x000055a8   Section        0  myuart.o(i.uart1_send)
    i.uart_gpio_init                         0x000055f4   Section        0  myinit.o(i.uart_gpio_init)
    i.valve_adjust_state                     0x00005638   Section        0  main.o(i.valve_adjust_state)
    i.valve_frist_init                       0x000056d4   Section        0  main.o(i.valve_frist_init)
    .constdata                               0x000057dc   Section       24  sysctrl.o(.constdata)
    .constdata                               0x000057f4   Section       12  lpuart.o(.constdata)
    .constdata                               0x00005800   Section      404  myadc.o(.constdata)
    .constdata                               0x00005994   Section      290  kservice.o(.constdata)
    small_digits                             0x00005a94   Data          17  kservice.o(.constdata)
    large_digits                             0x00005aa5   Data          17  kservice.o(.constdata)
    .rti_fn.0                                0x00005ab8   Section        4  components.o(.rti_fn.0)
    __tagsym$$used                           0x00005ab8   Number         0  components.o(.rti_fn.0)
    .rti_fn.0.end                            0x00005abc   Section        4  components.o(.rti_fn.0.end)
    __tagsym$$used                           0x00005abc   Number         0  components.o(.rti_fn.0.end)
    .rti_fn.1.end                            0x00005ac0   Section        4  components.o(.rti_fn.1.end)
    __tagsym$$used                           0x00005ac0   Number         0  components.o(.rti_fn.1.end)
    .rti_fn.6.end                            0x00005ac4   Section        4  components.o(.rti_fn.6.end)
    __tagsym$$used                           0x00005ac4   Number         0  components.o(.rti_fn.6.end)
    .data                                    0x20000000   Section        4  system_hc32l13x.o(.data)
    .data                                    0x20000004   Section        3  myadc.o(.data)
    .data                                    0x20000007   Section        3  mykey.o(.data)
    .data                                    0x2000000c   Section       24  mytimer.o(.data)
    .data                                    0x20000024   Section        1  myuart.o(.data)
    .data                                    0x20000025   Section        1  mybt.o(.data)
    .data                                    0x20000026   Section        2  myrtc.o(.data)
    .data                                    0x20000028   Section        2  mycrc.o(.data)
    .data                                    0x2000002a   Section       11  main.o(.data)
    adjust_flag                              0x20000032   Data           1  main.o(.data)
    adjust_flag                              0x20000033   Data           1  main.o(.data)
    buf_length                               0x20000034   Data           1  main.o(.data)
    .data                                    0x20000038   Section       12  cpuport.o(.data)
    .data                                    0x20000044   Section        4  clock.o(.data)
    rt_tick                                  0x20000044   Data           4  clock.o(.data)
    .data                                    0x20000048   Section        1  irq.o(.data)
    .data                                    0x2000004c   Section       64  object.o(.data)
    rt_object_container                      0x2000004c   Data          64  object.o(.data)
    .data                                    0x2000008c   Section       24  scheduler.o(.data)
    rt_scheduler_lock_nest                   0x2000008c   Data           2  scheduler.o(.data)
    .data                                    0x200000a4   Section       12  timer.o(.data)
    rt_timer_list                            0x200000a4   Data           8  timer.o(.data)
    random_nr                                0x200000ac   Data           4  timer.o(.data)
    .bss                                     0x200000b0   Section      104  myadc.o(.bss)
    .bss                                     0x20000118   Section       20  mytimer.o(.bss)
    .bss                                     0x2000012c   Section      100  myuart.o(.bss)
    .bss                                     0x20000190   Section     1401  main.o(.bss)
    thread2_stack                            0x20000190   Data         512  main.o(.bss)
    thread2                                  0x20000390   Data         120  main.o(.bss)
    thread1_stack                            0x20000408   Data         512  main.o(.bss)
    thread1                                  0x20000608   Data         120  main.o(.bss)
    sendbuf                                  0x200006a0   Data         105  main.o(.bss)
    .bss                                     0x20000710   Section      376  components.o(.bss)
    main_stack                               0x20000710   Data         256  components.o(.bss)
    .bss                                     0x20000888   Section      248  idle.o(.bss)
    idle                                     0x20000888   Data         120  idle.o(.bss)
    rt_thread_stack                          0x20000900   Data         128  idle.o(.bss)
    .bss                                     0x20000980   Section      128  kservice.o(.bss)
    rt_log_buf                               0x20000980   Data         128  kservice.o(.bss)
    .bss                                     0x20000a00   Section       32  scheduler.o(.bss)
    STACK                                    0x20000a20   Section     2048  startup_hc32l13x.o(STACK)

    Global Symbols

    Symbol Name                              Value     Ov Type        Size  Object(Section)

    BuildAttributes$$THM_ISAv3M$S$PE$A:L22$X:L11$S22$IEEE1$IW$USESV6$~STKCKD$USESV7$~SHL$OSPACE$ROPI$EBA8$MICROLIB$REQ8$PRES8$EABIv2 0x00000000   Number         0  anon$$obj.o ABSOLUTE
    __ARM_use_no_argv                        0x00000000   Number         0  main.o ABSOLUTE
    __Vectors                                0x00000000   Data           0  startup_hc32l13x.o(RESET)
    __use_no_errno                           0x00000000   Number         0  useno.o ABSOLUTE
    __use_no_exception_handling              0x00000000   Number         0  useno.o ABSOLUTE
    __use_no_fp                              0x00000000   Number         0  useno.o ABSOLUTE
    __use_no_heap                            0x00000000   Number         0  useno.o ABSOLUTE
    __use_no_heap_region                     0x00000000   Number         0  useno.o ABSOLUTE
    __use_no_semihosting                     0x00000000   Number         0  useno.o ABSOLUTE
    __use_no_semihosting_swi                 0x00000000   Number         0  useno.o ABSOLUTE
    __use_no_signal_handling                 0x00000000   Number         0  useno.o ABSOLUTE
    Adc_IRQHandler                            - Undefined Weak Reference
    ClkTrim_IRQHandler                        - Undefined Weak Reference
    Dmac_IRQHandler                           - Undefined Weak Reference
    Flash_IRQHandler                          - Undefined Weak Reference
    I2c0_IRQHandler                           - Undefined Weak Reference
    I2c1_IRQHandler                           - Undefined Weak Reference
    Lcd_IRQHandler                            - Undefined Weak Reference
    LpUart0_IRQHandler                        - Undefined Weak Reference
    Pca_IRQHandler                            - Undefined Weak Reference
    Ram_IRQHandler                            - Undefined Weak Reference
    Spi0_IRQHandler                           - Undefined Weak Reference
    Spi1_IRQHandler                           - Undefined Weak Reference
    Tim1_IRQHandler                           - Undefined Weak Reference
    Tim2_IRQHandler                           - Undefined Weak Reference
    Tim3_IRQHandler                           - Undefined Weak Reference
    Tim4_IRQHandler                           - Undefined Weak Reference
    Tim5_IRQHandler                           - Undefined Weak Reference
    Tim6_IRQHandler                           - Undefined Weak Reference
    Uart0_IRQHandler                          - Undefined Weak Reference
    Uart1_IRQHandler                          - Undefined Weak Reference
    Vc0_IRQHandler                            - Undefined Weak Reference
    Vc1_IRQHandler                            - Undefined Weak Reference
    Wdt_IRQHandler                            - Undefined Weak Reference
    __cpp_initialize__aeabi_                  - Undefined Weak Reference
    __cxa_finalize                            - Undefined Weak Reference
    __decompress                              - Undefined Weak Reference
    _clock_init                               - Undefined Weak Reference
    _microlib_exit                            - Undefined Weak Reference
    __Vectors_End                            0x000000c0   Data           0  startup_hc32l13x.o(RESET)
    __Vectors_Size                           0x000000c0   Number         0  startup_hc32l13x.o ABSOLUTE
    __main                                   0x000000c1   Thumb Code     0  entry.o(.ARM.Collect$$$$00000000)
    _main_stk                                0x000000c1   Thumb Code     0  entry2.o(.ARM.Collect$$$$00000001)
    _main_scatterload                        0x000000c5   Thumb Code     0  entry5.o(.ARM.Collect$$$$00000004)
    __main_after_scatterload                 0x000000c9   Thumb Code     0  entry5.o(.ARM.Collect$$$$00000004)
    _main_clock                              0x000000c9   Thumb Code     0  entry7b.o(.ARM.Collect$$$$00000008)
    _main_cpp_init                           0x000000c9   Thumb Code     0  entry8b.o(.ARM.Collect$$$$0000000A)
    _main_init                               0x000000c9   Thumb Code     0  entry9a.o(.ARM.Collect$$$$0000000B)
    __rt_final_cpp                           0x000000d1   Thumb Code     0  entry10a.o(.ARM.Collect$$$$0000000D)
    __rt_final_exit                          0x000000d1   Thumb Code     0  entry11a.o(.ARM.Collect$$$$0000000F)
    Reset_Handler                            0x000000d5   Thumb Code    26  startup_hc32l13x.o(.text)
    NMI_Handler                              0x000000ef   Thumb Code     2  startup_hc32l13x.o(.text)
    SVC_Handler                              0x000000f3   Thumb Code     2  startup_hc32l13x.o(.text)
    PORTB_IRQHandler                         0x000000f9   Thumb Code     0  startup_hc32l13x.o(.text)
    PORTC_IRQHandler                         0x000000f9   Thumb Code     0  startup_hc32l13x.o(.text)
    PORTD_IRQHandler                         0x000000f9   Thumb Code     0  startup_hc32l13x.o(.text)
    rt_hw_interrupt_disable                  0x00000111   Thumb Code     8  context_rvds.o(.text)
    rt_hw_interrupt_enable                   0x00000119   Thumb Code     6  context_rvds.o(.text)
    rt_hw_context_switch                     0x0000011f   Thumb Code    28  context_rvds.o(.text)
    rt_hw_context_switch_interrupt           0x0000011f   Thumb Code     0  context_rvds.o(.text)
    PendSV_Handler                           0x0000013b   Thumb Code    84  context_rvds.o(.text)
    rt_hw_context_switch_to                  0x0000018f   Thumb Code    44  context_rvds.o(.text)
    rt_hw_interrupt_thread_switch            0x000001bb   Thumb Code     2  context_rvds.o(.text)
    HardFault_Handler                        0x000001bd   Thumb Code    12  context_rvds.o(.text)
    __aeabi_uidiv                            0x000001e9   Thumb Code     0  uidiv.o(.text)
    __aeabi_uidivmod                         0x000001e9   Thumb Code    44  uidiv.o(.text)
    __aeabi_idiv                             0x00000215   Thumb Code     0  idiv.o(.text)
    __aeabi_idivmod                          0x00000215   Thumb Code    40  idiv.o(.text)
    __aeabi_memcpy                           0x0000023d   Thumb Code    36  memcpya.o(.text)
    __aeabi_memcpy4                          0x0000023d   Thumb Code     0  memcpya.o(.text)
    __aeabi_memcpy8                          0x0000023d   Thumb Code     0  memcpya.o(.text)
    __aeabi_memset                           0x00000261   Thumb Code    14  memseta.o(.text)
    __aeabi_memset4                          0x00000261   Thumb Code     0  memseta.o(.text)
    __aeabi_memset8                          0x00000261   Thumb Code     0  memseta.o(.text)
    __aeabi_memclr                           0x0000026f   Thumb Code     4  memseta.o(.text)
    __aeabi_memclr4                          0x0000026f   Thumb Code     0  memseta.o(.text)
    __aeabi_memclr8                          0x0000026f   Thumb Code     0  memseta.o(.text)
    _memset$wrapper                          0x00000273   Thumb Code    18  memseta.o(.text)
    __aeabi_dadd                             0x00000285   Thumb Code   328  dadd.o(.text)
    __aeabi_dsub                             0x000003cd   Thumb Code    12  dadd.o(.text)
    __aeabi_drsub                            0x000003d9   Thumb Code    12  dadd.o(.text)
    __aeabi_ddiv                             0x000003e9   Thumb Code   234  ddiv.o(.text)
    __aeabi_i2d                              0x000004d9   Thumb Code    34  dflti.o(.text)
    __aeabi_ui2d                             0x00000501   Thumb Code    24  dfltui.o(.text)
    __aeabi_d2uiz                            0x0000051d   Thumb Code    50  dfixui.o(.text)
    __aeabi_llsl                             0x00000559   Thumb Code    32  llshl.o(.text)
    _ll_shift_l                              0x00000559   Thumb Code     0  llshl.o(.text)
    __aeabi_llsr                             0x00000579   Thumb Code    34  llushr.o(.text)
    _ll_ushift_r                             0x00000579   Thumb Code     0  llushr.o(.text)
    __aeabi_lasr                             0x0000059b   Thumb Code    38  llsshr.o(.text)
    _ll_sshift_r                             0x0000059b   Thumb Code     0  llsshr.o(.text)
    __I$use$fp                               0x000005c1   Thumb Code     0  iusefp.o(.text)
    _double_round                            0x000005c1   Thumb Code    26  depilogue.o(.text)
    _double_epilogue                         0x000005db   Thumb Code   164  depilogue.o(.text)
    __scatterload                            0x00000681   Thumb Code    28  init.o(.text)
    __scatterload_rt2                        0x00000681   Thumb Code     0  init.o(.text)
    main                                     0x000006a5   Thumb Code    10  components.o(i.$Sub$$main)
    ADC_IRQHandler                           0x000006af   Thumb Code     8  interrupts_hc32l13x.o(i.ADC_IRQHandler)
    Adc_Enable                               0x000006b9   Thumb Code    16  adc.o(i.Adc_Enable)
    Adc_Init                                 0x000006cd   Thumb Code   100  adc.o(i.Adc_Init)
    Adc_SqrModeCfg                           0x00000735   Thumb Code   112  adc.o(i.Adc_SqrModeCfg)
    AppAdcSQRCfg                             0x000007a9   Thumb Code   602  myadc.o(i.AppAdcSQRCfg)
    AppAdc_temp                              0x00000a09   Thumb Code   552  myadc.o(i.AppAdc_temp)
    AppAdc_valve                             0x00000c49   Thumb Code  1370  myadc.o(i.AppAdc_valve)
    Bgr_BgrEnable                            0x000011c1   Thumb Code    22  bgr.o(i.Bgr_BgrEnable)
    Bt_ClearIntFlag                          0x000011dd   Thumb Code    22  bt.o(i.Bt_ClearIntFlag)
    CLKTRIM_IRQHandler                       0x000011f9   Thumb Code     8  interrupts_hc32l13x.o(i.CLKTRIM_IRQHandler)
    HDEE_BakZone_Write                       0x00001201   Thumb Code   106  hdee.o(.ARM.__at_0x1200)
    AppMAdcInit                              0x00001279   Thumb Code    88  myadc.o(i.AppMAdcInit)
    Bt_GetIntFlag                            0x000012d1   Thumb Code    24  bt.o(i.Bt_GetIntFlag)
    DMAC_IRQHandler                          0x000012ed   Thumb Code     8  interrupts_hc32l13x.o(i.DMAC_IRQHandler)
    FLASH_RAM_IRQHandler                     0x000012f5   Thumb Code    12  interrupts_hc32l13x.o(i.FLASH_RAM_IRQHandler)
    HDEE_Write                               0x00001301   Thumb Code    70  hdee.o(.ARM.__at_0x1300)
    Bt_M0_Cnt16Set                           0x00001349   Thumb Code    26  bt.o(i.Bt_M0_Cnt16Set)
    Bt_M0_Run                                0x00001369   Thumb Code    24  bt.o(i.Bt_M0_Run)
    Bt_M0_Stop                               0x00001385   Thumb Code    22  bt.o(i.Bt_M0_Stop)
    Bt_Mode0_EnableIrq                       0x000013a1   Thumb Code    24  bt.o(i.Bt_Mode0_EnableIrq)
    Crc_cal                                  0x000013bd   Thumb Code    38  mycrc.o(i.Crc_cal)
    EeRecord_Write                           0x000013e9   Thumb Code    24  hdee.o(i.EeRecord_Write)
    HDEE_BakZone_Clear                       0x00001401   Thumb Code    16  hdee.o(.ARM.__at_0x1400)
    Bt_Mode0_Init                            0x00001411   Thumb Code   148  bt.o(i.Bt_Mode0_Init)
    CalcCrc                                  0x000014a9   Thumb Code    78  mycrc.o(i.CalcCrc)
    Conver_to_Temp                           0x00001501   Thumb Code   118  myadc.o(i.Conver_to_Temp)
    Crc_check                                0x00001581   Thumb Code    72  mycrc.o(i.Crc_check)
    Deal_Parameter                           0x000015cd   Thumb Code    26  datadeal.o(i.Deal_Parameter)
    EeRecord_AddCRC                          0x000015e9   Thumb Code    66  hdee.o(i.EeRecord_AddCRC)
    EeRecord_Append                          0x00001639   Thumb Code    52  hdee.o(i.EeRecord_Append)
    EeRecord_CheckCRC                        0x0000166d   Thumb Code    60  hdee.o(i.EeRecord_CheckCRC)
    EeRecord_CheckFF                         0x000016b5   Thumb Code    30  hdee.o(i.EeRecord_CheckFF)
    EeRecord_FindLastRecord                  0x000016d5   Thumb Code   118  hdee.o(i.EeRecord_FindLastRecord)
    EeRecord_FindNewSpace                    0x00001751   Thumb Code    84  hdee.o(i.EeRecord_FindNewSpace)
    EeRecord_PageFlag_Modify                 0x000017a9   Thumb Code    32  hdee.o(i.EeRecord_PageFlag_Modify)
    EnableNvic                               0x000017cd   Thumb Code    76  interrupts_hc32l13x.o(i.EnableNvic)
    Flash_ErasePage                          0x00001821   Thumb Code    20  hdee.o(i.Flash_ErasePage)
    Flash_Operation_DeIni                    0x00001835   Thumb Code    84  hdee.o(i.Flash_Operation_DeIni)
    Flash_Operation_Ini                      0x0000189d   Thumb Code   278  hdee.o(i.Flash_Operation_Ini)
    Flash_ReadBytes                          0x000019d5   Thumb Code    20  hdee.o(i.Flash_ReadBytes)
    Flash_WriteBytes                         0x000019e9   Thumb Code    82  hdee.o(i.Flash_WriteBytes)
    Get16Bit                                 0x00001a3b   Thumb Code    12  ddl.o(i.Get16Bit)
    GetBit                                   0x00001a47   Thumb Code    12  ddl.o(i.GetBit)
    Gpio_ClearIrq                            0x00001a55   Thumb Code    22  gpio.o(i.Gpio_ClearIrq)
    Gpio_EnableIrq                           0x00001a71   Thumb Code    30  gpio.o(i.Gpio_EnableIrq)
    Gpio_Init                                0x00001a95   Thumb Code   130  gpio.o(i.Gpio_Init)
    Gpio_SetAfMode                           0x00001b25   Thumb Code    16  gpio.o(i.Gpio_SetAfMode)
    HDEE_BakZone_FindAddr                    0x00001b39   Thumb Code    48  hdee.o(i.HDEE_BakZone_FindAddr)
    HDEE_Ini                                 0x00001b6d   Thumb Code    72  hdee.o(i.HDEE_Ini)
    HDEE_Read                                0x00001bb5   Thumb Code    62  hdee.o(i.HDEE_Read)
    I2C0_IRQHandler                          0x00001bf3   Thumb Code     8  interrupts_hc32l13x.o(i.I2C0_IRQHandler)
    I2C1_IRQHandler                          0x00001bfb   Thumb Code     8  interrupts_hc32l13x.o(i.I2C1_IRQHandler)
    Init_LpTimer                             0x00001c05   Thumb Code    86  mytimer.o(i.Init_LpTimer)
    Init_Parameter                           0x00001c65   Thumb Code   428  datadeal.o(i.Init_Parameter)
    Key_Init                                 0x00001e25   Thumb Code   108  mykey.o(i.Key_Init)
    LCD_IRQHandler                           0x00001e91   Thumb Code     8  interrupts_hc32l13x.o(i.LCD_IRQHandler)
    LED3                                     0x00001e99   Thumb Code    22  myinit.o(i.LED3)
    LED4                                     0x00001eb5   Thumb Code    22  myinit.o(i.LED4)
    LED5                                     0x00001ed1   Thumb Code    26  myinit.o(i.LED5)
    LED6                                     0x00001ef1   Thumb Code    22  myinit.o(i.LED6)
    LED7                                     0x00001f0d   Thumb Code    26  myinit.o(i.LED7)
    LED8                                     0x00001f2d   Thumb Code    26  myinit.o(i.LED8)
    LED9                                     0x00001f4d   Thumb Code    26  myinit.o(i.LED9)
    LPTIM_IRQHandler                         0x00001f6d   Thumb Code     8  interrupts_hc32l13x.o(i.LPTIM_IRQHandler)
    LPUART0_IRQHandler                       0x00001f75   Thumb Code     8  interrupts_hc32l13x.o(i.LPUART0_IRQHandler)
    LPUART1_IRQHandler                       0x00001f7d   Thumb Code     8  interrupts_hc32l13x.o(i.LPUART1_IRQHandler)
    LPUart_ClrStatus                         0x00001f85   Thumb Code    22  lpuart.o(i.LPUart_ClrStatus)
    LPUart_EnableFunc                        0x00001f9b   Thumb Code    20  lpuart.o(i.LPUart_EnableFunc)
    LPUart_EnableIrq                         0x00001faf   Thumb Code    20  lpuart.o(i.LPUart_EnableIrq)
    LPUart_GetStatus                         0x00001fc3   Thumb Code    24  lpuart.o(i.LPUart_GetStatus)
    LPUart_Init                              0x00001fdd   Thumb Code   106  lpuart.o(i.LPUart_Init)
    LPUart_ReceiveData                       0x0000204d   Thumb Code     8  lpuart.o(i.LPUart_ReceiveData)
    LVD_IRQHandler                           0x00002055   Thumb Code     8  interrupts_hc32l13x.o(i.LVD_IRQHandler)
    LpTim_IRQHandler                         0x0000205d   Thumb Code   114  mytimer.o(i.LpTim_IRQHandler)
    LpUart1_IRQHandler                       0x000020e5   Thumb Code    66  myuart.o(i.LpUart1_IRQHandler)
    Lptim_ClrItStatus                        0x00002139   Thumb Code    18  lptim.o(i.Lptim_ClrItStatus)
    Lptim_Cmd                                0x0000214b   Thumb Code    20  lptim.o(i.Lptim_Cmd)
    Lptim_ConfIt                             0x0000215f   Thumb Code    20  lptim.o(i.Lptim_ConfIt)
    Lptim_GetItStatus                        0x00002173   Thumb Code    16  lptim.o(i.Lptim_GetItStatus)
    Lptim_Init                               0x00002183   Thumb Code   170  lptim.o(i.Lptim_Init)
    Lvd_ClearIrq                             0x0000222d   Thumb Code    14  lvd.o(i.Lvd_ClearIrq)
    Lvd_IRQHandler                           0x00002241   Thumb Code     8  mylvd.o(i.Lvd_IRQHandler)
    MyTempInit                               0x00002249   Thumb Code    40  myinit.o(i.MyTempInit)
    PCA_IRQHandler                           0x00002305   Thumb Code     8  interrupts_hc32l13x.o(i.PCA_IRQHandler)
    PCNT_IRQHandler                          0x0000230d   Thumb Code     8  interrupts_hc32l13x.o(i.PCNT_IRQHandler)
    PORTA_IRQHandler                         0x00002315   Thumb Code   218  mykey.o(i.PORTA_IRQHandler)
    Pcnt_IRQHandler                          0x00002411   Thumb Code   194  mytimer.o(i.Pcnt_IRQHandler)
    RTC_IRQHandler                           0x000024e9   Thumb Code     8  interrupts_hc32l13x.o(i.RTC_IRQHandler)
    Rtc_ClearPrdfItStatus                    0x000024f1   Thumb Code    14  rtc.o(i.Rtc_ClearPrdfItStatus)
    Rtc_Cmd                                  0x00002505   Thumb Code    16  rtc.o(i.Rtc_Cmd)
    Rtc_CompCfg                              0x00002519   Thumb Code    56  rtc.o(i.Rtc_CompCfg)
    Rtc_GetPridItStatus                      0x00002555   Thumb Code    12  rtc.o(i.Rtc_GetPridItStatus)
    Rtc_IRQHandler                           0x00002565   Thumb Code   366  myrtc.o(i.Rtc_IRQHandler)
    Rtc_Init                                 0x00002705   Thumb Code    82  rtc.o(i.Rtc_Init)
    Rtc_SetCyc                               0x0000275d   Thumb Code   104  rtc.o(i.Rtc_SetCyc)
    Rtc_SetTime                              0x000027c9   Thumb Code   142  rtc.o(i.Rtc_SetTime)
    SPI0_IRQHandler                          0x0000285d   Thumb Code     8  interrupts_hc32l13x.o(i.SPI0_IRQHandler)
    SPI1_IRQHandler                          0x00002865   Thumb Code     8  interrupts_hc32l13x.o(i.SPI1_IRQHandler)
    Set16Bit                                 0x0000286d   Thumb Code    30  ddl.o(i.Set16Bit)
    SetBit                                   0x0000288b   Thumb Code    30  ddl.o(i.SetBit)
    Simple_Delay                             0x000028a9   Thumb Code    80  mykey.o(i.Simple_Delay)
    SysTick_Handler                          0x000028f9   Thumb Code    16  board.o(i.SysTick_Handler)
    Sysctrl_ClkSourceEnable                  0x00002909   Thumb Code   276  sysctrl.o(i.Sysctrl_ClkSourceEnable)
    Sysctrl_GetHClkFreq                      0x00002a25   Thumb Code   354  sysctrl.o(i.Sysctrl_GetHClkFreq)
    Sysctrl_GetPClkFreq                      0x00002b99   Thumb Code    28  sysctrl.o(i.Sysctrl_GetPClkFreq)
    Sysctrl_SetPeripheralGate                0x00002bb9   Thumb Code    20  sysctrl.o(i.Sysctrl_SetPeripheralGate)
    Sysctrl_SetRCHTrim                       0x00002bd1   Thumb Code    32  sysctrl.o(i.Sysctrl_SetRCHTrim)
    Sysctrl_SetRCLTrim                       0x00002bf9   Thumb Code    32  sysctrl.o(i.Sysctrl_SetRCLTrim)
    Sysctrl_SysClkSwitch                     0x00002c21   Thumb Code    40  sysctrl.o(i.Sysctrl_SysClkSwitch)
    SystemCoreClockUpdate                    0x00002c4d   Thumb Code    12  system_hc32l13x.o(i.SystemCoreClockUpdate)
    SystemInit                               0x00002c5d   Thumb Code    40  system_hc32l13x.o(i.SystemInit)
    TIM0_IRQHandler                          0x00002c85   Thumb Code     8  interrupts_hc32l13x.o(i.TIM0_IRQHandler)
    TIM1_IRQHandler                          0x00002c8d   Thumb Code     8  interrupts_hc32l13x.o(i.TIM1_IRQHandler)
    TIM2_IRQHandler                          0x00002c95   Thumb Code     8  interrupts_hc32l13x.o(i.TIM2_IRQHandler)
    TIM3_IRQHandler                          0x00002c9d   Thumb Code     8  interrupts_hc32l13x.o(i.TIM3_IRQHandler)
    TIM4_IRQHandler                          0x00002ca5   Thumb Code     8  interrupts_hc32l13x.o(i.TIM4_IRQHandler)
    TIM5_IRQHandler                          0x00002cad   Thumb Code     8  interrupts_hc32l13x.o(i.TIM5_IRQHandler)
    TIM6_IRQHandler                          0x00002cb5   Thumb Code     8  interrupts_hc32l13x.o(i.TIM6_IRQHandler)
    Tim0_IRQHandler                          0x00002cbd   Thumb Code    64  mybt.o(i.Tim0_IRQHandler)
    UART0_IRQHandler                         0x00002d0d   Thumb Code     8  interrupts_hc32l13x.o(i.UART0_IRQHandler)
    UART1_IRQHandler                         0x00002d15   Thumb Code     8  interrupts_hc32l13x.o(i.UART1_IRQHandler)
    VC0_IRQHandler                           0x00002d1d   Thumb Code     8  interrupts_hc32l13x.o(i.VC0_IRQHandler)
    VC1_IRQHandler                           0x00002d25   Thumb Code     8  interrupts_hc32l13x.o(i.VC1_IRQHandler)
    WDT_IRQHandler                           0x00002d2d   Thumb Code     8  interrupts_hc32l13x.o(i.WDT_IRQHandler)
    WDT_int                                  0x00002d35   Thumb Code    20  myinit.o(i.WDT_int)
    Wdt_Feed                                 0x00002d49   Thumb Code    12  wdt.o(i.Wdt_Feed)
    Wdt_Init                                 0x00002d59   Thumb Code    40  wdt.o(i.Wdt_Init)
    Wdt_Start                                0x00002d85   Thumb Code    12  wdt.o(i.Wdt_Start)
    Wdt_WriteWdtLoad                         0x00002d95   Thumb Code    20  wdt.o(i.Wdt_WriteWdtLoad)
    Write_Parameter                          0x00002dad   Thumb Code    36  datadeal.o(i.Write_Parameter)
    __ARM_clz                                0x00002e21   Thumb Code    46  depilogue.o(i.__ARM_clz)
    __ARM_common_switch8                     0x00002e4f   Thumb Code    28  adc.o(i.__ARM_common_switch8)
    __rt_ffs                                 0x00002e6d   Thumb Code    86  kservice.o(i.__rt_ffs)
    __scatterload_copy                       0x00002ec9   Thumb Code    14  handlers.o(i.__scatterload_copy)
    __scatterload_null                       0x00002ed7   Thumb Code     2  handlers.o(i.__scatterload_null)
    __scatterload_zeroinit                   0x00002ed9   Thumb Code    14  handlers.o(i.__scatterload_zeroinit)
    app_Time0Start                           0x00002fef   Thumb Code    32  mybt.o(i.app_Time0Start)
    app_Timer0Cfg                            0x0000300f   Thumb Code    80  mybt.o(i.app_Timer0Cfg)
    auto_adjdegrees                          0x00003061   Thumb Code   486  main.o(i.auto_adjdegrees)
    data_process                             0x0000326d   Thumb Code   776  mybt.o(i.data_process)
    ddl_memclr                               0x00003591   Thumb Code    32  ddl.o(i.ddl_memclr)
    degrees_calculate                        0x000035b1   Thumb Code   540  main.o(i.degrees_calculate)
    delay100us                               0x000037f5   Thumb Code    74  ddl.o(i.delay100us)
    key_deal                                 0x0000384d   Thumb Code   126  main.o(i.key_deal)
    led_hand                                 0x000038e5   Thumb Code   212  mytimer.o(i.led_hand)
    $Super$$main                             0x000039c9   Thumb Code   132  main.o(i.main)
    main_thread_entry                        0x00003a89   Thumb Code    14  components.o(i.main_thread_entry)
    myRtcInit                                0x00003a97   Thumb Code   112  myrtc.o(i.myRtcInit)
    mygpio_init                              0x00003b09   Thumb Code   548  myinit.o(i.mygpio_init)
    myuart_init                              0x00003d35   Thumb Code    94  myuart.o(i.myuart_init)
    pcnt_time_init                           0x00003d99   Thumb Code   122  mytimer.o(i.pcnt_time_init)
    rt_application_init                      0x00003fb1   Thumb Code    42  components.o(i.rt_application_init)
    rt_components_board_init                 0x00003ff1   Thumb Code    20  components.o(i.rt_components_board_init)
    rt_components_init                       0x0000400d   Thumb Code    20  components.o(i.rt_components_init)
    rt_enter_critical                        0x00004029   Thumb Code    28  scheduler.o(i.rt_enter_critical)
    rt_exit_critical                         0x00004049   Thumb Code    64  scheduler.o(i.rt_exit_critical)
    rt_hw_board_init                         0x00004091   Thumb Code    30  board.o(i.rt_hw_board_init)
    rt_hw_console_output                     0x000040b5   Thumb Code     2  kservice.o(i.rt_hw_console_output)
    rt_hw_hard_fault_exception               0x000040b9   Thumb Code    80  cpuport.o(i.rt_hw_hard_fault_exception)
    rt_hw_stack_init                         0x000041a9   Thumb Code    58  cpuport.o(i.rt_hw_stack_init)
    rt_interrupt_enter                       0x000041e9   Thumb Code    26  irq.o(i.rt_interrupt_enter)
    rt_interrupt_leave                       0x00004209   Thumb Code    26  irq.o(i.rt_interrupt_leave)
    rt_kprintf                               0x000042b1   Thumb Code    46  kservice.o(i.rt_kprintf)
    rt_memset                                0x00004353   Thumb Code    76  kservice.o(i.rt_memset)
    rt_object_detach                         0x0000439f   Thumb Code    44  object.o(i.rt_object_detach)
    rt_object_get_information                0x000043cd   Thumb Code    32  object.o(i.rt_object_get_information)
    rt_object_init                           0x000043f1   Thumb Code    94  object.o(i.rt_object_init)
    rt_object_is_systemobject                0x0000444f   Thumb Code    20  object.o(i.rt_object_is_systemobject)
    rt_schedule                              0x00004465   Thumb Code   106  scheduler.o(i.rt_schedule)
    rt_schedule_insert_thread                0x000044e9   Thumb Code    74  scheduler.o(i.rt_schedule_insert_thread)
    rt_schedule_remove_thread                0x0000453d   Thumb Code    78  scheduler.o(i.rt_schedule_remove_thread)
    rt_sem_init                              0x00004595   Thumb Code    34  ipc.o(i.rt_sem_init)
    rt_sem_release                           0x000045b7   Thumb Code    60  ipc.o(i.rt_sem_release)
    rt_sem_take                              0x000045f3   Thumb Code   120  ipc.o(i.rt_sem_take)
    rt_show_version                          0x0000466d   Thumb Code    38  kservice.o(i.rt_show_version)
    rt_strlen                                0x0000471d   Thumb Code    18  kservice.o(i.rt_strlen)
    rt_strncpy                               0x0000472f   Thumb Code    56  kservice.o(i.rt_strncpy)
    rt_system_scheduler_init                 0x00004769   Thumb Code    52  scheduler.o(i.rt_system_scheduler_init)
    rt_system_scheduler_start                0x000047b5   Thumb Code    36  scheduler.o(i.rt_system_scheduler_start)
    rt_system_timer_init                     0x000047e5   Thumb Code    24  timer.o(i.rt_system_timer_init)
    rt_system_timer_thread_init              0x00004801   Thumb Code     2  timer.o(i.rt_system_timer_thread_init)
    rt_thread_exit                           0x00004805   Thumb Code    78  thread.o(i.rt_thread_exit)
    rt_thread_idle_excute                    0x00004865   Thumb Code   126  idle.o(i.rt_thread_idle_excute)
    rt_thread_idle_gethandler                0x000048e9   Thumb Code     4  idle.o(i.rt_thread_idle_gethandler)
    rt_thread_idle_init                      0x000048f1   Thumb Code    38  idle.o(i.rt_thread_idle_init)
    rt_thread_init                           0x0000492d   Thumb Code    44  thread.o(i.rt_thread_init)
    rt_thread_mdelay                         0x00004959   Thumb Code    20  thread.o(i.rt_thread_mdelay)
    rt_thread_resume                         0x0000496d   Thumb Code    60  thread.o(i.rt_thread_resume)
    rt_thread_self                           0x000049a9   Thumb Code     6  thread.o(i.rt_thread_self)
    rt_thread_sleep                          0x000049b5   Thumb Code    62  thread.o(i.rt_thread_sleep)
    rt_thread_startup                        0x000049f9   Thumb Code    48  thread.o(i.rt_thread_startup)
    rt_thread_suspend                        0x00004a29   Thumb Code    68  thread.o(i.rt_thread_suspend)
    rt_thread_timeout                        0x00004a6d   Thumb Code    32  thread.o(i.rt_thread_timeout)
    rt_thread_yield                          0x00004a8d   Thumb Code    92  thread.o(i.rt_thread_yield)
    rt_tick_from_millisecond                 0x00004af1   Thumb Code    62  clock.o(i.rt_tick_from_millisecond)
    rt_tick_get                              0x00004b31   Thumb Code     6  clock.o(i.rt_tick_get)
    rt_tick_increase                         0x00004b3d   Thumb Code    44  clock.o(i.rt_tick_increase)
    rt_timer_check                           0x00004b6d   Thumb Code   120  timer.o(i.rt_timer_check)
    rt_timer_control                         0x00004bed   Thumb Code    60  timer.o(i.rt_timer_control)
    rt_timer_detach                          0x00004c29   Thumb Code    32  timer.o(i.rt_timer_detach)
    rt_timer_init                            0x00004c49   Thumb Code    38  timer.o(i.rt_timer_init)
    rt_timer_start                           0x00004c71   Thumb Code   250  timer.o(i.rt_timer_start)
    rt_timer_stop                            0x00004d79   Thumb Code    48  timer.o(i.rt_timer_stop)
    rt_vsnprintf                             0x00004da9   Thumb Code   862  kservice.o(i.rt_vsnprintf)
    rtthread_startup                         0x00005121   Thumb Code    42  components.o(i.rtthread_startup)
    self_abs                                 0x0000514b   Thumb Code    18  myadc.o(i.self_abs)
    temp_adj                                 0x00005181   Thumb Code   340  main.o(i.temp_adj)
    uart1_send                               0x000055a9   Thumb Code    72  myuart.o(i.uart1_send)
    uart_gpio_init                           0x000055f5   Thumb Code    66  myinit.o(i.uart_gpio_init)
    valve_adjust_state                       0x00005639   Thumb Code   144  main.o(i.valve_adjust_state)
    valve_frist_init                         0x000056d5   Thumb Code   244  main.o(i.valve_frist_init)
    tab_temp                                 0x00005800   Data         404  myadc.o(.constdata)
    __lowest_bit_bitmap                      0x00005994   Data         256  kservice.o(.constdata)
    __rt_init_rti_start                      0x00005ab8   Data           4  components.o(.rti_fn.0)
    __rt_init_rti_board_start                0x00005abc   Data           4  components.o(.rti_fn.0.end)
    __rt_init_rti_board_end                  0x00005ac0   Data           4  components.o(.rti_fn.1.end)
    __rt_init_rti_end                        0x00005ac4   Data           4  components.o(.rti_fn.6.end)
    Region$$Table$$Base                      0x00005ac8   Number         0  anon$$obj.o(Region$$Table)
    Region$$Table$$Limit                     0x00005ae8   Number         0  anon$$obj.o(Region$$Table)
    SystemCoreClock                          0x20000000   Data           4  system_hc32l13x.o(.data)
    val_nousing                              0x20000004   Data           1  myadc.o(.data)
    val_nousi                                0x20000005   Data           2  myadc.o(.data)
    key_press_time                           0x20000007   Data           1  mykey.o(.data)
    key_press                                0x20000008   Data           1  mykey.o(.data)
    deal_key                                 0x20000009   Data           1  mykey.o(.data)
    TAB_DispItem                             0x2000000c   Data          24  mytimer.o(.data)
    u8RxCnt                                  0x20000024   Data           1  myuart.o(.data)
    tx_flag                                  0x20000025   Data           1  mybt.o(.data)
    beep_on                                  0x20000026   Data           1  myrtc.o(.data)
    deal_key_time                            0x20000027   Data           1  myrtc.o(.data)
    CRC                                      0x20000028   Data           2  mycrc.o(.data)
    set_vave_degree1                         0x2000002a   Data           2  main.o(.data)
    data_op                                  0x2000002c   Data           1  main.o(.data)
    val_adjust_flag                          0x2000002d   Data           1  main.o(.data)
    move_stop                                0x2000002e   Data           1  main.o(.data)
    valve_state_firstinit                    0x2000002f   Data           1  main.o(.data)
    key_state                                0x20000030   Data           1  main.o(.data)
    led_485                                  0x20000031   Data           1  main.o(.data)
    rt_interrupt_from_thread                 0x20000038   Data           4  cpuport.o(.data)
    rt_interrupt_to_thread                   0x2000003c   Data           4  cpuport.o(.data)
    rt_thread_switch_interrupt_flag          0x20000040   Data           4  cpuport.o(.data)
    rt_interrupt_nest                        0x20000048   Data           1  irq.o(.data)
    rt_current_thread                        0x20000090   Data           4  scheduler.o(.data)
    rt_current_priority                      0x20000094   Data           1  scheduler.o(.data)
    rt_thread_ready_priority_group           0x20000098   Data           4  scheduler.o(.data)
    rt_thread_defunct                        0x2000009c   Data           8  scheduler.o(.data)
    Val                                      0x200000b0   Data         104  myadc.o(.bss)
    TFS                                      0x20000118   Data          20  mytimer.o(.bss)
    u8RxData                                 0x2000012c   Data         100  myuart.o(.bss)
    dynamic_sem                              0x20000680   Data          32  main.o(.bss)
    main_thread                              0x20000810   Data         120  components.o(.bss)
    rt_thread_priority_table                 0x20000a00   Data          32  scheduler.o(.bss)
    __initial_sp                             0x20001220   Data           0  startup_hc32l13x.o(STACK)



==============================================================================

Memory Map of the image

  Image Entry point : 0x000000c1

  Load Region LR_IROM1 (Base: 0x00000000, Size: 0x00005b98, Max: 0x00010000, ABSOLUTE)

    Execution Region ER_IROM1 (Base: 0x00000000, Size: 0x00005ae8, Max: 0x00010000, ABSOLUTE)

    Base Addr    Size         Type   Attr      Idx    E Section Name        Object

    0x00000000   0x000000c0   Data   RO          284    RESET               startup_hc32l13x.o
    0x000000c0   0x00000000   Code   RO         3445  * .ARM.Collect$$$$00000000  mc_p.l(entry.o)
    0x000000c0   0x00000004   Code   RO         3468    .ARM.Collect$$$$00000001  mc_p.l(entry2.o)
    0x000000c4   0x00000004   Code   RO         3471    .ARM.Collect$$$$00000004  mc_p.l(entry5.o)
    0x000000c8   0x00000000   Code   RO         3473    .ARM.Collect$$$$00000008  mc_p.l(entry7b.o)
    0x000000c8   0x00000000   Code   RO         3475    .ARM.Collect$$$$0000000A  mc_p.l(entry8b.o)
    0x000000c8   0x00000008   Code   RO         3476    .ARM.Collect$$$$0000000B  mc_p.l(entry9a.o)
    0x000000d0   0x00000000   Code   RO         3478    .ARM.Collect$$$$0000000D  mc_p.l(entry10a.o)
    0x000000d0   0x00000000   Code   RO         3480    .ARM.Collect$$$$0000000F  mc_p.l(entry11a.o)
    0x000000d0   0x00000004   Code   RO         3469    .ARM.Collect$$$$00002712  mc_p.l(entry2.o)
    0x000000d4   0x0000003c   Code   RO          285    .text               startup_hc32l13x.o
    0x00000110   0x000000d8   Code   RO         2607    .text               context_rvds.o
    0x000001e8   0x0000002c   Code   RO         3448    .text               mc_p.l(uidiv.o)
    0x00000214   0x00000028   Code   RO         3450    .text               mc_p.l(idiv.o)
    0x0000023c   0x00000024   Code   RO         3452    .text               mc_p.l(memcpya.o)
    0x00000260   0x00000024   Code   RO         3454    .text               mc_p.l(memseta.o)
    0x00000284   0x00000164   Code   RO         3458    .text               mf_p.l(dadd.o)
    0x000003e8   0x000000f0   Code   RO         3460    .text               mf_p.l(ddiv.o)
    0x000004d8   0x00000028   Code   RO         3462    .text               mf_p.l(dflti.o)
    0x00000500   0x0000001c   Code   RO         3464    .text               mf_p.l(dfltui.o)
    0x0000051c   0x0000003c   Code   RO         3466    .text               mf_p.l(dfixui.o)
    0x00000558   0x00000020   Code   RO         3482    .text               mc_p.l(llshl.o)
    0x00000578   0x00000022   Code   RO         3484    .text               mc_p.l(llushr.o)
    0x0000059a   0x00000026   Code   RO         3486    .text               mc_p.l(llsshr.o)
    0x000005c0   0x00000000   Code   RO         3488    .text               mc_p.l(iusefp.o)
    0x000005c0   0x000000be   Code   RO         3489    .text               mf_p.l(depilogue.o)
    0x0000067e   0x00000002   PAD
    0x00000680   0x00000024   Code   RO         3493    .text               mc_p.l(init.o)
    0x000006a4   0x0000000a   Code   RO         2680    i.$Sub$$main        components.o
    0x000006ae   0x00000008   Code   RO            3    i.ADC_IRQHandler    interrupts_hc32l13x.o
    0x000006b6   0x00000002   PAD
    0x000006b8   0x00000014   Code   RO          298    i.Adc_Enable        adc.o
    0x000006cc   0x00000068   Code   RO          305    i.Adc_Init          adc.o
    0x00000734   0x00000074   Code   RO          316    i.Adc_SqrModeCfg    adc.o
    0x000007a8   0x00000260   Code   RO         1955    i.AppAdcSQRCfg      myadc.o
    0x00000a08   0x00000240   Code   RO         1956    i.AppAdc_temp       myadc.o
    0x00000c48   0x00000578   Code   RO         1957    i.AppAdc_valve      myadc.o
    0x000011c0   0x0000001c   Code   RO         1529    i.Bgr_BgrEnable     bgr.o
    0x000011dc   0x0000001c   Code   RO          501    i.Bt_ClearIntFlag   bt.o
    0x000011f8   0x00000008   Code   RO            4    i.CLKTRIM_IRQHandler  interrupts_hc32l13x.o
    0x00001200   0x00000078   Code   RO         2475    .ARM.__at_0x1200    hdee.o
    0x00001278   0x00000058   Code   RO         1958    i.AppMAdcInit       myadc.o
    0x000012d0   0x0000001c   Code   RO          502    i.Bt_GetIntFlag     bt.o
    0x000012ec   0x00000008   Code   RO            5    i.DMAC_IRQHandler   interrupts_hc32l13x.o
    0x000012f4   0x0000000c   Code   RO            7    i.FLASH_RAM_IRQHandler  interrupts_hc32l13x.o
    0x00001300   0x00000046   Code   RO         2476    .ARM.__at_0x1300    hdee.o
    0x00001346   0x00000002   PAD
    0x00001348   0x00000020   Code   RO          505    i.Bt_M0_Cnt16Set    bt.o
    0x00001368   0x0000001c   Code   RO          509    i.Bt_M0_Run         bt.o
    0x00001384   0x0000001c   Code   RO          510    i.Bt_M0_Stop        bt.o
    0x000013a0   0x0000001c   Code   RO          543    i.Bt_Mode0_EnableIrq  bt.o
    0x000013bc   0x0000002c   Code   RO         2330    i.Crc_cal           mycrc.o
    0x000013e8   0x00000018   Code   RO         2485    i.EeRecord_Write    hdee.o
    0x00001400   0x00000010   Code   RO         2477    .ARM.__at_0x1400    hdee.o
    0x00001410   0x00000098   Code   RO          544    i.Bt_Mode0_Init     bt.o
    0x000014a8   0x00000058   Code   RO         2329    i.CalcCrc           mycrc.o
    0x00001500   0x00000080   Code   RO         1959    i.Conver_to_Temp    myadc.o
    0x00001580   0x0000004c   Code   RO         2331    i.Crc_check         mycrc.o
    0x000015cc   0x0000001a   Code   RO         1888    i.Deal_Parameter    datadeal.o
    0x000015e6   0x00000002   PAD
    0x000015e8   0x00000050   Code   RO         2478    i.EeRecord_AddCRC   hdee.o
    0x00001638   0x00000034   Code   RO         2479    i.EeRecord_Append   hdee.o
    0x0000166c   0x00000048   Code   RO         2480    i.EeRecord_CheckCRC  hdee.o
    0x000016b4   0x0000001e   Code   RO         2481    i.EeRecord_CheckFF  hdee.o
    0x000016d2   0x00000002   PAD
    0x000016d4   0x0000007c   Code   RO         2482    i.EeRecord_FindLastRecord  hdee.o
    0x00001750   0x00000058   Code   RO         2483    i.EeRecord_FindNewSpace  hdee.o
    0x000017a8   0x00000024   Code   RO         2484    i.EeRecord_PageFlag_Modify  hdee.o
    0x000017cc   0x00000054   Code   RO            6    i.EnableNvic        interrupts_hc32l13x.o
    0x00001820   0x00000014   Code   RO         2486    i.Flash_ErasePage   hdee.o
    0x00001834   0x00000068   Code   RO         2487    i.Flash_Operation_DeIni  hdee.o
    0x0000189c   0x00000138   Code   RO         2488    i.Flash_Operation_Ini  hdee.o
    0x000019d4   0x00000014   Code   RO         2489    i.Flash_ReadBytes   hdee.o
    0x000019e8   0x00000052   Code   RO         2490    i.Flash_WriteBytes  hdee.o
    0x00001a3a   0x0000000c   Code   RO          832    i.Get16Bit          ddl.o
    0x00001a46   0x0000000c   Code   RO          834    i.GetBit            ddl.o
    0x00001a52   0x00000002   PAD
    0x00001a54   0x0000001c   Code   RO         1355    i.Gpio_ClearIrq     gpio.o
    0x00001a70   0x00000024   Code   RO         1359    i.Gpio_EnableIrq    gpio.o
    0x00001a94   0x00000090   Code   RO         1363    i.Gpio_Init         gpio.o
    0x00001b24   0x00000014   Code   RO         1365    i.Gpio_SetAfMode    gpio.o
    0x00001b38   0x00000034   Code   RO         2491    i.HDEE_BakZone_FindAddr  hdee.o
    0x00001b6c   0x00000048   Code   RO         2493    i.HDEE_Ini          hdee.o
    0x00001bb4   0x0000003e   Code   RO         2494    i.HDEE_Read         hdee.o
    0x00001bf2   0x00000008   Code   RO            8    i.I2C0_IRQHandler   interrupts_hc32l13x.o
    0x00001bfa   0x00000008   Code   RO            9    i.I2C1_IRQHandler   interrupts_hc32l13x.o
    0x00001c02   0x00000002   PAD
    0x00001c04   0x00000060   Code   RO         2154    i.Init_LpTimer      mytimer.o
    0x00001c64   0x000001c0   Code   RO         1889    i.Init_Parameter    datadeal.o
    0x00001e24   0x0000006c   Code   RO         2115    i.Key_Init          mykey.o
    0x00001e90   0x00000008   Code   RO           10    i.LCD_IRQHandler    interrupts_hc32l13x.o
    0x00001e98   0x0000001c   Code   RO         2026    i.LED3              myinit.o
    0x00001eb4   0x0000001c   Code   RO         2027    i.LED4              myinit.o
    0x00001ed0   0x00000020   Code   RO         2028    i.LED5              myinit.o
    0x00001ef0   0x0000001c   Code   RO         2029    i.LED6              myinit.o
    0x00001f0c   0x00000020   Code   RO         2030    i.LED7              myinit.o
    0x00001f2c   0x00000020   Code   RO         2031    i.LED8              myinit.o
    0x00001f4c   0x00000020   Code   RO         2032    i.LED9              myinit.o
    0x00001f6c   0x00000008   Code   RO           11    i.LPTIM_IRQHandler  interrupts_hc32l13x.o
    0x00001f74   0x00000008   Code   RO           12    i.LPUART0_IRQHandler  interrupts_hc32l13x.o
    0x00001f7c   0x00000008   Code   RO           13    i.LPUART1_IRQHandler  interrupts_hc32l13x.o
    0x00001f84   0x00000016   Code   RO         1570    i.LPUart_ClrStatus  lpuart.o
    0x00001f9a   0x00000014   Code   RO         1573    i.LPUart_EnableFunc  lpuart.o
    0x00001fae   0x00000014   Code   RO         1574    i.LPUart_EnableIrq  lpuart.o
    0x00001fc2   0x00000018   Code   RO         1577    i.LPUart_GetStatus  lpuart.o
    0x00001fda   0x00000002   PAD
    0x00001fdc   0x00000070   Code   RO         1578    i.LPUart_Init       lpuart.o
    0x0000204c   0x00000008   Code   RO         1579    i.LPUart_ReceiveData  lpuart.o
    0x00002054   0x00000008   Code   RO           14    i.LVD_IRQHandler    interrupts_hc32l13x.o
    0x0000205c   0x00000088   Code   RO         2155    i.LpTim_IRQHandler  mytimer.o
    0x000020e4   0x00000054   Code   RO         2206    i.LpUart1_IRQHandler  myuart.o
    0x00002138   0x00000012   Code   RO         1091    i.Lptim_ClrItStatus  lptim.o
    0x0000214a   0x00000014   Code   RO         1092    i.Lptim_Cmd         lptim.o
    0x0000215e   0x00000014   Code   RO         1093    i.Lptim_ConfIt      lptim.o
    0x00002172   0x00000010   Code   RO         1094    i.Lptim_GetItStatus  lptim.o
    0x00002182   0x000000aa   Code   RO         1095    i.Lptim_Init        lptim.o
    0x0000222c   0x00000014   Code   RO         1823    i.Lvd_ClearIrq      lvd.o
    0x00002240   0x00000008   Code   RO         2364    i.Lvd_IRQHandler    mylvd.o
    0x00002248   0x00000028   Code   RO         2033    i.MyTempInit        myinit.o
    0x00002270   0x00000078   Code   RO           15    i.NVIC_SetPriority  interrupts_hc32l13x.o
    0x000022e8   0x0000001c   Code   RO         2393    i.NVIC_SystemReset  main.o
    0x00002304   0x00000008   Code   RO           16    i.PCA_IRQHandler    interrupts_hc32l13x.o
    0x0000230c   0x00000008   Code   RO           17    i.PCNT_IRQHandler   interrupts_hc32l13x.o
    0x00002314   0x000000fc   Code   RO         2116    i.PORTA_IRQHandler  mykey.o
    0x00002410   0x000000d8   Code   RO         2156    i.Pcnt_IRQHandler   mytimer.o
    0x000024e8   0x00000008   Code   RO           18    i.RTC_IRQHandler    interrupts_hc32l13x.o
    0x000024f0   0x00000014   Code   RO         1695    i.Rtc_ClearPrdfItStatus  rtc.o
    0x00002504   0x00000014   Code   RO         1696    i.Rtc_Cmd           rtc.o
    0x00002518   0x0000003c   Code   RO         1697    i.Rtc_CompCfg       rtc.o
    0x00002554   0x00000010   Code   RO         1700    i.Rtc_GetPridItStatus  rtc.o
    0x00002564   0x000001a0   Code   RO         2296    i.Rtc_IRQHandler    myrtc.o
    0x00002704   0x00000058   Code   RO         1702    i.Rtc_Init          rtc.o
    0x0000275c   0x0000006c   Code   RO         1705    i.Rtc_SetCyc        rtc.o
    0x000027c8   0x00000094   Code   RO         1706    i.Rtc_SetTime       rtc.o
    0x0000285c   0x00000008   Code   RO           19    i.SPI0_IRQHandler   interrupts_hc32l13x.o
    0x00002864   0x00000008   Code   RO           20    i.SPI1_IRQHandler   interrupts_hc32l13x.o
    0x0000286c   0x0000001e   Code   RO          836    i.Set16Bit          ddl.o
    0x0000288a   0x0000001e   Code   RO          838    i.SetBit            ddl.o
    0x000028a8   0x00000050   Code   RO         2117    i.Simple_Delay      mykey.o
    0x000028f8   0x00000010   Code   RO         3421    i.SysTick_Handler   board.o
    0x00002908   0x0000011c   Code   RO         1140    i.Sysctrl_ClkSourceEnable  sysctrl.o
    0x00002a24   0x00000174   Code   RO         1141    i.Sysctrl_GetHClkFreq  sysctrl.o
    0x00002b98   0x00000020   Code   RO         1142    i.Sysctrl_GetPClkFreq  sysctrl.o
    0x00002bb8   0x00000018   Code   RO         1149    i.Sysctrl_SetPeripheralGate  sysctrl.o
    0x00002bd0   0x00000028   Code   RO         1150    i.Sysctrl_SetRCHTrim  sysctrl.o
    0x00002bf8   0x00000028   Code   RO         1152    i.Sysctrl_SetRCLTrim  sysctrl.o
    0x00002c20   0x0000002c   Code   RO         1157    i.Sysctrl_SysClkSwitch  sysctrl.o
    0x00002c4c   0x00000010   Code   RO          249    i.SystemCoreClockUpdate  system_hc32l13x.o
    0x00002c5c   0x00000028   Code   RO          250    i.SystemInit        system_hc32l13x.o
    0x00002c84   0x00000008   Code   RO           21    i.TIM0_IRQHandler   interrupts_hc32l13x.o
    0x00002c8c   0x00000008   Code   RO           22    i.TIM1_IRQHandler   interrupts_hc32l13x.o
    0x00002c94   0x00000008   Code   RO           23    i.TIM2_IRQHandler   interrupts_hc32l13x.o
    0x00002c9c   0x00000008   Code   RO           24    i.TIM3_IRQHandler   interrupts_hc32l13x.o
    0x00002ca4   0x00000008   Code   RO           25    i.TIM4_IRQHandler   interrupts_hc32l13x.o
    0x00002cac   0x00000008   Code   RO           26    i.TIM5_IRQHandler   interrupts_hc32l13x.o
    0x00002cb4   0x00000008   Code   RO           27    i.TIM6_IRQHandler   interrupts_hc32l13x.o
    0x00002cbc   0x00000050   Code   RO         2248    i.Tim0_IRQHandler   mybt.o
    0x00002d0c   0x00000008   Code   RO           28    i.UART0_IRQHandler  interrupts_hc32l13x.o
    0x00002d14   0x00000008   Code   RO           29    i.UART1_IRQHandler  interrupts_hc32l13x.o
    0x00002d1c   0x00000008   Code   RO           30    i.VC0_IRQHandler    interrupts_hc32l13x.o
    0x00002d24   0x00000008   Code   RO           31    i.VC1_IRQHandler    interrupts_hc32l13x.o
    0x00002d2c   0x00000008   Code   RO           32    i.WDT_IRQHandler    interrupts_hc32l13x.o
    0x00002d34   0x00000014   Code   RO         2034    i.WDT_int           myinit.o
    0x00002d48   0x00000010   Code   RO         1290    i.Wdt_Feed          wdt.o
    0x00002d58   0x0000002c   Code   RO         1292    i.Wdt_Init          wdt.o
    0x00002d84   0x00000010   Code   RO         1296    i.Wdt_Start         wdt.o
    0x00002d94   0x00000018   Code   RO         1297    i.Wdt_WriteWdtLoad  wdt.o
    0x00002dac   0x00000028   Code   RO         1890    i.Write_Parameter   datadeal.o
    0x00002dd4   0x00000034   Code   RO         3422    i._SysTick_Config   board.o
    0x00002e08   0x00000018   Code   RO         1160    i._SysctrlUnlock    sysctrl.o
    0x00002e20   0x0000002e   Code   RO         3491    i.__ARM_clz         mf_p.l(depilogue.o)
    0x00002e4e   0x0000001c   Code   RO          462    i.__ARM_common_switch8  adc.o
    0x00002e6a   0x00000002   PAD
    0x00002e6c   0x0000005c   Code   RO         2932    i.__rt_ffs          kservice.o
    0x00002ec8   0x0000000e   Code   RO         3497    i.__scatterload_copy  mc_p.l(handlers.o)
    0x00002ed6   0x00000002   Code   RO         3498    i.__scatterload_null  mc_p.l(handlers.o)
    0x00002ed8   0x0000000e   Code   RO         3499    i.__scatterload_zeroinit  mc_p.l(handlers.o)
    0x00002ee6   0x00000002   PAD
    0x00002ee8   0x00000014   Code   RO         2749    i._has_defunct_thread  idle.o
    0x00002efc   0x00000088   Code   RO         3217    i._rt_thread_init   thread.o
    0x00002f84   0x0000003c   Code   RO         3326    i._rt_timer_init    timer.o
    0x00002fc0   0x0000002e   Code   RO         3327    i._rt_timer_remove  timer.o
    0x00002fee   0x00000020   Code   RO         2249    i.app_Time0Start    mybt.o
    0x0000300e   0x00000050   Code   RO         2250    i.app_Timer0Cfg     mybt.o
    0x0000305e   0x00000002   PAD
    0x00003060   0x0000020c   Code   RO         2394    i.auto_adjdegrees   main.o
    0x0000326c   0x00000324   Code   RO         2251    i.data_process      mybt.o
    0x00003590   0x00000020   Code   RO          842    i.ddl_memclr        ddl.o
    0x000035b0   0x00000244   Code   RO         2395    i.degrees_calculate  main.o
    0x000037f4   0x00000058   Code   RO          843    i.delay100us        ddl.o
    0x0000384c   0x00000098   Code   RO         2396    i.key_deal          main.o
    0x000038e4   0x000000e4   Code   RO         2157    i.led_hand          mytimer.o
    0x000039c8   0x000000c0   Code   RO         2397    i.main              main.o
    0x00003a88   0x0000000e   Code   RO         2681    i.main_thread_entry  components.o
    0x00003a96   0x00000070   Code   RO         2297    i.myRtcInit         myrtc.o
    0x00003b06   0x00000002   PAD
    0x00003b08   0x0000022c   Code   RO         2035    i.mygpio_init       myinit.o
    0x00003d34   0x00000064   Code   RO         2207    i.myuart_init       myuart.o
    0x00003d98   0x00000084   Code   RO         2158    i.pcnt_time_init    mytimer.o
    0x00003e1c   0x00000194   Code   RO         2934    i.print_number      kservice.o
    0x00003fb0   0x00000040   Code   RO         2682    i.rt_application_init  components.o
    0x00003ff0   0x0000001c   Code   RO         2683    i.rt_components_board_init  components.o
    0x0000400c   0x0000001c   Code   RO         2684    i.rt_components_init  components.o
    0x00004028   0x00000020   Code   RO         3151    i.rt_enter_critical  scheduler.o
    0x00004048   0x00000048   Code   RO         3152    i.rt_exit_critical  scheduler.o
    0x00004090   0x00000024   Code   RO         3423    i.rt_hw_board_init  board.o
    0x000040b4   0x00000002   Code   RO         2936    i.rt_hw_console_output  kservice.o
    0x000040b6   0x00000002   PAD
    0x000040b8   0x000000f0   Code   RO         2612    i.rt_hw_hard_fault_exception  cpuport.o
    0x000041a8   0x00000040   Code   RO         2613    i.rt_hw_stack_init  cpuport.o
    0x000041e8   0x00000020   Code   RO         2905    i.rt_interrupt_enter  irq.o
    0x00004208   0x00000020   Code   RO         2907    i.rt_interrupt_leave  irq.o
    0x00004228   0x00000014   Code   RO         2789    i.rt_ipc_list_resume  ipc.o
    0x0000423c   0x00000062   Code   RO         2791    i.rt_ipc_list_suspend  ipc.o
    0x0000429e   0x00000010   Code   RO         2792    i.rt_ipc_object_init  ipc.o
    0x000042ae   0x00000002   PAD
    0x000042b0   0x00000034   Code   RO         2937    i.rt_kprintf        kservice.o
    0x000042e4   0x00000006   Code   RO         2793    i.rt_list_init      ipc.o
    0x000042ea   0x00000006   Code   RO         3153    i.rt_list_init      scheduler.o
    0x000042f0   0x00000006   Code   RO         3328    i.rt_list_init      timer.o
    0x000042f6   0x0000000e   Code   RO         3218    i.rt_list_insert_after  thread.o
    0x00004304   0x0000000e   Code   RO         3329    i.rt_list_insert_after  timer.o
    0x00004312   0x0000000e   Code   RO         2794    i.rt_list_insert_before  ipc.o
    0x00004320   0x00000010   Code   RO         2795    i.rt_list_isempty   ipc.o
    0x00004330   0x00000010   Code   RO         3330    i.rt_list_isempty   timer.o
    0x00004340   0x00000012   Code   RO         3219    i.rt_list_remove    thread.o
    0x00004352   0x0000004c   Code   RO         2942    i.rt_memset         kservice.o
    0x0000439e   0x0000002c   Code   RO         3097    i.rt_object_detach  object.o
    0x000043ca   0x00000002   PAD
    0x000043cc   0x00000024   Code   RO         3099    i.rt_object_get_information  object.o
    0x000043f0   0x0000005e   Code   RO         3101    i.rt_object_init    object.o
    0x0000444e   0x00000014   Code   RO         3102    i.rt_object_is_systemobject  object.o
    0x00004462   0x00000002   PAD
    0x00004464   0x00000084   Code   RO         3154    i.rt_schedule       scheduler.o
    0x000044e8   0x00000054   Code   RO         3155    i.rt_schedule_insert_thread  scheduler.o
    0x0000453c   0x00000058   Code   RO         3156    i.rt_schedule_remove_thread  scheduler.o
    0x00004594   0x00000022   Code   RO         2804    i.rt_sem_init       ipc.o
    0x000045b6   0x0000003c   Code   RO         2805    i.rt_sem_release    ipc.o
    0x000045f2   0x00000078   Code   RO         2806    i.rt_sem_take       ipc.o
    0x0000466a   0x00000002   PAD
    0x0000466c   0x000000b0   Code   RO         2944    i.rt_show_version   kservice.o
    0x0000471c   0x00000012   Code   RO         2949    i.rt_strlen         kservice.o
    0x0000472e   0x00000038   Code   RO         2951    i.rt_strncpy        kservice.o
    0x00004766   0x00000002   PAD
    0x00004768   0x0000004c   Code   RO         3157    i.rt_system_scheduler_init  scheduler.o
    0x000047b4   0x00000030   Code   RO         3158    i.rt_system_scheduler_start  scheduler.o
    0x000047e4   0x0000001c   Code   RO         3331    i.rt_system_timer_init  timer.o
    0x00004800   0x00000002   Code   RO         3332    i.rt_system_timer_thread_init  timer.o
    0x00004802   0x00000002   PAD
    0x00004804   0x00000058   Code   RO         3223    i.rt_thread_exit    thread.o
    0x0000485c   0x00000008   Code   RO         2750    i.rt_thread_idle_entry  idle.o
    0x00004864   0x00000084   Code   RO         2751    i.rt_thread_idle_excute  idle.o
    0x000048e8   0x00000008   Code   RO         2752    i.rt_thread_idle_gethandler  idle.o
    0x000048f0   0x0000003c   Code   RO         2753    i.rt_thread_idle_init  idle.o
    0x0000492c   0x0000002c   Code   RO         3225    i.rt_thread_init    thread.o
    0x00004958   0x00000014   Code   RO         3226    i.rt_thread_mdelay  thread.o
    0x0000496c   0x0000003c   Code   RO         3227    i.rt_thread_resume  thread.o
    0x000049a8   0x0000000c   Code   RO         3228    i.rt_thread_self    thread.o
    0x000049b4   0x00000044   Code   RO         3229    i.rt_thread_sleep   thread.o
    0x000049f8   0x00000030   Code   RO         3230    i.rt_thread_startup  thread.o
    0x00004a28   0x00000044   Code   RO         3231    i.rt_thread_suspend  thread.o
    0x00004a6c   0x00000020   Code   RO         3232    i.rt_thread_timeout  thread.o
    0x00004a8c   0x00000064   Code   RO         3233    i.rt_thread_yield   thread.o
    0x00004af0   0x0000003e   Code   RO         2640    i.rt_tick_from_millisecond  clock.o
    0x00004b2e   0x00000002   PAD
    0x00004b30   0x0000000c   Code   RO         2641    i.rt_tick_get       clock.o
    0x00004b3c   0x00000030   Code   RO         2642    i.rt_tick_increase  clock.o
    0x00004b6c   0x00000080   Code   RO         3333    i.rt_timer_check    timer.o
    0x00004bec   0x0000003c   Code   RO         3334    i.rt_timer_control  timer.o
    0x00004c28   0x00000020   Code   RO         3335    i.rt_timer_detach   timer.o
    0x00004c48   0x00000026   Code   RO         3336    i.rt_timer_init     timer.o
    0x00004c6e   0x00000002   PAD
    0x00004c70   0x00000108   Code   RO         3339    i.rt_timer_start    timer.o
    0x00004d78   0x00000030   Code   RO         3340    i.rt_timer_stop     timer.o
    0x00004da8   0x00000368   Code   RO         2954    i.rt_vsnprintf      kservice.o
    0x00005110   0x00000004   Code   RO         2685    i.rti_board_end     components.o
    0x00005114   0x00000004   Code   RO         2686    i.rti_board_start   components.o
    0x00005118   0x00000004   Code   RO         2687    i.rti_end           components.o
    0x0000511c   0x00000004   Code   RO         2688    i.rti_start         components.o
    0x00005120   0x0000002a   Code   RO         2689    i.rtthread_startup  components.o
    0x0000514a   0x00000012   Code   RO         1960    i.self_abs          myadc.o
    0x0000515c   0x00000024   Code   RO         2956    i.skip_atoi         kservice.o
    0x00005180   0x00000164   Code   RO         2398    i.temp_adj          main.o
    0x000052e4   0x00000060   Code   RO         2399    i.thread1_entry     main.o
    0x00005344   0x00000264   Code   RO         2400    i.thread2_entry     main.o
    0x000055a8   0x0000004c   Code   RO         2208    i.uart1_send        myuart.o
    0x000055f4   0x00000042   Code   RO         2037    i.uart_gpio_init    myinit.o
    0x00005636   0x00000002   PAD
    0x00005638   0x0000009c   Code   RO         2401    i.valve_adjust_state  main.o
    0x000056d4   0x00000108   Code   RO         2402    i.valve_frist_init  main.o
    0x000057dc   0x00000018   Data   RO         1161    .constdata          sysctrl.o
    0x000057f4   0x0000000c   Data   RO         1586    .constdata          lpuart.o
    0x00005800   0x00000194   Data   RO         1962    .constdata          myadc.o
    0x00005994   0x00000122   Data   RO         2958    .constdata          kservice.o
    0x00005ab6   0x00000002   PAD
    0x00005ab8   0x00000004   Data   RO         2691    .rti_fn.0           components.o
    0x00005abc   0x00000004   Data   RO         2692    .rti_fn.0.end       components.o
    0x00005ac0   0x00000004   Data   RO         2693    .rti_fn.1.end       components.o
    0x00005ac4   0x00000004   Data   RO         2694    .rti_fn.6.end       components.o
    0x00005ac8   0x00000020   Data   RO         3495    Region$$Table       anon$$obj.o


    Execution Region RW_IRAM1 (Base: 0x20000000, Size: 0x00001220, Max: 0x00002000, ABSOLUTE)

    Base Addr    Size         Type   Attr      Idx    E Section Name        Object

    0x20000000   0x00000004   Data   RW          251    .data               system_hc32l13x.o
    0x20000004   0x00000003   Data   RW         1963    .data               myadc.o
    0x20000007   0x00000003   Data   RW         2118    .data               mykey.o
    0x2000000a   0x00000002   PAD
    0x2000000c   0x00000018   Data   RW         2160    .data               mytimer.o
    0x20000024   0x00000001   Data   RW         2211    .data               myuart.o
    0x20000025   0x00000001   Data   RW         2252    .data               mybt.o
    0x20000026   0x00000002   Data   RW         2298    .data               myrtc.o
    0x20000028   0x00000002   Data   RW         2332    .data               mycrc.o
    0x2000002a   0x0000000b   Data   RW         2404    .data               main.o
    0x20000035   0x00000003   PAD
    0x20000038   0x0000000c   Data   RW         2614    .data               cpuport.o
    0x20000044   0x00000004   Data   RW         2644    .data               clock.o
    0x20000048   0x00000001   Data   RW         2908    .data               irq.o
    0x20000049   0x00000003   PAD
    0x2000004c   0x00000040   Data   RW         3104    .data               object.o
    0x2000008c   0x00000018   Data   RW         3160    .data               scheduler.o
    0x200000a4   0x0000000c   Data   RW         3341    .data               timer.o
    0x200000b0   0x00000068   Zero   RW         1961    .bss                myadc.o
    0x20000118   0x00000014   Zero   RW         2159    .bss                mytimer.o
    0x2000012c   0x00000064   Zero   RW         2210    .bss                myuart.o
    0x20000190   0x00000579   Zero   RW         2403    .bss                main.o
    0x20000709   0x00000007   PAD
    0x20000710   0x00000178   Zero   RW         2690    .bss                components.o
    0x20000888   0x000000f8   Zero   RW         2754    .bss                idle.o
    0x20000980   0x00000080   Zero   RW         2957    .bss                kservice.o
    0x20000a00   0x00000020   Zero   RW         3159    .bss                scheduler.o
    0x20000a20   0x00000800   Zero   RW          282    STACK               startup_hc32l13x.o


==============================================================================

Image component sizes


      Code (inc. data)   RO Data    RW Data    ZI Data      Debug   Object Name

       268         12          0          0          0      11529   adc.o
        28          6          0          0          0        456   bgr.o
       104         18          0          0          0       1413   board.o
       324         34          0          0          0      10449   bt.o
       122         10          0          4          0       1652   clock.o
       202         38         16          0        376       5616   components.o
       216         32          0          0          0        848   context_rvds.o
       304        166          0         12          0       2970   cpuport.o
       514         24          0          0          0     115344   datadeal.o
       204         14          0          0          0       3730   ddl.o
       228         30          0          0          0       5866   gpio.o
      1436        112          0          0          0      12140   hdee.o
       228         36          0          0        248       5850   idle.o
       432         18          0          0          0     145238   interrupts_hc32l13x.o
       384          0          0          0          0       7849   ipc.o
        64         12          0          1          0       1498   irq.o
      1784        168        290          0        128       9003   kservice.o
       244          0          0          0          0       3868   lptim.o
       206          6         12          0          0       5440   lpuart.o
        20          6          0          0          0        427   lvd.o
      2960        310          0         11       1401      13496   main.o
      2818        104        404          3        104       5629   myadc.o
       996         44          0          1          0       4061   mybt.o
       208         20          0          2          0       2542   mycrc.o
       894         50          0          0          0       5211   myinit.o
       440         34          0          3          0       2429   mykey.o
         8          0          0          0          0        449   mylvd.o
       528         50          0          2          0       7413   myrtc.o
       808         80          0         24         20       4654   mytimer.o
       260         28          0          1        100       2175   myuart.o
       194          4          0         64          0       6100   object.o
       460         34          0          0          0       5408   rtc.o
       538         94          0         24         32       8206   scheduler.o
        60         22        192          0       2048        624   startup_hc32l13x.o
       860         82         24          0          0       5883   sysctrl.o
        56          4          0          4          0       1231   system_hc32l13x.o
       708         40          0          0          0      10389   thread.o
       742         26          0         12          0      10648   timer.o
       100         16          0          0          0       2473   wdt.o

    ----------------------------------------------------------------------
     20990       1784        972        176       4464     450207   Object Totals
         0          0         32          0          0          0   (incl. Generated)
        40          0          2          8          7          0   (incl. Padding)

    ----------------------------------------------------------------------

      Code (inc. data)   RO Data    RW Data    ZI Data      Debug   Library Member Name

         0          0          0          0          0          0   entry.o
         0          0          0          0          0          0   entry10a.o
         0          0          0          0          0          0   entry11a.o
         8          4          0          0          0          0   entry2.o
         4          0          0          0          0          0   entry5.o
         0          0          0          0          0          0   entry7b.o
         0          0          0          0          0          0   entry8b.o
         8          4          0          0          0          0   entry9a.o
        30          0          0          0          0          0   handlers.o
        40          0          0          0          0         72   idiv.o
        36          8          0          0          0         68   init.o
         0          0          0          0          0          0   iusefp.o
        32          0          0          0          0         68   llshl.o
        38          0          0          0          0         68   llsshr.o
        34          0          0          0          0         68   llushr.o
        36          0          0          0          0         60   memcpya.o
        36          0          0          0          0        100   memseta.o
        44          0          0          0          0         72   uidiv.o
       356          4          0          0          0        140   dadd.o
       240          6          0          0          0         84   ddiv.o
       236          0          0          0          0        216   depilogue.o
        60         10          0          0          0         68   dfixui.o
        40          6          0          0          0         68   dflti.o
        28          4          0          0          0         68   dfltui.o

    ----------------------------------------------------------------------
      1310         46          0          0          0       1220   Library Totals
         4          0          0          0          0          0   (incl. Padding)

    ----------------------------------------------------------------------

      Code (inc. data)   RO Data    RW Data    ZI Data      Debug   Library Name

       346         16          0          0          0        576   mc_p.l
       960         30          0          0          0        644   mf_p.l

    ----------------------------------------------------------------------
      1310         46          0          0          0       1220   Library Totals

    ----------------------------------------------------------------------

==============================================================================


      Code (inc. data)   RO Data    RW Data    ZI Data      Debug   

     22300       1830        972        176       4464     440747   Grand Totals
     22300       1830        972        176       4464     440747   ELF Image Totals
     22300       1830        972        176          0          0   ROM Totals

==============================================================================

    Total RO  Size (Code + RO Data)                23272 (  22.73kB)
    Total RW  Size (RW Data + ZI Data)              4640 (   4.53kB)
    Total ROM Size (Code + RO Data + RW Data)      23448 (  22.90kB)

==============================================================================

