Component: ARM Compiler 5.06 update 6 (build 750) Tool: armlink [4d35ed]

==============================================================================

Section Cross References

    interrupts_hc32l13x.o(i.ADC_IRQHandler) refers (Weak) to myadc.o(i.Adc_IRQHandler) for Adc_IRQHandler
    interrupts_hc32l13x.o(i.LPTIM_IRQHandler) refers (Weak) to mytimer.o(i.LpTim_IRQHandler) for LpTim_IRQHandler
    interrupts_hc32l13x.o(i.LPUART1_IRQHandler) refers (Weak) to myuart.o(i.LpUart1_IRQHandler) for LpUart1_IRQHandler
    interrupts_hc32l13x.o(i.LVD_IRQHandler) refers (Weak) to mylvd.o(i.Lvd_IRQHandler) for Lvd_IRQHandler
    interrupts_hc32l13x.o(i.PCNT_IRQHandler) refers (Weak) to mypcnt.o(i.Pcnt_IRQHandler) for Pcnt_IRQHandler
    interrupts_hc32l13x.o(i.RTC_IRQHandler) refers (Weak) to myrtc.o(i.Rtc_IRQHandler) for Rtc_IRQHandler
    interrupts_hc32l13x.o(i.TIM0_IRQHandler) refers (Weak) to mybt.o(i.Tim0_IRQHandler) for Tim0_IRQHandler
    system_hc32l13x.o(i.SystemCoreClockUpdate) refers to sysctrl.o(i.Sysctrl_GetHClkFreq) for Sysctrl_GetHClkFreq
    system_hc32l13x.o(i.SystemCoreClockUpdate) refers to system_hc32l13x.o(.data) for .data
    system_hc32l13x.o(i.SystemInit) refers to sysctrl.o(i.Sysctrl_SetRCLTrim) for Sysctrl_SetRCLTrim
    system_hc32l13x.o(i.SystemInit) refers to sysctrl.o(i.Sysctrl_ClkSourceEnable) for Sysctrl_ClkSourceEnable
    system_hc32l13x.o(i.SystemInit) refers to sysctrl.o(i.Sysctrl_SysClkSwitch) for Sysctrl_SysClkSwitch
    system_hc32l13x.o(i.SystemInit) refers to sysctrl.o(i.Sysctrl_SetRCHTrim) for Sysctrl_SetRCHTrim
    system_hc32l13x.o(i.SystemInit) refers to system_hc32l13x.o(i.SystemCoreClockUpdate) for SystemCoreClockUpdate
    startup_hc32l13x.o(RESET) refers to startup_hc32l13x.o(STACK) for __initial_sp
    startup_hc32l13x.o(RESET) refers to startup_hc32l13x.o(.text) for Reset_Handler
    startup_hc32l13x.o(RESET) refers to context_rvds.o(.text) for HardFault_Handler
    startup_hc32l13x.o(RESET) refers to board.o(i.SysTick_Handler) for SysTick_Handler
==============================================================================

Removing Unused input sections from the image.

    Removing interrupts_hc32l13x.o(.rev16_text), (4 bytes).
    Removing interrupts_hc32l13x.o(.revsh_text), (4 bytes).
    Removing system_hc32l13x.o(.rev16_text), (4 bytes).
    Removing system_hc32l13x.o(.revsh_text), (4 bytes).
    Removing startup_hc32l13x.o(HEAP), (256 bytes).
    Removing adc.o(.rev16_text), (4 bytes).
    Removing adc.o(.revsh_text), (4 bytes).
    Removing adc.o(i.Adc_CfgJqrChannel), (80 bytes).
    Removing adc.o(i.Adc_CfgSglChannel), (28 bytes).
    Removing adc.o(i.Adc_CfgSqrChannel), (248 bytes).
    Removing adc.o(i.Adc_ClrAccResult), (16 bytes).
    Removing adc.o(i.Adc_Disable), (16 bytes).
    Removing adc.o(i.Adc_DisableIrq), (16 bytes).
    Removing adc.o(i.Adc_GetAccResult), (12 bytes).
    Removing adc.o(i.Adc_GetJqrResult), (12 bytes).
    Removing adc.o(i.Adc_GetSglResult), (12 bytes).
    Removing adc.o(i.Adc_JQR_Start), (12 bytes).
    Removing adc.o(i.Adc_JQR_Stop), (12 bytes).
==============================================================================

Image Symbol Table

    Local Symbols

    Symbol Name                              Value     Ov Type        Size  Object(Section)

    RESET                                    0x00000000   Section      192  startup_hc32l13x.o(RESET)
    ../clib/microlib/division.c              0x00000000   Number         0  uidiv.o ABSOLUTE
    ../clib/microlib/division.c              0x00000000   Number         0  idiv.o ABSOLUTE
    ../clib/microlib/init/entry.s            0x00000000   Number         0  entry11b.o ABSOLUTE
    ../clib/microlib/init/entry.s            0x00000000   Number         0  entry2.o ABSOLUTE
    ../clib/microlib/init/entry.s            0x00000000   Number         0  entry5.o ABSOLUTE
    ../clib/microlib/init/entry.s            0x00000000   Number         0  entry7a.o ABSOLUTE
    ../clib/microlib/init/entry.s            0x00000000   Number         0  entry11a.o ABSOLUTE
    ../clib/microlib/init/entry.s            0x00000000   Number         0  entry8a.o ABSOLUTE
    ../clib/microlib/init/entry.s            0x00000000   Number         0  entry10b.o ABSOLUTE
    ../clib/microlib/init/entry.s            0x00000000   Number         0  entry10a.o ABSOLUTE
    ../clib/microlib/init/entry.s            0x00000000   Number         0  entry9b.o ABSOLUTE
    ../clib/microlib/init/entry.s            0x00000000   Number         0  entry7b.o ABSOLUTE
    ../clib/microlib/init/entry.s            0x00000000   Number         0  entry.o ABSOLUTE
    ../clib/microlib/init/entry.s            0x00000000   Number         0  entry8b.o ABSOLUTE
    ../clib/microlib/init/entry.s            0x00000000   Number         0  entry9a.o ABSOLUTE
    ../clib/microlib/string/memcpy.c         0x00000000   Number         0  memcpyb.o ABSOLUTE
    ../clib/microlib/string/memcpy.c         0x00000000   Number         0  memcpya.o ABSOLUTE
    ../clib/microlib/string/memset.c         0x00000000   Number         0  memseta.o ABSOLUTE
    ../clib/microlib/stubs.s                 0x00000000   Number         0  useno.o ABSOLUTE
    ..\RT-Thread\3.1.3\bsp\board.c           0x00000000   Number         0  board.o ABSOLUTE
    ..\RT-Thread\3.1.3\libcpu\arm\cortex-m0\context_rvds.S 0x00000000   Number         0  context_rvds.o ABSOLUTE
    ..\RT-Thread\3.1.3\libcpu\arm\cortex-m0\cpuport.c 0x00000000   Number         0  cpuport.o ABSOLUTE
    ..\RT-Thread\3.1.3\src\clock.c           0x00000000   Number         0  clock.o ABSOLUTE
    ..\RT-Thread\3.1.3\src\components.c      0x00000000   Number         0  components.o ABSOLUTE
    ..\RT-Thread\3.1.3\src\idle.c            0x00000000   Number         0  idle.o ABSOLUTE
    ..\RT-Thread\3.1.3\src\ipc.c             0x00000000   Number         0  ipc.o ABSOLUTE
    ..\RT-Thread\3.1.3\src\irq.c             0x00000000   Number         0  irq.o ABSOLUTE
    ..\RT-Thread\3.1.3\src\kservice.c        0x00000000   Number         0  kservice.o ABSOLUTE
    ..\RT-Thread\3.1.3\src\mem.c             0x00000000   Number         0  mem.o ABSOLUTE
    ..\RT-Thread\3.1.3\src\object.c          0x00000000   Number         0  object.o ABSOLUTE
    ..\RT-Thread\3.1.3\src\scheduler.c       0x00000000   Number         0  scheduler.o ABSOLUTE
    ..\RT-Thread\3.1.3\src\thread.c          0x00000000   Number         0  thread.o ABSOLUTE
    ..\RT-Thread\3.1.3\src\timer.c           0x00000000   Number         0  timer.o ABSOLUTE
    ..\\RT-Thread\\3.1.3\\bsp\\board.c       0x00000000   Number         0  board.o ABSOLUTE
    ..\\RT-Thread\\3.1.3\\src\\kservice.c    0x00000000   Number         0  kservice.o ABSOLUTE
    ..\\common\\interrupts_hc32l13x.c        0x00000000   Number         0  interrupts_hc32l13x.o ABSOLUTE
    ..\\common\\system_hc32l13x.c            0x00000000   Number         0  system_hc32l13x.o ABSOLUTE
    ..\\driver\\src\\adc.c                   0x00000000   Number         0  adc.o ABSOLUTE
    ..\\driver\\src\\bgr.c                   0x00000000   Number         0  bgr.o ABSOLUTE
    ..\\driver\\src\\bt.c                    0x00000000   Number         0  bt.o ABSOLUTE
    ..\\driver\\src\\ddl.c                   0x00000000   Number         0  ddl.o ABSOLUTE
    ..\\driver\\src\\flash.c                 0x00000000   Number         0  flash.o ABSOLUTE
    ..\\driver\\src\\gpio.c                  0x00000000   Number         0  gpio.o ABSOLUTE
    ..\\driver\\src\\i2c.c                   0x00000000   Number         0  i2c.o ABSOLUTE
    ..\\driver\\src\\lpm.c                   0x00000000   Number         0  lpm.o ABSOLUTE
    ..\\driver\\src\\lptim.c                 0x00000000   Number         0  lptim.o ABSOLUTE
    ..\\driver\\src\\lpuart.c                0x00000000   Number         0  lpuart.o ABSOLUTE
    ..\\driver\\src\\lvd.c                   0x00000000   Number         0  lvd.o ABSOLUTE
    ..\\driver\\src\\pcnt.c                  0x00000000   Number         0  pcnt.o ABSOLUTE
    ..\\driver\\src\\ram.c                   0x00000000   Number         0  ram.o ABSOLUTE
    ..\\driver\\src\\rtc.c                   0x00000000   Number         0  rtc.o ABSOLUTE
    ..\\driver\\src\\sysctrl.c               0x00000000   Number         0  sysctrl.o ABSOLUTE
    ..\\driver\\src\\vc.c                    0x00000000   Number         0  vc.o ABSOLUTE
    ..\\driver\\src\\wdt.c                   0x00000000   Number         0  wdt.o ABSOLUTE
    ..\\hardware\\MyAdc.c                    0x00000000   Number         0  myadc.o ABSOLUTE
    ..\\hardware\\MyFlash.c                  0x00000000   Number         0  myflash.o ABSOLUTE
    ..\\hardware\\MyKey.c                    0x00000000   Number         0  mykey.o ABSOLUTE
    ..\\hardware\\MyLVD.c                    0x00000000   Number         0  mylvd.o ABSOLUTE
    ..\\hardware\\MyPcnt.c                   0x00000000   Number         0  mypcnt.o ABSOLUTE
    ..\\hardware\\MyTimer.c                  0x00000000   Number         0  mytimer.o ABSOLUTE
    ..\\hardware\\Mygpio.c                   0x00000000   Number         0  mygpio.o ABSOLUTE
    ..\\hardware\\Myinit.c                   0x00000000   Number         0  myinit.o ABSOLUTE
    ..\\hardware\\Mywdt.c                    0x00000000   Number         0  mywdt.o ABSOLUTE
    ..\\hardware\\myUart.c                   0x00000000   Number         0  myuart.o ABSOLUTE
    ..\\hardware\\mybt.c                     0x00000000   Number         0  mybt.o ABSOLUTE
    ..\\hardware\\mycrc.c                    0x00000000   Number         0  mycrc.o ABSOLUTE
    ..\\hardware\\myrtc.c                    0x00000000   Number         0  myrtc.o ABSOLUTE
    ..\\source\\App_LED_Blink.c              0x00000000   Number         0  app_led_blink.o ABSOLUTE
    ..\\source\\main.c                       0x00000000   Number         0  main.o ABSOLUTE
    ..\common\interrupts_hc32l13x.c          0x00000000   Number         0  interrupts_hc32l13x.o ABSOLUTE
    ..\common\startup_hc32l13x.s             0x00000000   Number         0  startup_hc32l13x.o ABSOLUTE
    ..\common\system_hc32l13x.c              0x00000000   Number         0  system_hc32l13x.o ABSOLUTE
    ..\driver\src\adc.c                      0x00000000   Number         0  adc.o ABSOLUTE
    ..\driver\src\bgr.c                      0x00000000   Number         0  bgr.o ABSOLUTE
    ..\driver\src\bt.c                       0x00000000   Number         0  bt.o ABSOLUTE
    ..\driver\src\ddl.c                      0x00000000   Number         0  ddl.o ABSOLUTE
    ..\driver\src\flash.c                    0x00000000   Number         0  flash.o ABSOLUTE
    ..\driver\src\gpio.c                     0x00000000   Number         0  gpio.o ABSOLUTE
    ..\driver\src\i2c.c                      0x00000000   Number         0  i2c.o ABSOLUTE
    ..\driver\src\lpm.c                      0x00000000   Number         0  lpm.o ABSOLUTE
    ..\driver\src\lptim.c                    0x00000000   Number         0  lptim.o ABSOLUTE
    ..\driver\src\lpuart.c                   0x00000000   Number         0  lpuart.o ABSOLUTE
    ..\driver\src\lvd.c                      0x00000000   Number         0  lvd.o ABSOLUTE
    ..\driver\src\pcnt.c                     0x00000000   Number         0  pcnt.o ABSOLUTE
    ..\driver\src\ram.c                      0x00000000   Number         0  ram.o ABSOLUTE
    ..\driver\src\rtc.c                      0x00000000   Number         0  rtc.o ABSOLUTE
    ..\driver\src\sysctrl.c                  0x00000000   Number         0  sysctrl.o ABSOLUTE
    ..\driver\src\vc.c                       0x00000000   Number         0  vc.o ABSOLUTE
    ..\driver\src\wdt.c                      0x00000000   Number         0  wdt.o ABSOLUTE
    ..\hardware\MyAdc.c                      0x00000000   Number         0  myadc.o ABSOLUTE
    ..\hardware\MyFlash.c                    0x00000000   Number         0  myflash.o ABSOLUTE
    ..\hardware\MyKey.c                      0x00000000   Number         0  mykey.o ABSOLUTE
    ..\hardware\MyLVD.c                      0x00000000   Number         0  mylvd.o ABSOLUTE
    ..\hardware\MyPcnt.c                     0x00000000   Number         0  mypcnt.o ABSOLUTE
    ..\hardware\MyTimer.c                    0x00000000   Number         0  mytimer.o ABSOLUTE
    ..\hardware\Mygpio.c                     0x00000000   Number         0  mygpio.o ABSOLUTE
    ..\hardware\Myinit.c                     0x00000000   Number         0  myinit.o ABSOLUTE
    ..\hardware\Mywdt.c                      0x00000000   Number         0  mywdt.o ABSOLUTE
    ..\hardware\myUart.c                     0x00000000   Number         0  myuart.o ABSOLUTE
    ..\hardware\mybt.c                       0x00000000   Number         0  mybt.o ABSOLUTE
    ..\hardware\mycrc.c                      0x00000000   Number         0  mycrc.o ABSOLUTE
    ..\hardware\myrtc.c                      0x00000000   Number         0  myrtc.o ABSOLUTE
    ..\source\App_Breath.c                   0x00000000   Number         0  app_breath.o ABSOLUTE
    ..\source\App_LED_Blink.c                0x00000000   Number         0  app_led_blink.o ABSOLUTE
    ..\source\main.c                         0x00000000   Number         0  main.o ABSOLUTE
    dc.s                                     0x00000000   Number         0  dc.o ABSOLUTE
    handlers.s                               0x00000000   Number         0  handlers.o ABSOLUTE
    init.s                                   0x00000000   Number         0  init.o ABSOLUTE
    .ARM.Collect$$$$00000000                 0x000000c0   Section        0  entry.o(.ARM.Collect$$$$00000000)
    .ARM.Collect$$$$00000001                 0x000000c0   Section        4  entry2.o(.ARM.Collect$$$$00000001)
    .ARM.Collect$$$$00000004                 0x000000c4   Section        4  entry5.o(.ARM.Collect$$$$00000004)
    .ARM.Collect$$$$00000008                 0x000000c8   Section        0  entry7b.o(.ARM.Collect$$$$00000008)
    .ARM.Collect$$$$0000000A                 0x000000c8   Section        0  entry8b.o(.ARM.Collect$$$$0000000A)
    .ARM.Collect$$$$0000000B                 0x000000c8   Section        8  entry9a.o(.ARM.Collect$$$$0000000B)
    .ARM.Collect$$$$0000000D                 0x000000d0   Section        0  entry10a.o(.ARM.Collect$$$$0000000D)
    .ARM.Collect$$$$0000000F                 0x000000d0   Section        0  entry11a.o(.ARM.Collect$$$$0000000F)
    .ARM.Collect$$$$00002712                 0x000000d0   Section        4  entry2.o(.ARM.Collect$$$$00002712)
    __lit__00000000                          0x000000d0   Data           4  entry2.o(.ARM.Collect$$$$00002712)
    .text                                    0x000000d4   Section       60  startup_hc32l13x.o(.text)
    .text                                    0x00000110   Section      216  context_rvds.o(.text)
    .text                                    0x000001e8   Section        0  uidiv.o(.text)
    .text                                    0x00000214   Section        0  idiv.o(.text)
    .text                                    0x0000023c   Section        0  memcpya.o(.text)
    .text                                    0x00000260   Section        0  memseta.o(.text)
    .text                                    0x00000284   Section       36  init.o(.text)
    i.$Sub$$main                             0x000002a8   Section        0  components.o(i.$Sub$$main)
    i.ADC_IRQHandler                         0x000002b2   Section        0  interrupts_hc32l13x.o(i.ADC_IRQHandler)
    i.Adc_ClrIrqStatus                       0x000002bc   Section        0  adc.o(i.Adc_ClrIrqStatus)
    i.Adc_Enable                             0x000002cc   Section        0  adc.o(i.Adc_Enable)
    i.Adc_EnableIrq                          0x000002dc   Section        0  adc.o(i.Adc_EnableIrq)
    i.Adc_GetIrqStatus                       0x000002ec   Section        0  adc.o(i.Adc_GetIrqStatus)
    i.Adc_GetSqrResult                       0x00000300   Section        0  adc.o(i.Adc_GetSqrResult)
    i.Adc_IRQHandler                         0x0000030c   Section        0  myadc.o(i.Adc_IRQHandler)
    i.Adc_Init                               0x00000340   Section        0  adc.o(i.Adc_Init)
    i.Adc_SQR_Start                          0x00000398   Section        0  adc.o(i.Adc_SQR_Start)
    i.Adc_SqrModeCfg                         0x000003a4   Section        0  adc.o(i.Adc_SqrModeCfg)
    i.App_Breath                             0x00000404   Section        0  app_breath.o(i.App_Breath)
    i.App_LED_Blink                          0x00000494   Section        0  app_led_blink.o(i.App_LED_Blink)
    i.Bgr_BgrEnable                          0x000004bc   Section        0  bgr.o(i.Bgr_BgrEnable)
    i.Bgr_TempSensorEnable                   0x000004d4   Section        0  bgr.o(i.Bgr_TempSensorEnable)
    i.Bt_ClearIntFlag                        0x000004ec   Section        0  bt.o(i.Bt_ClearIntFlag)
    i.Bt_GetIntFlag                          0x00000504   Section        0  bt.o(i.Bt_GetIntFlag)
    i.Bt_M0_Stop                             0x00000518   Section        0  bt.o(i.Bt_M0_Stop)
    i.Bt_M23_ARRSet                          0x00000530   Section        0  bt.o(i.Bt_M23_ARRSet)
    i.Bt_M23_CCR_Set                         0x0000055c   Section        0  bt.o(i.Bt_M23_CCR_Set)
    i.Bt_M23_Cnt16Set                        0x00000590   Section        0  bt.o(i.Bt_M23_Cnt16Set)
    i.Bt_M23_EnPWM_Output                    0x000005ac   Section        0  bt.o(i.Bt_M23_EnPWM_Output)
    i.Bt_M23_MasterSlave_Set                 0x000005dc   Section        0  bt.o(i.Bt_M23_MasterSlave_Set)
    i.Bt_M23_PortOutput_Cfg                  0x00000630   Section        0  bt.o(i.Bt_M23_PortOutput_Cfg)
    i.Bt_M23_Run                             0x000006d4   Section        0  bt.o(i.Bt_M23_Run)
    i.Bt_Mode23_Init                         0x000006ec   Section        0  bt.o(i.Bt_Mode23_Init)
    i.BufferNext                             0x00000788   Section        0  myuart.o(i.BufferNext)
    BufferNext                               0x00000789   Thumb Code    16  myuart.o(i.BufferNext)
    i.CLKTRIM_IRQHandler                     0x00000798   Section        0  interrupts_hc32l13x.o(i.CLKTRIM_IRQHandler)
    i.DMAC_IRQHandler                        0x000007a0   Section        0  interrupts_hc32l13x.o(i.DMAC_IRQHandler)
    i.EnableNvic                             0x000007a8   Section        0  interrupts_hc32l13x.o(i.EnableNvic)
    i.FLASH_RAM_IRQHandler                   0x00000828   Section        0  interrupts_hc32l13x.o(i.FLASH_RAM_IRQHandler)
    i.Flash_Init                             0x00000834   Section        0  flash.o(i.Flash_Init)
    i.Flash_LockAll                          0x000008d8   Section        0  flash.o(i.Flash_LockAll)
    i.Flash_SectorErase                      0x000008f4   Section        0  flash.o(i.Flash_SectorErase)
    i.Flash_UnlockAll                        0x00000978   Section        0  flash.o(i.Flash_UnlockAll)
    i.Flash_WaitCycle                        0x00000998   Section        0  flash.o(i.Flash_WaitCycle)
    i.Flash_WriteByte                        0x000009c4   Section        0  flash.o(i.Flash_WriteByte)
    i.Flash_WriteWord                        0x00000a4c   Section        0  flash.o(i.Flash_WriteWord)
    i.GetBit                                 0x00000ad4   Section        0  ddl.o(i.GetBit)
    i.Gpio_ClrIO                             0x00000ae0   Section        0  gpio.o(i.Gpio_ClrIO)
    i.Gpio_GetInputIO                        0x00000af4   Section        0  gpio.o(i.Gpio_GetInputIO)
    i.Gpio_Init                              0x00000b04   Section        0  gpio.o(i.Gpio_Init)
    i.Gpio_SetAfMode                         0x00000b8c   Section        0  gpio.o(i.Gpio_SetAfMode)
    i.Gpio_SetAnalogMode                     0x00000ba0   Section        0  gpio.o(i.Gpio_SetAnalogMode)
    i.Gpio_SetIO                             0x00000bb4   Section        0  gpio.o(i.Gpio_SetIO)
    i.I2C0_IRQHandler                        0x00000bc8   Section        0  interrupts_hc32l13x.o(i.I2C0_IRQHandler)
    i.I2C1_IRQHandler                        0x00000bd0   Section        0  interrupts_hc32l13x.o(i.I2C1_IRQHandler)
    i.LCD_IRQHandler                         0x00000bd8   Section        0  interrupts_hc32l13x.o(i.LCD_IRQHandler)
    i.LPTIM_IRQHandler                       0x00000be0   Section        0  interrupts_hc32l13x.o(i.LPTIM_IRQHandler)
    i.LPUART0_IRQHandler                     0x00000be8   Section        0  interrupts_hc32l13x.o(i.LPUART0_IRQHandler)
    i.LPUART1_IRQHandler                     0x00000bf0   Section        0  interrupts_hc32l13x.o(i.LPUART1_IRQHandler)
    i.LPUart_ClrStatus                       0x00000bf8   Section        0  lpuart.o(i.LPUart_ClrStatus)
    i.LPUart_EnableFunc                      0x00000c06   Section        0  lpuart.o(i.LPUart_EnableFunc)
    i.LPUart_EnableIrq                       0x00000c14   Section        0  lpuart.o(i.LPUart_EnableIrq)
    i.LPUart_GetStatus                       0x00000c22   Section        0  lpuart.o(i.LPUart_GetStatus)
    i.LPUart_Init                            0x00000c2c   Section        0  lpuart.o(i.LPUart_Init)
    i.LPUart_ReceiveData                     0x00000c90   Section        0  lpuart.o(i.LPUart_ReceiveData)
    i.LVD_IRQHandler                         0x00000c96   Section        0  interrupts_hc32l13x.o(i.LVD_IRQHandler)
    i.LpTim_IRQHandler                       0x00000ca0   Section        0  mytimer.o(i.LpTim_IRQHandler)
    i.LpUart1_IRQHandler                     0x00000cbc   Section        0  myuart.o(i.LpUart1_IRQHandler)
    i.Lptim_ClrItStatus                      0x00000d00   Section        0  lptim.o(i.Lptim_ClrItStatus)
    i.Lptim_GetItStatus                      0x00000d0e   Section        0  lptim.o(i.Lptim_GetItStatus)
    i.Lvd_ClearIrq                           0x00000d1c   Section        0  lvd.o(i.Lvd_ClearIrq)
    i.Lvd_IRQHandler                         0x00000d2c   Section        0  mylvd.o(i.Lvd_IRQHandler)
    i.MyAdcSQRCfg                            0x00000d34   Section        0  myadc.o(i.MyAdcSQRCfg)
    i.MyInit                                 0x00000d54   Section        0  myinit.o(i.MyInit)
    i.PCA_IRQHandler                         0x00000d90   Section        0  interrupts_hc32l13x.o(i.PCA_IRQHandler)
    i.PCNT_IRQHandler                        0x00000d98   Section        0  interrupts_hc32l13x.o(i.PCNT_IRQHandler)
    i.PORTA_IRQHandler                       0x00000da0   Section        0  mykey.o(i.PORTA_IRQHandler)
    i.Pcnt_ClrItStatus                       0x00000dbc   Section        0  pcnt.o(i.Pcnt_ClrItStatus)
    i.Pcnt_Cmd                               0x00000dd0   Section        0  pcnt.o(i.Pcnt_Cmd)
    i.Pcnt_GetCnt                            0x00000dec   Section        0  pcnt.o(i.Pcnt_GetCnt)
    i.Pcnt_GetItStatus                       0x00000df8   Section        0  pcnt.o(i.Pcnt_GetItStatus)
    i.Pcnt_IRQHandler                        0x00000e08   Section        0  mypcnt.o(i.Pcnt_IRQHandler)
    i.Pcnt_Init                              0x00000ea4   Section        0  pcnt.o(i.Pcnt_Init)
    i.Pcnt_ItCfg                             0x00000f68   Section        0  pcnt.o(i.Pcnt_ItCfg)
    i.Pcnt_SetB2C                            0x00000f88   Section        0  pcnt.o(i.Pcnt_SetB2C)
    i.Pcnt_SetB2T                            0x00000fbc   Section        0  pcnt.o(i.Pcnt_SetB2T)
    i.RTC_IRQHandler                         0x00000ff0   Section        0  interrupts_hc32l13x.o(i.RTC_IRQHandler)
    i.Rtc_ClearPrdfItStatus                  0x00000ff8   Section        0  rtc.o(i.Rtc_ClearPrdfItStatus)
    i.Rtc_GetPridItStatus                    0x0000100c   Section        0  rtc.o(i.Rtc_GetPridItStatus)
    i.Rtc_IRQHandler                         0x0000101c   Section        0  myrtc.o(i.Rtc_IRQHandler)
    i.SPI0_IRQHandler                        0x00001030   Section        0  interrupts_hc32l13x.o(i.SPI0_IRQHandler)
    i.SPI1_IRQHandler                        0x00001038   Section        0  interrupts_hc32l13x.o(i.SPI1_IRQHandler)
    i.SetBit                                 0x00001040   Section        0  ddl.o(i.SetBit)
    i.Simple_Delay                           0x00001054   Section        0  mykey.o(i.Simple_Delay)
    i.SysTick_Handler                        0x000010a4   Section        0  board.o(i.SysTick_Handler)
    i.Sysctrl_ClkSourceEnable                0x000010c0   Section        0  sysctrl.o(i.Sysctrl_ClkSourceEnable)
    i.Sysctrl_GetHClkFreq                    0x00001184   Section        0  sysctrl.o(i.Sysctrl_GetHClkFreq)
    i.Sysctrl_GetPClkFreq                    0x000012c0   Section        0  sysctrl.o(i.Sysctrl_GetPClkFreq)
    i.Sysctrl_SetPeripheralGate              0x000012d8   Section        0  sysctrl.o(i.Sysctrl_SetPeripheralGate)
    i.Sysctrl_SetRCHTrim                     0x000012ec   Section        0  sysctrl.o(i.Sysctrl_SetRCHTrim)
    i.Sysctrl_SetRCLTrim                     0x00001310   Section        0  sysctrl.o(i.Sysctrl_SetRCLTrim)
    i.Sysctrl_SysClkSwitch                   0x00001334   Section        0  sysctrl.o(i.Sysctrl_SysClkSwitch)
    i.SystemCoreClockUpdate                  0x0000135c   Section        0  system_hc32l13x.o(i.SystemCoreClockUpdate)
    i.SystemInit                             0x0000136c   Section        0  system_hc32l13x.o(i.SystemInit)
    i.TIM0_IRQHandler                        0x0000139c   Section        0  interrupts_hc32l13x.o(i.TIM0_IRQHandler)
    i.TIM1_IRQHandler                        0x000013a4   Section        0  interrupts_hc32l13x.o(i.TIM1_IRQHandler)
    i.TIM2_IRQHandler                        0x000013ac   Section        0  interrupts_hc32l13x.o(i.TIM2_IRQHandler)
    i.TIM3_IRQHandler                        0x000013b4   Section        0  interrupts_hc32l13x.o(i.TIM3_IRQHandler)
    i.TIM4_IRQHandler                        0x000013bc   Section        0  interrupts_hc32l13x.o(i.TIM4_IRQHandler)
    i.TIM5_IRQHandler                        0x000013c4   Section        0  interrupts_hc32l13x.o(i.TIM5_IRQHandler)
    i.TIM6_IRQHandler                        0x000013cc   Section        0  interrupts_hc32l13x.o(i.TIM6_IRQHandler)
    i.Tim0_IRQHandler                        0x000013d4   Section        0  mybt.o(i.Tim0_IRQHandler)
    i.UART0_IRQHandler                       0x000013f2   Section        0  interrupts_hc32l13x.o(i.UART0_IRQHandler)
    i.UART1_IRQHandler                       0x000013fa   Section        0  interrupts_hc32l13x.o(i.UART1_IRQHandler)
    i.VC0_IRQHandler                         0x00001402   Section        0  interrupts_hc32l13x.o(i.VC0_IRQHandler)
    i.VC1_IRQHandler                         0x0000140a   Section        0  interrupts_hc32l13x.o(i.VC1_IRQHandler)
    i.WDT_IRQHandler                         0x00001412   Section        0  interrupts_hc32l13x.o(i.WDT_IRQHandler)
    i.WDT_int                                0x0000141a   Section        0  mywdt.o(i.WDT_int)
    i.Wdt_Feed                               0x00001430   Section        0  wdt.o(i.Wdt_Feed)
    i.Wdt_Init                               0x00001440   Section        0  wdt.o(i.Wdt_Init)
    i.Wdt_Start                              0x00001464   Section        0  wdt.o(i.Wdt_Start)
    i.Wdt_WriteWdtLoad                       0x00001474   Section        0  wdt.o(i.Wdt_WriteWdtLoad)
    i._SysctrlUnlock                         0x0000148c   Section        0  sysctrl.o(i._SysctrlUnlock)
    _SysctrlUnlock                           0x0000148d   Thumb Code    12  sysctrl.o(i._SysctrlUnlock)
    i.__ARM_common_switch8                   0x000014a4   Section        0  adc.o(i.__ARM_common_switch8)
    i.__rt_ffs                               0x000014c0   Section        0  kservice.o(i.__rt_ffs)
    i.__scatterload_copy                     0x00001500   Section       14  handlers.o(i.__scatterload_copy)
    i.__scatterload_null                     0x0000150e   Section        2  handlers.o(i.__scatterload_null)
    i.__scatterload_zeroinit                 0x00001510   Section       14  handlers.o(i.__scatterload_zeroinit)
    i._has_defunct_thread                    0x00001520   Section        0  idle.o(i._has_defunct_thread)
    _has_defunct_thread                      0x00001521   Thumb Code    16  idle.o(i._has_defunct_thread)
    i._rt_thread_init                        0x00001534   Section        0  thread.o(i._rt_thread_init)
    _rt_thread_init                          0x00001535   Thumb Code   108  thread.o(i._rt_thread_init)
    i._rt_timer_init                         0x000015a8   Section        0  timer.o(i._rt_timer_init)
    _rt_timer_init                           0x000015a9   Thumb Code    28  timer.o(i._rt_timer_init)
    i._rt_timer_remove                       0x000015c4   Section        0  timer.o(i._rt_timer_remove)
    _rt_timer_remove                         0x000015c5   Thumb Code    20  timer.o(i._rt_timer_remove)
    i.current_page                           0x000015d8   Section        0  myflash.o(i.current_page)
    i.ddl_memclr                             0x000015ec   Section        0  ddl.o(i.ddl_memclr)
    i.delay100us                             0x00001600   Section        0  ddl.o(i.delay100us)
    i.flash_eeprom_page_switch               0x00001644   Section        0  myflash.o(i.flash_eeprom_page_switch)
    i.flash_eeprom_pwron_check               0x000016ea   Section        0  myflash.o(i.flash_eeprom_pwron_check)
    i.flash_eeprom_update_active_address     0x0000171a   Section        0  myflash.o(i.flash_eeprom_update_active_address)
    i.gpio_adc_init                          0x0000173c   Section        0  mygpio.o(i.gpio_adc_init)
    i.gpio_io_init                           0x00001750   Section        0  mygpio.o(i.gpio_io_init)
    i.gpio_pcnt_init                         0x00001790   Section        0  mygpio.o(i.gpio_pcnt_init)
    i.gpio_tim0_init                         0x000017be   Section        0  mygpio.o(i.gpio_tim0_init)
    i.gpio_uart_init                         0x00001808   Section        0  mygpio.o(i.gpio_uart_init)
    i.main                                   0x0000184c   Section        0  main.o(i.main)
    i.main_thread_entry                      0x00001914   Section        0  components.o(i.main_thread_entry)
    i.my_adc_init                            0x00001920   Section        0  myadc.o(i.my_adc_init)
    i.my_eeprom_init                         0x00001994   Section        0  myflash.o(i.my_eeprom_init)
    i.my_flash_init                          0x000019c0   Section        0  myflash.o(i.my_flash_init)
    i.my_pcnt_init                           0x000019d4   Section        0  mypcnt.o(i.my_pcnt_init)
    i.my_timer0_mode2_cfg                    0x00001a3e   Section        0  mybt.o(i.my_timer0_mode2_cfg)
    i.mygpio_init                            0x00001afa   Section        0  mygpio.o(i.mygpio_init)
    i.myuart_init                            0x00001b14   Section        0  myuart.o(i.myuart_init)
    i.plug_holes                             0x00001b78   Section        0  mem.o(i.plug_holes)
    plug_holes                               0x00001b79   Thumb Code    82  mem.o(i.plug_holes)
    i.print_number                           0x00001bd0   Section        0  kservice.o(i.print_number)
    print_number                             0x00001bd1   Thumb Code   320  kservice.o(i.print_number)
    i.rt_application_init                    0x00001d14   Section        0  components.o(i.rt_application_init)
    i.rt_components_board_init               0x00001d40   Section        0  components.o(i.rt_components_board_init)
    i.rt_components_init                     0x00001d5c   Section        0  components.o(i.rt_components_init)
    i.rt_enter_critical                      0x00001d78   Section        0  scheduler.o(i.rt_enter_critical)
    i.rt_exit_critical                       0x00001d90   Section        0  scheduler.o(i.rt_exit_critical)
    i.rt_free                                0x00001dc4   Section        0  mem.o(i.rt_free)
    i.rt_heap_begin_get                      0x00001e88   Section        0  board.o(i.rt_heap_begin_get)
    i.rt_heap_end_get                        0x00001e90   Section        0  board.o(i.rt_heap_end_get)
    i.rt_hw_board_init                       0x00001e98   Section        0  board.o(i.rt_hw_board_init)
    i.rt_hw_console_output                   0x00001eec   Section        0  kservice.o(i.rt_hw_console_output)
    i.rt_hw_hard_fault_exception             0x00001f18   Section        0  cpuport.o(i.rt_hw_hard_fault_exception)
    i.rt_hw_stack_init                       0x00002008   Section        0  cpuport.o(i.rt_hw_stack_init)
    i.rt_interrupt_enter                     0x00002040   Section        0  irq.o(i.rt_interrupt_enter)
    i.rt_interrupt_leave                     0x00002058   Section        0  irq.o(i.rt_interrupt_leave)
    i.rt_ipc_list_suspend                    0x00002070   Section        0  ipc.o(i.rt_ipc_list_suspend)
    rt_ipc_list_suspend                      0x00002071   Thumb Code    78  ipc.o(i.rt_ipc_list_suspend)
    i.rt_kprintf                             0x000020c0   Section        0  kservice.o(i.rt_kprintf)
    i.rt_list_insert_after                   0x000020e4   Section        0  object.o(i.rt_list_insert_after)
    rt_list_insert_after                     0x000020e5   Thumb Code    14  object.o(i.rt_list_insert_after)
    i.rt_list_insert_after                   0x000020f2   Section        0  thread.o(i.rt_list_insert_after)
    rt_list_insert_after                     0x000020f3   Thumb Code    14  thread.o(i.rt_list_insert_after)
    i.rt_list_insert_after                   0x00002100   Section        0  timer.o(i.rt_list_insert_after)
    rt_list_insert_after                     0x00002101   Thumb Code    14  timer.o(i.rt_list_insert_after)
    i.rt_list_insert_before                  0x0000210e   Section        0  ipc.o(i.rt_list_insert_before)
    rt_list_insert_before                    0x0000210f   Thumb Code    14  ipc.o(i.rt_list_insert_before)
    i.rt_list_remove                         0x0000211c   Section        0  object.o(i.rt_list_remove)
    rt_list_remove                           0x0000211d   Thumb Code    18  object.o(i.rt_list_remove)
    i.rt_list_remove                         0x0000212e   Section        0  thread.o(i.rt_list_remove)
    rt_list_remove                           0x0000212f   Thumb Code    18  thread.o(i.rt_list_remove)
    i.rt_malloc                              0x00002140   Section        0  mem.o(i.rt_malloc)
    i.rt_memset                              0x00002228   Section        0  kservice.o(i.rt_memset)
    i.rt_object_allocate                     0x00002266   Section        0  object.o(i.rt_object_allocate)
    i.rt_object_delete                       0x000022b2   Section        0  object.o(i.rt_object_delete)
    i.rt_object_detach                       0x000022d6   Section        0  object.o(i.rt_object_detach)
    i.rt_object_get_information              0x000022f4   Section        0  object.o(i.rt_object_get_information)
    i.rt_object_init                         0x00002314   Section        0  object.o(i.rt_object_init)
    i.rt_object_is_systemobject              0x00002360   Section        0  object.o(i.rt_object_is_systemobject)
    i.rt_schedule                            0x00002370   Section        0  scheduler.o(i.rt_schedule)
    i.rt_schedule_insert_thread              0x000023dc   Section        0  scheduler.o(i.rt_schedule_insert_thread)
    i.rt_schedule_remove_thread              0x00002438   Section        0  scheduler.o(i.rt_schedule_remove_thread)
    i.rt_sem_init                            0x00002494   Section        0  ipc.o(i.rt_sem_init)
    i.rt_sem_release                         0x000024b4   Section        0  ipc.o(i.rt_sem_release)
    i.rt_sem_take                            0x000024ea   Section        0  ipc.o(i.rt_sem_take)
    i.rt_show_version                        0x0000255c   Section        0  kservice.o(i.rt_show_version)
    i.rt_strlen                              0x00002734   Section        0  kservice.o(i.rt_strlen)
    i.rt_strncpy                             0x00002744   Section        0  kservice.o(i.rt_strncpy)
    i.rt_system_heap_init                    0x0000276c   Section        0  mem.o(i.rt_system_heap_init)
    i.rt_system_scheduler_init               0x00002814   Section        0  scheduler.o(i.rt_system_scheduler_init)
    i.rt_system_scheduler_start              0x00002858   Section        0  scheduler.o(i.rt_system_scheduler_start)
    i.rt_system_timer_init                   0x00002890   Section        0  timer.o(i.rt_system_timer_init)
    i.rt_system_timer_thread_init            0x0000289c   Section        0  timer.o(i.rt_system_timer_thread_init)
    i.rt_thread_create                       0x0000289e   Section        0  thread.o(i.rt_thread_create)
    i.rt_thread_exit                         0x000028e0   Section        0  thread.o(i.rt_thread_exit)
    i.rt_thread_idle_entry                   0x00002938   Section        0  idle.o(i.rt_thread_idle_entry)
    rt_thread_idle_entry                     0x00002939   Thumb Code     6  idle.o(i.rt_thread_idle_entry)
    i.rt_thread_idle_excute                  0x00002940   Section        0  idle.o(i.rt_thread_idle_excute)
    i.rt_thread_idle_gethandler              0x000029b8   Section        0  idle.o(i.rt_thread_idle_gethandler)
    i.rt_thread_idle_init                    0x000029c0   Section        0  idle.o(i.rt_thread_idle_init)
    i.rt_thread_init                         0x000029f4   Section        0  thread.o(i.rt_thread_init)
    i.rt_thread_mdelay                       0x00002a1e   Section        0  thread.o(i.rt_thread_mdelay)
    i.rt_thread_resume                       0x00002a2a   Section        0  thread.o(i.rt_thread_resume)
    i.rt_thread_self                         0x00002a68   Section        0  thread.o(i.rt_thread_self)
    i.rt_thread_sleep                        0x00002a74   Section        0  thread.o(i.rt_thread_sleep)
    i.rt_thread_startup                      0x00002ab4   Section        0  thread.o(i.rt_thread_startup)
    i.rt_thread_suspend                      0x00002af0   Section        0  thread.o(i.rt_thread_suspend)
    i.rt_thread_timeout                      0x00002b30   Section        0  thread.o(i.rt_thread_timeout)
    i.rt_thread_yield                        0x00002b50   Section        0  thread.o(i.rt_thread_yield)
    i.rt_tick_from_millisecond               0x00002bac   Section        0  clock.o(i.rt_tick_from_millisecond)
    i.rt_tick_get                            0x00002bdc   Section        0  clock.o(i.rt_tick_get)
    i.rt_tick_increase                       0x00002be8   Section        0  clock.o(i.rt_tick_increase)
    i.rt_timer_check                         0x00002c10   Section        0  timer.o(i.rt_timer_check)
    i.rt_timer_control                       0x00002c74   Section        0  timer.o(i.rt_timer_control)
    i.rt_timer_detach                        0x00002ca6   Section        0  timer.o(i.rt_timer_detach)
    i.rt_timer_init                          0x00002cc6   Section        0  timer.o(i.rt_timer_init)
    i.rt_timer_start                         0x00002cec   Section        0  timer.o(i.rt_timer_start)
    i.rt_timer_stop                          0x00002d7c   Section        0  timer.o(i.rt_timer_stop)
    i.rt_vsnprintf                           0x00002dac   Section        0  kservice.o(i.rt_vsnprintf)
    i.rti_board_end                          0x00003018   Section        0  components.o(i.rti_board_end)
    rti_board_end                            0x00003019   Thumb Code     4  components.o(i.rti_board_end)
    i.rti_board_start                        0x0000301c   Section        0  components.o(i.rti_board_start)
    rti_board_start                          0x0000301d   Thumb Code     4  components.o(i.rti_board_start)
    i.rti_end                                0x00003020   Section        0  components.o(i.rti_end)
    rti_end                                  0x00003021   Thumb Code     4  components.o(i.rti_end)
    i.rti_start                              0x00003024   Section        0  components.o(i.rti_start)
    rti_start                                0x00003025   Thumb Code     4  components.o(i.rti_start)
    i.rtthread_startup                       0x00003028   Section        0  components.o(i.rtthread_startup)
    i.skip_atoi                              0x00003052   Section        0  kservice.o(i.skip_atoi)
    skip_atoi                                0x00003053   Thumb Code    32  kservice.o(i.skip_atoi)
    i.thread1_entry                          0x00003074   Section        0  main.o(i.thread1_entry)
    thread1_entry                            0x00003075   Thumb Code    40  main.o(i.thread1_entry)
    i.uart1_send2                            0x000030a0   Section        0  myuart.o(i.uart1_send2)
    .constdata                               0x000030c0   Section       32  flash.o(.constdata)
    .constdata                               0x000030e0   Section       24  sysctrl.o(.constdata)
    .constdata                               0x000030f8   Section       12  lpuart.o(.constdata)
    .constdata                               0x00003104   Section      290  kservice.o(.constdata)
    small_digits                             0x00003204   Data          17  kservice.o(.constdata)
    large_digits                             0x00003215   Data          17  kservice.o(.constdata)
    .rti_fn.0                                0x00003228   Section        4  components.o(.rti_fn.0)
    __tagsym$$used                           0x00003228   Number         0  components.o(.rti_fn.0)
    .rti_fn.0.end                            0x0000322c   Section        4  components.o(.rti_fn.0.end)
    __tagsym$$used                           0x0000322c   Number         0  components.o(.rti_fn.0.end)
    .rti_fn.1                                0x00003230   Section        4  myinit.o(.rti_fn.1)
    __tagsym$$used                           0x00003230   Number         0  myinit.o(.rti_fn.1)
    .rti_fn.1.end                            0x00003234   Section        4  components.o(.rti_fn.1.end)
    __tagsym$$used                           0x00003234   Number         0  components.o(.rti_fn.1.end)
    .rti_fn.6.end                            0x00003238   Section        4  components.o(.rti_fn.6.end)
    __tagsym$$used                           0x00003238   Number         0  components.o(.rti_fn.6.end)
    .data                                    0x20000000   Section        4  system_hc32l13x.o(.data)
    .data                                    0x20000004   Section        8  myuart.o(.data)
    Last                                     0x20000004   Data           4  myuart.o(.data)
    Empty                                    0x20000008   Data           4  myuart.o(.data)
    .data                                    0x2000000c   Section        8  myadc.o(.data)
    .data                                    0x20000014   Section        4  mypcnt.o(.data)
    .data                                    0x20000018   Section        1  main.o(.data)
    .data                                    0x20000019   Section        1  app_led_blink.o(.data)
    .data                                    0x2000001c   Section        4  cpuport.o(.data)
    .data                                    0x20000020   Section        4  cpuport.o(.data)
    .data                                    0x20000024   Section        4  cpuport.o(.data)
    .data                                    0x20000028   Section        4  clock.o(.data)
    rt_tick                                  0x20000028   Data           4  clock.o(.data)
    .data                                    0x2000002c   Section        1  irq.o(.data)
    .data                                    0x20000030   Section       24  mem.o(.data)
    heap_ptr                                 0x20000030   Data           4  mem.o(.data)
    heap_end                                 0x20000034   Data           4  mem.o(.data)
    lfree                                    0x20000038   Data           4  mem.o(.data)
    mem_size_aligned                         0x2000003c   Data           4  mem.o(.data)
    used_mem                                 0x20000040   Data           4  mem.o(.data)
    max_mem                                  0x20000044   Data           4  mem.o(.data)
    .data                                    0x20000048   Section       64  object.o(.data)
    rt_object_container                      0x20000048   Data          64  object.o(.data)
    .data                                    0x20000088   Section       20  scheduler.o(.data)
    rt_scheduler_lock_nest                   0x2000008a   Data           2  scheduler.o(.data)
    .data                                    0x2000009c   Section       12  timer.o(.data)
    random_nr                                0x2000009c   Data           4  timer.o(.data)
    rt_timer_list                            0x200000a0   Data           8  timer.o(.data)
    .data                                    0x200000a8   Section        4  board.o(.data)
    .bss                                     0x200000ac   Section      200  myuart.o(.bss)
    ReadBufferLpuart1                        0x200000ac   Data         200  myuart.o(.bss)
    .bss                                     0x20000174   Section       32  myflash.o(.bss)
    .bss                                     0x20000194   Section      252  main.o(.bss)
    thread1_stack                            0x20000194   Data         128  main.o(.bss)
    thread1                                  0x20000214   Data         124  main.o(.bss)
    .bss                                     0x20000290   Section      380  idle.o(.bss)
    idle                                     0x20000290   Data         124  idle.o(.bss)
    rt_thread_stack                          0x2000030c   Data         256  idle.o(.bss)
    .bss                                     0x2000040c   Section      128  kservice.o(.bss)
    rt_log_buf                               0x2000040c   Data         128  kservice.o(.bss)
    .bss                                     0x2000048c   Section       32  mem.o(.bss)
    heap_sem                                 0x2000048c   Data          32  mem.o(.bss)
    .bss                                     0x200004ac   Section      544  scheduler.o(.bss)
    .bss                                     0x200006cc   Section     4096  board.o(.bss)
    rt_heap                                  0x200006cc   Data        4096  board.o(.bss)
    STACK                                    0x200016d0   Section     2048  startup_hc32l13x.o(STACK)

    Global Symbols

    Symbol Name                              Value     Ov Type        Size  Object(Section)

    BuildAttributes$$THM_ISAv3M$S$PE$A:L22$X:L11$S22$IEEE1$IW$USESV6$~STKCKD$USESV7$~SHL$OSPACE$EBA8$MICROLIB$REQ8$PRES8$EABIv2 0x00000000   Number         0  anon$$obj.o ABSOLUTE
    __ARM_use_no_argv                        0x00000000   Number         0  main.o ABSOLUTE
    __Vectors                                0x00000000   Data           0  startup_hc32l13x.o(RESET)
    __use_no_errno                           0x00000000   Number         0  useno.o ABSOLUTE
    __use_no_exception_handling              0x00000000   Number         0  useno.o ABSOLUTE
    __use_no_fp                              0x00000000   Number         0  useno.o ABSOLUTE
    __use_no_heap                            0x00000000   Number         0  useno.o ABSOLUTE
    __use_no_heap_region                     0x00000000   Number         0  useno.o ABSOLUTE
    __use_no_semihosting                     0x00000000   Number         0  useno.o ABSOLUTE
    __use_no_semihosting_swi                 0x00000000   Number         0  useno.o ABSOLUTE
    __use_no_signal_handling                 0x00000000   Number         0  useno.o ABSOLUTE
    ClkTrim_IRQHandler                        - Undefined Weak Reference
    Dmac_IRQHandler                           - Undefined Weak Reference
    Flash_IRQHandler                          - Undefined Weak Reference
    I2c0_IRQHandler                           - Undefined Weak Reference
    I2c1_IRQHandler                           - Undefined Weak Reference
    Lcd_IRQHandler                            - Undefined Weak Reference
    LpUart0_IRQHandler                        - Undefined Weak Reference
    Pca_IRQHandler                            - Undefined Weak Reference
    Ram_IRQHandler                            - Undefined Weak Reference
    Spi0_IRQHandler                           - Undefined Weak Reference
    Spi1_IRQHandler                           - Undefined Weak Reference
    Tim1_IRQHandler                           - Undefined Weak Reference
    Tim2_IRQHandler                           - Undefined Weak Reference
    Tim3_IRQHandler                           - Undefined Weak Reference
    Tim4_IRQHandler                           - Undefined Weak Reference
    Tim5_IRQHandler                           - Undefined Weak Reference
    Tim6_IRQHandler                           - Undefined Weak Reference
    Uart0_IRQHandler                          - Undefined Weak Reference
    Uart1_IRQHandler                          - Undefined Weak Reference
    Vc0_IRQHandler                            - Undefined Weak Reference
    Vc1_IRQHandler                            - Undefined Weak Reference
    Wdt_IRQHandler                            - Undefined Weak Reference
    __cpp_initialize__aeabi_                  - Undefined Weak Reference
    __cxa_finalize                            - Undefined Weak Reference
    __decompress                              - Undefined Weak Reference
    _clock_init                               - Undefined Weak Reference
    _microlib_exit                            - Undefined Weak Reference
    __Vectors_End                            0x000000c0   Data           0  startup_hc32l13x.o(RESET)
    __Vectors_Size                           0x000000c0   Number         0  startup_hc32l13x.o ABSOLUTE
    __main                                   0x000000c1   Thumb Code     0  entry.o(.ARM.Collect$$$$00000000)
    _main_stk                                0x000000c1   Thumb Code     0  entry2.o(.ARM.Collect$$$$00000001)
    _main_scatterload                        0x000000c5   Thumb Code     0  entry5.o(.ARM.Collect$$$$00000004)
    __main_after_scatterload                 0x000000c9   Thumb Code     0  entry5.o(.ARM.Collect$$$$00000004)
    _main_clock                              0x000000c9   Thumb Code     0  entry7b.o(.ARM.Collect$$$$00000008)
    _main_cpp_init                           0x000000c9   Thumb Code     0  entry8b.o(.ARM.Collect$$$$0000000A)
    _main_init                               0x000000c9   Thumb Code     0  entry9a.o(.ARM.Collect$$$$0000000B)
    __rt_final_cpp                           0x000000d1   Thumb Code     0  entry10a.o(.ARM.Collect$$$$0000000D)
    __rt_final_exit                          0x000000d1   Thumb Code     0  entry11a.o(.ARM.Collect$$$$0000000F)
    Reset_Handler                            0x000000d5   Thumb Code    26  startup_hc32l13x.o(.text)
    NMI_Handler                              0x000000ef   Thumb Code     2  startup_hc32l13x.o(.text)
    SVC_Handler                              0x000000f3   Thumb Code     2  startup_hc32l13x.o(.text)
    PORTB_IRQHandler                         0x000000f9   Thumb Code     0  startup_hc32l13x.o(.text)
    PORTC_IRQHandler                         0x000000f9   Thumb Code     0  startup_hc32l13x.o(.text)
    PORTD_IRQHandler                         0x000000f9   Thumb Code     0  startup_hc32l13x.o(.text)
    rt_hw_interrupt_disable                  0x00000111   Thumb Code     8  context_rvds.o(.text)
    rt_hw_interrupt_enable                   0x00000119   Thumb Code     6  context_rvds.o(.text)
    rt_hw_context_switch                     0x0000011f   Thumb Code    28  context_rvds.o(.text)
    rt_hw_context_switch_interrupt           0x0000011f   Thumb Code     0  context_rvds.o(.text)
    PendSV_Handler                           0x0000013b   Thumb Code    84  context_rvds.o(.text)
    rt_hw_context_switch_to                  0x0000018f   Thumb Code    44  context_rvds.o(.text)
    rt_hw_interrupt_thread_switch            0x000001bb   Thumb Code     2  context_rvds.o(.text)
    HardFault_Handler                        0x000001bd   Thumb Code    12  context_rvds.o(.text)
    __aeabi_uidiv                            0x000001e9   Thumb Code     0  uidiv.o(.text)
    __aeabi_uidivmod                         0x000001e9   Thumb Code    44  uidiv.o(.text)
    __aeabi_idiv                             0x00000215   Thumb Code     0  idiv.o(.text)
    __aeabi_idivmod                          0x00000215   Thumb Code    40  idiv.o(.text)
    __aeabi_memcpy                           0x0000023d   Thumb Code    36  memcpya.o(.text)
    __aeabi_memcpy4                          0x0000023d   Thumb Code     0  memcpya.o(.text)
    __aeabi_memcpy8                          0x0000023d   Thumb Code     0  memcpya.o(.text)
    __aeabi_memset                           0x00000261   Thumb Code    14  memseta.o(.text)
    __aeabi_memset4                          0x00000261   Thumb Code     0  memseta.o(.text)
    __aeabi_memset8                          0x00000261   Thumb Code     0  memseta.o(.text)
    __aeabi_memclr                           0x0000026f   Thumb Code     4  memseta.o(.text)
    __aeabi_memclr4                          0x0000026f   Thumb Code     0  memseta.o(.text)
    __aeabi_memclr8                          0x0000026f   Thumb Code     0  memseta.o(.text)
    _memset$wrapper                          0x00000273   Thumb Code    18  memseta.o(.text)
    __scatterload                            0x00000285   Thumb Code    28  init.o(.text)
    __scatterload_rt2                        0x00000285   Thumb Code     0  init.o(.text)
    main                                     0x000002a9   Thumb Code    10  components.o(i.$Sub$$main)
    ADC_IRQHandler                           0x000002b3   Thumb Code     8  interrupts_hc32l13x.o(i.ADC_IRQHandler)
    Adc_ClrIrqStatus                         0x000002bd   Thumb Code    10  adc.o(i.Adc_ClrIrqStatus)
    Adc_Enable                               0x000002cd   Thumb Code    12  adc.o(i.Adc_Enable)
    Adc_EnableIrq                            0x000002dd   Thumb Code    12  adc.o(i.Adc_EnableIrq)
    Adc_GetIrqStatus                         0x000002ed   Thumb Code    16  adc.o(i.Adc_GetIrqStatus)
    Adc_GetSqrResult                         0x00000301   Thumb Code     8  adc.o(i.Adc_GetSqrResult)
    Adc_IRQHandler                           0x0000030d   Thumb Code    46  myadc.o(i.Adc_IRQHandler)
    Adc_Init                                 0x00000341   Thumb Code    82  adc.o(i.Adc_Init)
    Adc_SQR_Start                            0x00000399   Thumb Code     8  adc.o(i.Adc_SQR_Start)
    Adc_SqrModeCfg                           0x000003a5   Thumb Code    90  adc.o(i.Adc_SqrModeCfg)
    App_Breath                               0x00000405   Thumb Code   138  app_breath.o(i.App_Breath)
    App_LED_Blink                            0x00000495   Thumb Code    36  app_led_blink.o(i.App_LED_Blink)
    Bgr_BgrEnable                            0x000004bd   Thumb Code    20  bgr.o(i.Bgr_BgrEnable)
    Bgr_TempSensorEnable                     0x000004d5   Thumb Code    20  bgr.o(i.Bgr_TempSensorEnable)
    Bt_ClearIntFlag                          0x000004ed   Thumb Code    20  bt.o(i.Bt_ClearIntFlag)
    Bt_GetIntFlag                            0x00000505   Thumb Code    16  bt.o(i.Bt_GetIntFlag)
    Bt_M0_Stop                               0x00000519   Thumb Code    20  bt.o(i.Bt_M0_Stop)
    Bt_M23_ARRSet                            0x00000531   Thumb Code    38  bt.o(i.Bt_M23_ARRSet)
    Bt_M23_CCR_Set                           0x0000055d   Thumb Code    48  bt.o(i.Bt_M23_CCR_Set)
    Bt_M23_Cnt16Set                          0x00000591   Thumb Code    22  bt.o(i.Bt_M23_Cnt16Set)
    Bt_M23_EnPWM_Output                      0x000005ad   Thumb Code    44  bt.o(i.Bt_M23_EnPWM_Output)
    Bt_M23_MasterSlave_Set                   0x000005dd   Thumb Code    80  bt.o(i.Bt_M23_MasterSlave_Set)
    Bt_M23_PortOutput_Cfg                    0x00000631   Thumb Code   160  bt.o(i.Bt_M23_PortOutput_Cfg)
    Bt_M23_Run                               0x000006d5   Thumb Code    20  bt.o(i.Bt_M23_Run)
    Bt_Mode23_Init                           0x000006ed   Thumb Code   150  bt.o(i.Bt_Mode23_Init)
    CLKTRIM_IRQHandler                       0x00000799   Thumb Code     8  interrupts_hc32l13x.o(i.CLKTRIM_IRQHandler)
    DMAC_IRQHandler                          0x000007a1   Thumb Code     8  interrupts_hc32l13x.o(i.DMAC_IRQHandler)
    EnableNvic                               0x000007a9   Thumb Code   110  interrupts_hc32l13x.o(i.EnableNvic)
    FLASH_RAM_IRQHandler                     0x00000829   Thumb Code    12  interrupts_hc32l13x.o(i.FLASH_RAM_IRQHandler)
    Flash_Init                               0x00000835   Thumb Code   148  flash.o(i.Flash_Init)
    Flash_LockAll                            0x000008d9   Thumb Code    16  flash.o(i.Flash_LockAll)
    Flash_SectorErase                        0x000008f5   Thumb Code   116  flash.o(i.Flash_SectorErase)
    Flash_UnlockAll                          0x00000979   Thumb Code    18  flash.o(i.Flash_UnlockAll)
    Flash_WaitCycle                          0x00000999   Thumb Code    32  flash.o(i.Flash_WaitCycle)
    Flash_WriteByte                          0x000009c5   Thumb Code   118  flash.o(i.Flash_WriteByte)
    Flash_WriteWord                          0x00000a4d   Thumb Code   118  flash.o(i.Flash_WriteWord)
    GetBit                                   0x00000ad5   Thumb Code    10  ddl.o(i.GetBit)
    Gpio_ClrIO                               0x00000ae1   Thumb Code    16  gpio.o(i.Gpio_ClrIO)
    Gpio_GetInputIO                          0x00000af5   Thumb Code    12  gpio.o(i.Gpio_GetInputIO)
    Gpio_Init                                0x00000b05   Thumb Code   124  gpio.o(i.Gpio_Init)
    Gpio_SetAfMode                           0x00000b8d   Thumb Code    14  gpio.o(i.Gpio_SetAfMode)
    Gpio_SetAnalogMode                       0x00000ba1   Thumb Code    16  gpio.o(i.Gpio_SetAnalogMode)
    Gpio_SetIO                               0x00000bb5   Thumb Code    16  gpio.o(i.Gpio_SetIO)
    I2C0_IRQHandler                          0x00000bc9   Thumb Code     8  interrupts_hc32l13x.o(i.I2C0_IRQHandler)
    I2C1_IRQHandler                          0x00000bd1   Thumb Code     8  interrupts_hc32l13x.o(i.I2C1_IRQHandler)
    LCD_IRQHandler                           0x00000bd9   Thumb Code     8  interrupts_hc32l13x.o(i.LCD_IRQHandler)
    LPTIM_IRQHandler                         0x00000be1   Thumb Code     8  interrupts_hc32l13x.o(i.LPTIM_IRQHandler)
    LPUART0_IRQHandler                       0x00000be9   Thumb Code     8  interrupts_hc32l13x.o(i.LPUART0_IRQHandler)
    LPUART1_IRQHandler                       0x00000bf1   Thumb Code     8  interrupts_hc32l13x.o(i.LPUART1_IRQHandler)
    LPUart_ClrStatus                         0x00000bf9   Thumb Code    14  lpuart.o(i.LPUart_ClrStatus)
    LPUart_EnableFunc                        0x00000c07   Thumb Code    14  lpuart.o(i.LPUart_EnableFunc)
    LPUart_EnableIrq                         0x00000c15   Thumb Code    14  lpuart.o(i.LPUart_EnableIrq)
    LPUart_GetStatus                         0x00000c23   Thumb Code    10  lpuart.o(i.LPUart_GetStatus)
    LPUart_Init                              0x00000c2d   Thumb Code    94  lpuart.o(i.LPUart_Init)
    LPUart_ReceiveData                       0x00000c91   Thumb Code     6  lpuart.o(i.LPUart_ReceiveData)
    LVD_IRQHandler                           0x00000c97   Thumb Code     8  interrupts_hc32l13x.o(i.LVD_IRQHandler)
    LpTim_IRQHandler                         0x00000ca1   Thumb Code    22  mytimer.o(i.LpTim_IRQHandler)
    LpUart1_IRQHandler                       0x00000cbd   Thumb Code    56  myuart.o(i.LpUart1_IRQHandler)
    Lptim_ClrItStatus                        0x00000d01   Thumb Code    14  lptim.o(i.Lptim_ClrItStatus)
    Lptim_GetItStatus                        0x00000d0f   Thumb Code    12  lptim.o(i.Lptim_GetItStatus)
    Lvd_ClearIrq                             0x00000d1d   Thumb Code    12  lvd.o(i.Lvd_ClearIrq)
    Lvd_IRQHandler                           0x00000d2d   Thumb Code     8  mylvd.o(i.Lvd_IRQHandler)
    MyAdcSQRCfg                              0x00000d35   Thumb Code    26  myadc.o(i.MyAdcSQRCfg)
    MyInit                                   0x00000d55   Thumb Code    56  myinit.o(i.MyInit)
    PCA_IRQHandler                           0x00000d91   Thumb Code     8  interrupts_hc32l13x.o(i.PCA_IRQHandler)
    PCNT_IRQHandler                          0x00000d99   Thumb Code     8  interrupts_hc32l13x.o(i.PCNT_IRQHandler)
    PORTA_IRQHandler                         0x00000da1   Thumb Code    22  mykey.o(i.PORTA_IRQHandler)
    Pcnt_ClrItStatus                         0x00000dbd   Thumb Code    14  pcnt.o(i.Pcnt_ClrItStatus)
    Pcnt_Cmd                                 0x00000dd1   Thumb Code    24  pcnt.o(i.Pcnt_Cmd)
    Pcnt_GetCnt                              0x00000ded   Thumb Code     8  pcnt.o(i.Pcnt_GetCnt)
    Pcnt_GetItStatus                         0x00000df9   Thumb Code    12  pcnt.o(i.Pcnt_GetItStatus)
    Pcnt_IRQHandler                          0x00000e09   Thumb Code   152  mypcnt.o(i.Pcnt_IRQHandler)
    Pcnt_Init                                0x00000ea5   Thumb Code   192  pcnt.o(i.Pcnt_Init)
    Pcnt_ItCfg                               0x00000f69   Thumb Code    28  pcnt.o(i.Pcnt_ItCfg)
    Pcnt_SetB2C                              0x00000f89   Thumb Code    46  pcnt.o(i.Pcnt_SetB2C)
    Pcnt_SetB2T                              0x00000fbd   Thumb Code    46  pcnt.o(i.Pcnt_SetB2T)
    RTC_IRQHandler                           0x00000ff1   Thumb Code     8  interrupts_hc32l13x.o(i.RTC_IRQHandler)
    Rtc_ClearPrdfItStatus                    0x00000ff9   Thumb Code    14  rtc.o(i.Rtc_ClearPrdfItStatus)
    Rtc_GetPridItStatus                      0x0000100d   Thumb Code    12  rtc.o(i.Rtc_GetPridItStatus)
    Rtc_IRQHandler                           0x0000101d   Thumb Code    20  myrtc.o(i.Rtc_IRQHandler)
    SPI0_IRQHandler                          0x00001031   Thumb Code     8  interrupts_hc32l13x.o(i.SPI0_IRQHandler)
    SPI1_IRQHandler                          0x00001039   Thumb Code     8  interrupts_hc32l13x.o(i.SPI1_IRQHandler)
    SetBit                                   0x00001041   Thumb Code    20  ddl.o(i.SetBit)
    Simple_Delay                             0x00001055   Thumb Code    78  mykey.o(i.Simple_Delay)
    SysTick_Handler                          0x000010a5   Thumb Code    24  board.o(i.SysTick_Handler)
    Sysctrl_ClkSourceEnable                  0x000010c1   Thumb Code   186  sysctrl.o(i.Sysctrl_ClkSourceEnable)
    Sysctrl_GetHClkFreq                      0x00001185   Thumb Code   298  sysctrl.o(i.Sysctrl_GetHClkFreq)
    Sysctrl_GetPClkFreq                      0x000012c1   Thumb Code    18  sysctrl.o(i.Sysctrl_GetPClkFreq)
    Sysctrl_SetPeripheralGate                0x000012d9   Thumb Code    16  sysctrl.o(i.Sysctrl_SetPeripheralGate)
    Sysctrl_SetRCHTrim                       0x000012ed   Thumb Code    28  sysctrl.o(i.Sysctrl_SetRCHTrim)
    Sysctrl_SetRCLTrim                       0x00001311   Thumb Code    28  sysctrl.o(i.Sysctrl_SetRCLTrim)
    Sysctrl_SysClkSwitch                     0x00001335   Thumb Code    34  sysctrl.o(i.Sysctrl_SysClkSwitch)
    SystemCoreClockUpdate                    0x0000135d   Thumb Code    12  system_hc32l13x.o(i.SystemCoreClockUpdate)
    SystemInit                               0x0000136d   Thumb Code    48  system_hc32l13x.o(i.SystemInit)
    TIM0_IRQHandler                          0x0000139d   Thumb Code     8  interrupts_hc32l13x.o(i.TIM0_IRQHandler)
    TIM1_IRQHandler                          0x000013a5   Thumb Code     8  interrupts_hc32l13x.o(i.TIM1_IRQHandler)
    TIM2_IRQHandler                          0x000013ad   Thumb Code     8  interrupts_hc32l13x.o(i.TIM2_IRQHandler)
    TIM3_IRQHandler                          0x000013b5   Thumb Code     8  interrupts_hc32l13x.o(i.TIM3_IRQHandler)
    TIM4_IRQHandler                          0x000013bd   Thumb Code     8  interrupts_hc32l13x.o(i.TIM4_IRQHandler)
    TIM5_IRQHandler                          0x000013c5   Thumb Code     8  interrupts_hc32l13x.o(i.TIM5_IRQHandler)
    TIM6_IRQHandler                          0x000013cd   Thumb Code     8  interrupts_hc32l13x.o(i.TIM6_IRQHandler)
    Tim0_IRQHandler                          0x000013d5   Thumb Code    30  mybt.o(i.Tim0_IRQHandler)
    UART0_IRQHandler                         0x000013f3   Thumb Code     8  interrupts_hc32l13x.o(i.UART0_IRQHandler)
    UART1_IRQHandler                         0x000013fb   Thumb Code     8  interrupts_hc32l13x.o(i.UART1_IRQHandler)
    VC0_IRQHandler                           0x00001403   Thumb Code     8  interrupts_hc32l13x.o(i.VC0_IRQHandler)
    VC1_IRQHandler                           0x0000140b   Thumb Code     8  interrupts_hc32l13x.o(i.VC1_IRQHandler)
    WDT_IRQHandler                           0x00001413   Thumb Code     8  interrupts_hc32l13x.o(i.WDT_IRQHandler)
    WDT_int                                  0x0000141b   Thumb Code    20  mywdt.o(i.WDT_int)
    Wdt_Feed                                 0x00001431   Thumb Code    12  wdt.o(i.Wdt_Feed)
    Wdt_Init                                 0x00001441   Thumb Code    30  wdt.o(i.Wdt_Init)
    Wdt_Start                                0x00001465   Thumb Code    12  wdt.o(i.Wdt_Start)
    Wdt_WriteWdtLoad                         0x00001475   Thumb Code    18  wdt.o(i.Wdt_WriteWdtLoad)
    __ARM_common_switch8                     0x000014a5   Thumb Code    26  adc.o(i.__ARM_common_switch8)
    __rt_ffs                                 0x000014c1   Thumb Code    60  kservice.o(i.__rt_ffs)
    __scatterload_copy                       0x00001501   Thumb Code    14  handlers.o(i.__scatterload_copy)
    __scatterload_null                       0x0000150f   Thumb Code     2  handlers.o(i.__scatterload_null)
    __scatterload_zeroinit                   0x00001511   Thumb Code    14  handlers.o(i.__scatterload_zeroinit)
    current_page                             0x000015d9   Thumb Code    20  myflash.o(i.current_page)
    ddl_memclr                               0x000015ed   Thumb Code    18  ddl.o(i.ddl_memclr)
    delay100us                               0x00001601   Thumb Code    54  ddl.o(i.delay100us)
    flash_eeprom_page_switch                 0x00001645   Thumb Code   166  myflash.o(i.flash_eeprom_page_switch)
    flash_eeprom_pwron_check                 0x000016eb   Thumb Code    48  myflash.o(i.flash_eeprom_pwron_check)
    flash_eeprom_update_active_address       0x0000171b   Thumb Code    34  myflash.o(i.flash_eeprom_update_active_address)
    gpio_adc_init                            0x0000173d   Thumb Code    20  mygpio.o(i.gpio_adc_init)
    gpio_io_init                             0x00001751   Thumb Code    64  mygpio.o(i.gpio_io_init)
    gpio_pcnt_init                           0x00001791   Thumb Code    46  mygpio.o(i.gpio_pcnt_init)
    gpio_tim0_init                           0x000017bf   Thumb Code    74  mygpio.o(i.gpio_tim0_init)
    gpio_uart_init                           0x00001809   Thumb Code    66  mygpio.o(i.gpio_uart_init)
    $Super$$main                             0x0000184d   Thumb Code   118  main.o(i.main)
    main_thread_entry                        0x00001915   Thumb Code    12  components.o(i.main_thread_entry)
    my_adc_init                              0x00001921   Thumb Code   116  myadc.o(i.my_adc_init)
    my_eeprom_init                           0x00001995   Thumb Code    44  myflash.o(i.my_eeprom_init)
    my_flash_init                            0x000019c1   Thumb Code    20  myflash.o(i.my_flash_init)
    my_pcnt_init                             0x000019d5   Thumb Code   106  mypcnt.o(i.my_pcnt_init)
    my_timer0_mode2_cfg                      0x00001a3f   Thumb Code   188  mybt.o(i.my_timer0_mode2_cfg)
    mygpio_init                              0x00001afb   Thumb Code    24  mygpio.o(i.mygpio_init)
    myuart_init                              0x00001b15   Thumb Code    94  myuart.o(i.myuart_init)
    rt_application_init                      0x00001d15   Thumb Code    30  components.o(i.rt_application_init)
    rt_components_board_init                 0x00001d41   Thumb Code    20  components.o(i.rt_components_board_init)
    rt_components_init                       0x00001d5d   Thumb Code    20  components.o(i.rt_components_init)
    rt_enter_critical                        0x00001d79   Thumb Code    20  scheduler.o(i.rt_enter_critical)
    rt_exit_critical                         0x00001d91   Thumb Code    46  scheduler.o(i.rt_exit_critical)
    rt_free                                  0x00001dc5   Thumb Code   110  mem.o(i.rt_free)
    rt_heap_begin_get                        0x00001e89   Thumb Code     4  board.o(i.rt_heap_begin_get)
    rt_heap_end_get                          0x00001e91   Thumb Code     4  board.o(i.rt_heap_end_get)
    rt_hw_board_init                         0x00001e99   Thumb Code    68  board.o(i.rt_hw_board_init)
    rt_hw_console_output                     0x00001eed   Thumb Code    42  kservice.o(i.rt_hw_console_output)
    rt_hw_hard_fault_exception               0x00001f19   Thumb Code    78  cpuport.o(i.rt_hw_hard_fault_exception)
    rt_hw_stack_init                         0x00002009   Thumb Code    50  cpuport.o(i.rt_hw_stack_init)
    rt_interrupt_enter                       0x00002041   Thumb Code    20  irq.o(i.rt_interrupt_enter)
    rt_interrupt_leave                       0x00002059   Thumb Code    20  irq.o(i.rt_interrupt_leave)
    rt_kprintf                               0x000020c1   Thumb Code    30  kservice.o(i.rt_kprintf)
    rt_malloc                                0x00002141   Thumb Code   222  mem.o(i.rt_malloc)
    rt_memset                                0x00002229   Thumb Code    62  kservice.o(i.rt_memset)
    rt_object_allocate                       0x00002267   Thumb Code    76  object.o(i.rt_object_allocate)
    rt_object_delete                         0x000022b3   Thumb Code    36  object.o(i.rt_object_delete)
    rt_object_detach                         0x000022d7   Thumb Code    30  object.o(i.rt_object_detach)
    rt_object_get_information                0x000022f5   Thumb Code    28  object.o(i.rt_object_get_information)
    rt_object_init                           0x00002315   Thumb Code    76  object.o(i.rt_object_init)
    rt_object_is_systemobject                0x00002361   Thumb Code    14  object.o(i.rt_object_is_systemobject)
    rt_schedule                              0x00002371   Thumb Code    90  scheduler.o(i.rt_schedule)
    rt_schedule_insert_thread                0x000023dd   Thumb Code    78  scheduler.o(i.rt_schedule_insert_thread)
    rt_schedule_remove_thread                0x00002439   Thumb Code    80  scheduler.o(i.rt_schedule_remove_thread)
    rt_sem_init                              0x00002495   Thumb Code    32  ipc.o(i.rt_sem_init)
    rt_sem_release                           0x000024b5   Thumb Code    54  ipc.o(i.rt_sem_release)
    rt_sem_take                              0x000024eb   Thumb Code   114  ipc.o(i.rt_sem_take)
    rt_show_version                          0x0000255d   Thumb Code    86  kservice.o(i.rt_show_version)
    rt_strlen                                0x00002735   Thumb Code    16  kservice.o(i.rt_strlen)
    rt_strncpy                               0x00002745   Thumb Code    40  kservice.o(i.rt_strncpy)
    rt_system_heap_init                      0x0000276d   Thumb Code    90  mem.o(i.rt_system_heap_init)
    rt_system_scheduler_init                 0x00002815   Thumb Code    54  scheduler.o(i.rt_system_scheduler_init)
    rt_system_scheduler_start                0x00002859   Thumb Code    44  scheduler.o(i.rt_system_scheduler_start)
    rt_system_timer_init                     0x00002891   Thumb Code     8  timer.o(i.rt_system_timer_init)
    rt_system_timer_thread_init              0x0000289d   Thumb Code     2  timer.o(i.rt_system_timer_thread_init)
    rt_thread_create                         0x0000289f   Thumb Code    64  thread.o(i.rt_thread_create)
    rt_thread_exit                           0x000028e1   Thumb Code    78  thread.o(i.rt_thread_exit)
    rt_thread_idle_excute                    0x00002941   Thumb Code   116  idle.o(i.rt_thread_idle_excute)
    rt_thread_idle_gethandler                0x000029b9   Thumb Code     4  idle.o(i.rt_thread_idle_gethandler)
    rt_thread_idle_init                      0x000029c1   Thumb Code    36  idle.o(i.rt_thread_idle_init)
    rt_thread_init                           0x000029f5   Thumb Code    42  thread.o(i.rt_thread_init)
    rt_thread_mdelay                         0x00002a1f   Thumb Code    12  thread.o(i.rt_thread_mdelay)
    rt_thread_resume                         0x00002a2b   Thumb Code    60  thread.o(i.rt_thread_resume)
    rt_thread_self                           0x00002a69   Thumb Code     6  thread.o(i.rt_thread_self)
    rt_thread_sleep                          0x00002a75   Thumb Code    60  thread.o(i.rt_thread_sleep)
    rt_thread_startup                        0x00002ab5   Thumb Code    54  thread.o(i.rt_thread_startup)
    rt_thread_suspend                        0x00002af1   Thumb Code    64  thread.o(i.rt_thread_suspend)
    rt_thread_timeout                        0x00002b31   Thumb Code    30  thread.o(i.rt_thread_timeout)
    rt_thread_yield                          0x00002b51   Thumb Code    84  thread.o(i.rt_thread_yield)
    rt_tick_from_millisecond                 0x00002bad   Thumb Code    46  clock.o(i.rt_tick_from_millisecond)
    rt_tick_get                              0x00002bdd   Thumb Code     6  clock.o(i.rt_tick_get)
    rt_tick_increase                         0x00002be9   Thumb Code    36  clock.o(i.rt_tick_increase)
    rt_timer_check                           0x00002c11   Thumb Code    92  timer.o(i.rt_timer_check)
    rt_timer_control                         0x00002c75   Thumb Code    50  timer.o(i.rt_timer_control)
    rt_timer_detach                          0x00002ca7   Thumb Code    32  timer.o(i.rt_timer_detach)
    rt_timer_init                            0x00002cc7   Thumb Code    38  timer.o(i.rt_timer_init)
    rt_timer_start                           0x00002ced   Thumb Code   134  timer.o(i.rt_timer_start)
    rt_timer_stop                            0x00002d7d   Thumb Code    46  timer.o(i.rt_timer_stop)
    rt_vsnprintf                             0x00002dad   Thumb Code   610  kservice.o(i.rt_vsnprintf)
    rtthread_startup                         0x00003029   Thumb Code    42  components.o(i.rtthread_startup)
    uart1_send2                              0x000030a1   Thumb Code    28  myuart.o(i.uart1_send2)
    pu32PcgTimer4M                           0x000030c0   Data          32  flash.o(.constdata)
    __lowest_bit_bitmap                      0x00003104   Data         256  kservice.o(.constdata)
    __rt_init_rti_start                      0x00003228   Data           4  components.o(.rti_fn.0)
    __rt_init_rti_board_start                0x0000322c   Data           4  components.o(.rti_fn.0.end)
    __rt_init_MyInit                         0x00003230   Data           4  myinit.o(.rti_fn.1)
    __rt_init_rti_board_end                  0x00003234   Data           4  components.o(.rti_fn.1.end)
    __rt_init_rti_end                        0x00003238   Data           4  components.o(.rti_fn.6.end)
    Region$$Table$$Base                      0x0000323c   Number         0  anon$$obj.o(Region$$Table)
    Region$$Table$$Limit                     0x0000325c   Number         0  anon$$obj.o(Region$$Table)
    SystemCoreClock                          0x20000000   Data           4  system_hc32l13x.o(.data)
    ch0                                      0x2000000c   Data           4  myadc.o(.data)
    ch1                                      0x20000010   Data           4  myadc.o(.data)
    my_pcnt_cycles                           0x20000014   Data           4  mypcnt.o(.data)
    key_value                                0x20000018   Data           1  main.o(.data)
    duty                                     0x20000019   Data           1  app_led_blink.o(.data)
    rt_interrupt_from_thread                 0x2000001c   Data           4  cpuport.o(.data)
    rt_interrupt_to_thread                   0x20000020   Data           4  cpuport.o(.data)
    rt_thread_switch_interrupt_flag          0x20000024   Data           4  cpuport.o(.data)
    rt_interrupt_nest                        0x2000002c   Data           1  irq.o(.data)
    rt_current_priority                      0x20000088   Data           1  scheduler.o(.data)
    rt_current_thread                        0x2000008c   Data           4  scheduler.o(.data)
    rt_thread_ready_priority_group           0x20000090   Data           4  scheduler.o(.data)
    rt_thread_defunct                        0x20000094   Data           8  scheduler.o(.data)
    my_systick                               0x200000a8   Data           4  board.o(.data)
    my_eeprom_handler                        0x20000174   Data          32  myflash.o(.bss)
    rt_thread_priority_table                 0x200004ac   Data         512  scheduler.o(.bss)
    rt_thread_ready_table                    0x200006ac   Data          32  scheduler.o(.bss)
    __initial_sp                             0x20001ed0   Data           0  startup_hc32l13x.o(STACK)



==============================================================================

Memory Map of the image

  Image Entry point : 0x000000c1

  Load Region LR_IROM1 (Base: 0x00000000, Size: 0x00003308, Max: 0x00010000, ABSOLUTE)

    Execution Region ER_IROM1 (Exec base: 0x00000000, Load base: 0x00000000, Size: 0x0000325c, Max: 0x00010000, ABSOLUTE)

    Exec Addr    Load Addr    Size         Type   Attr      Idx    E Section Name        Object

    0x00000000   0x00000000   0x000000c0   Data   RO          282    RESET               startup_hc32l13x.o
    0x000000c0   0x000000c0   0x00000000   Code   RO         3745  * .ARM.Collect$$$$00000000  mc_p.l(entry.o)
    0x000000c0   0x000000c0   0x00000004   Code   RO         3758    .ARM.Collect$$$$00000001  mc_p.l(entry2.o)
    0x000000c4   0x000000c4   0x00000004   Code   RO         3761    .ARM.Collect$$$$00000004  mc_p.l(entry5.o)
    0x000000c8   0x000000c8   0x00000000   Code   RO         3763    .ARM.Collect$$$$00000008  mc_p.l(entry7b.o)
    0x000000c8   0x000000c8   0x00000000   Code   RO         3765    .ARM.Collect$$$$0000000A  mc_p.l(entry8b.o)
    0x000000c8   0x000000c8   0x00000008   Code   RO         3766    .ARM.Collect$$$$0000000B  mc_p.l(entry9a.o)
    0x000000d0   0x000000d0   0x00000000   Code   RO         3768    .ARM.Collect$$$$0000000D  mc_p.l(entry10a.o)
    0x000000d0   0x000000d0   0x00000000   Code   RO         3770    .ARM.Collect$$$$0000000F  mc_p.l(entry11a.o)
    0x000000d0   0x000000d0   0x00000004   Code   RO         3759    .ARM.Collect$$$$00002712  mc_p.l(entry2.o)
    0x000000d4   0x000000d4   0x0000003c   Code   RO          283    .text               startup_hc32l13x.o
    0x00000110   0x00000110   0x000000d8   Code   RO         2795    .text               context_rvds.o
    0x000001e8   0x000001e8   0x0000002c   Code   RO         3748    .text               mc_p.l(uidiv.o)
    0x00000214   0x00000214   0x00000028   Code   RO         3750    .text               mc_p.l(idiv.o)
    0x0000023c   0x0000023c   0x00000024   Code   RO         3752    .text               mc_p.l(memcpya.o)
    0x00000260   0x00000260   0x00000024   Code   RO         3754    .text               mc_p.l(memseta.o)
    0x00000284   0x00000284   0x00000024   Code   RO         3772    .text               mc_p.l(init.o)
    0x000002a8   0x000002a8   0x0000000a   Code   RO         2867    i.$Sub$$main        components.o
    0x000002b2   0x000002b2   0x00000008   Code   RO            3    i.ADC_IRQHandler    interrupts_hc32l13x.o
    0x000002ba   0x000002ba   0x00000002   PAD
    0x000002bc   0x000002bc   0x00000010   Code   RO          293    i.Adc_ClrIrqStatus  adc.o
    0x000002cc   0x000002cc   0x00000010   Code   RO          296    i.Adc_Enable        adc.o
    0x000002dc   0x000002dc   0x00000010   Code   RO          297    i.Adc_EnableIrq     adc.o
    0x000002ec   0x000002ec   0x00000014   Code   RO          299    i.Adc_GetIrqStatus  adc.o
    0x00000300   0x00000300   0x0000000c   Code   RO          302    i.Adc_GetSqrResult  adc.o
    0x0000030c   0x0000030c   0x00000034   Code   RO         2366    i.Adc_IRQHandler    myadc.o
    0x00000340   0x00000340   0x00000058   Code   RO          303    i.Adc_Init          adc.o
    0x00000398   0x00000398   0x0000000c   Code   RO          310    i.Adc_SQR_Start     adc.o
    0x000003a4   0x000003a4   0x00000060   Code   RO          314    i.Adc_SqrModeCfg    adc.o
    0x00000404   0x00000404   0x00000090   Code   RO         2756    i.App_Breath        app_breath.o
    0x00000494   0x00000494   0x00000028   Code   RO         2771    i.App_LED_Blink     app_led_blink.o
    0x000004bc   0x000004bc   0x00000018   Code   RO         1517    i.Bgr_BgrEnable     bgr.o
    0x000004d4   0x000004d4   0x00000018   Code   RO         1519    i.Bgr_TempSensorEnable  bgr.o
    0x000004ec   0x000004ec   0x00000018   Code   RO          499    i.Bt_ClearIntFlag   bt.o
    0x00000504   0x00000504   0x00000014   Code   RO          500    i.Bt_GetIntFlag     bt.o
    0x00000518   0x00000518   0x00000018   Code   RO          508    i.Bt_M0_Stop        bt.o
    0x00000530   0x00000530   0x0000002c   Code   RO          516    i.Bt_M23_ARRSet     bt.o
    0x0000055c   0x0000055c   0x00000034   Code   RO          519    i.Bt_M23_CCR_Set    bt.o
    0x00000590   0x00000590   0x0000001c   Code   RO          521    i.Bt_M23_Cnt16Set   bt.o
    0x000005ac   0x000005ac   0x00000030   Code   RO          525    i.Bt_M23_EnPWM_Output  bt.o
    0x000005dc   0x000005dc   0x00000054   Code   RO          532    i.Bt_M23_MasterSlave_Set  bt.o
    0x00000630   0x00000630   0x000000a4   Code   RO          535    i.Bt_M23_PortOutput_Cfg  bt.o
    0x000006d4   0x000006d4   0x00000018   Code   RO          536    i.Bt_M23_Run        bt.o
    0x000006ec   0x000006ec   0x0000009c   Code   RO          548    i.Bt_Mode23_Init    bt.o
    0x00000788   0x00000788   0x00000010   Code   RO         2211    i.BufferNext        myuart.o
    0x00000798   0x00000798   0x00000008   Code   RO            4    i.CLKTRIM_IRQHandler  interrupts_hc32l13x.o
    0x000007a0   0x000007a0   0x00000008   Code   RO            5    i.DMAC_IRQHandler   interrupts_hc32l13x.o
    0x000007a8   0x000007a8   0x00000080   Code   RO            6    i.EnableNvic        interrupts_hc32l13x.o
    0x00000828   0x00000828   0x0000000c   Code   RO            7    i.FLASH_RAM_IRQHandler  interrupts_hc32l13x.o
    0x00000834   0x00000834   0x000000a4   Code   RO          961    i.Flash_Init        flash.o
    0x000008d8   0x000008d8   0x0000001c   Code   RO          962    i.Flash_LockAll     flash.o
    0x000008f4   0x000008f4   0x00000084   Code   RO          964    i.Flash_SectorErase  flash.o
    0x00000978   0x00000978   0x00000020   Code   RO          965    i.Flash_UnlockAll   flash.o
    0x00000998   0x00000998   0x0000002c   Code   RO          966    i.Flash_WaitCycle   flash.o
    0x000009c4   0x000009c4   0x00000088   Code   RO          967    i.Flash_WriteByte   flash.o
    0x00000a4c   0x00000a4c   0x00000088   Code   RO          969    i.Flash_WriteWord   flash.o
    0x00000ad4   0x00000ad4   0x0000000a   Code   RO          832    i.GetBit            ddl.o
    0x00000ade   0x00000ade   0x00000002   PAD
    0x00000ae0   0x00000ae0   0x00000014   Code   RO         1344    i.Gpio_ClrIO        gpio.o
    0x00000af4   0x00000af4   0x00000010   Code   RO         1349    i.Gpio_GetInputIO   gpio.o
    0x00000b04   0x00000b04   0x00000088   Code   RO         1351    i.Gpio_Init         gpio.o
    0x00000b8c   0x00000b8c   0x00000014   Code   RO         1353    i.Gpio_SetAfMode    gpio.o
    0x00000ba0   0x00000ba0   0x00000014   Code   RO         1354    i.Gpio_SetAnalogMode  gpio.o
    0x00000bb4   0x00000bb4   0x00000014   Code   RO         1356    i.Gpio_SetIO        gpio.o
    0x00000bc8   0x00000bc8   0x00000008   Code   RO            8    i.I2C0_IRQHandler   interrupts_hc32l13x.o
    0x00000bd0   0x00000bd0   0x00000008   Code   RO            9    i.I2C1_IRQHandler   interrupts_hc32l13x.o
    0x00000bd8   0x00000bd8   0x00000008   Code   RO           10    i.LCD_IRQHandler    interrupts_hc32l13x.o
    0x00000be0   0x00000be0   0x00000008   Code   RO           11    i.LPTIM_IRQHandler  interrupts_hc32l13x.o
    0x00000be8   0x00000be8   0x00000008   Code   RO           12    i.LPUART0_IRQHandler  interrupts_hc32l13x.o
    0x00000bf0   0x00000bf0   0x00000008   Code   RO           13    i.LPUART1_IRQHandler  interrupts_hc32l13x.o
    0x00000bf8   0x00000bf8   0x0000000e   Code   RO         1558    i.LPUart_ClrStatus  lpuart.o
    0x00000c06   0x00000c06   0x0000000e   Code   RO         1561    i.LPUart_EnableFunc  lpuart.o
    0x00000c14   0x00000c14   0x0000000e   Code   RO         1562    i.LPUart_EnableIrq  lpuart.o
    0x00000c22   0x00000c22   0x0000000a   Code   RO         1565    i.LPUart_GetStatus  lpuart.o
    0x00000c2c   0x00000c2c   0x00000064   Code   RO         1566    i.LPUart_Init       lpuart.o
    0x00000c90   0x00000c90   0x00000006   Code   RO         1567    i.LPUart_ReceiveData  lpuart.o
    0x00000c96   0x00000c96   0x00000008   Code   RO           14    i.LVD_IRQHandler    interrupts_hc32l13x.o
    0x00000c9e   0x00000c9e   0x00000002   PAD
    0x00000ca0   0x00000ca0   0x0000001c   Code   RO         2530    i.LpTim_IRQHandler  mytimer.o
    0x00000cbc   0x00000cbc   0x00000044   Code   RO         2212    i.LpUart1_IRQHandler  myuart.o
    0x00000d00   0x00000d00   0x0000000e   Code   RO         1088    i.Lptim_ClrItStatus  lptim.o
    0x00000d0e   0x00000d0e   0x0000000c   Code   RO         1091    i.Lptim_GetItStatus  lptim.o
    0x00000d1a   0x00000d1a   0x00000002   PAD
    0x00000d1c   0x00000d1c   0x00000010   Code   RO         1808    i.Lvd_ClearIrq      lvd.o
    0x00000d2c   0x00000d2c   0x00000008   Code   RO         2471    i.Lvd_IRQHandler    mylvd.o
    0x00000d34   0x00000d34   0x00000020   Code   RO         2367    i.MyAdcSQRCfg       myadc.o
    0x00000d54   0x00000d54   0x0000003c   Code   RO         2138    i.MyInit            myinit.o
    0x00000d90   0x00000d90   0x00000008   Code   RO           15    i.PCA_IRQHandler    interrupts_hc32l13x.o
    0x00000d98   0x00000d98   0x00000008   Code   RO           16    i.PCNT_IRQHandler   interrupts_hc32l13x.o
    0x00000da0   0x00000da0   0x0000001c   Code   RO         2437    i.PORTA_IRQHandler  mykey.o
    0x00000dbc   0x00000dbc   0x00000014   Code   RO         1943    i.Pcnt_ClrItStatus  pcnt.o
    0x00000dd0   0x00000dd0   0x0000001c   Code   RO         1944    i.Pcnt_Cmd          pcnt.o
    0x00000dec   0x00000dec   0x0000000c   Code   RO         1946    i.Pcnt_GetCnt       pcnt.o
    0x00000df8   0x00000df8   0x00000010   Code   RO         1947    i.Pcnt_GetItStatus  pcnt.o
    0x00000e08   0x00000e08   0x0000009c   Code   RO         2693    i.Pcnt_IRQHandler   mypcnt.o
    0x00000ea4   0x00000ea4   0x000000c4   Code   RO         1949    i.Pcnt_Init         pcnt.o
    0x00000f68   0x00000f68   0x00000020   Code   RO         1950    i.Pcnt_ItCfg        pcnt.o
    0x00000f88   0x00000f88   0x00000034   Code   RO         1951    i.Pcnt_SetB2C       pcnt.o
    0x00000fbc   0x00000fbc   0x00000034   Code   RO         1952    i.Pcnt_SetB2T       pcnt.o
    0x00000ff0   0x00000ff0   0x00000008   Code   RO           17    i.RTC_IRQHandler    interrupts_hc32l13x.o
    0x00000ff8   0x00000ff8   0x00000014   Code   RO         1681    i.Rtc_ClearPrdfItStatus  rtc.o
    0x0000100c   0x0000100c   0x00000010   Code   RO         1686    i.Rtc_GetPridItStatus  rtc.o
    0x0000101c   0x0000101c   0x00000014   Code   RO         2500    i.Rtc_IRQHandler    myrtc.o
    0x00001030   0x00001030   0x00000008   Code   RO           18    i.SPI0_IRQHandler   interrupts_hc32l13x.o
    0x00001038   0x00001038   0x00000008   Code   RO           19    i.SPI1_IRQHandler   interrupts_hc32l13x.o
    0x00001040   0x00001040   0x00000014   Code   RO          836    i.SetBit            ddl.o
    0x00001054   0x00001054   0x0000004e   Code   RO         2438    i.Simple_Delay      mykey.o
    0x000010a2   0x000010a2   0x00000002   PAD
    0x000010a4   0x000010a4   0x0000001c   Code   RO         3705    i.SysTick_Handler   board.o
    0x000010c0   0x000010c0   0x000000c4   Code   RO         1137    i.Sysctrl_ClkSourceEnable  sysctrl.o
    0x00001184   0x00001184   0x0000013c   Code   RO         1138    i.Sysctrl_GetHClkFreq  sysctrl.o
    0x000012c0   0x000012c0   0x00000018   Code   RO         1139    i.Sysctrl_GetPClkFreq  sysctrl.o
    0x000012d8   0x000012d8   0x00000014   Code   RO         1146    i.Sysctrl_SetPeripheralGate  sysctrl.o
    0x000012ec   0x000012ec   0x00000024   Code   RO         1147    i.Sysctrl_SetRCHTrim  sysctrl.o
    0x00001310   0x00001310   0x00000024   Code   RO         1149    i.Sysctrl_SetRCLTrim  sysctrl.o
    0x00001334   0x00001334   0x00000028   Code   RO         1154    i.Sysctrl_SysClkSwitch  sysctrl.o
    0x0000135c   0x0000135c   0x00000010   Code   RO          247    i.SystemCoreClockUpdate  system_hc32l13x.o
    0x0000136c   0x0000136c   0x00000030   Code   RO          248    i.SystemInit        system_hc32l13x.o
    0x0000139c   0x0000139c   0x00000008   Code   RO           20    i.TIM0_IRQHandler   interrupts_hc32l13x.o
    0x000013a4   0x000013a4   0x00000008   Code   RO           21    i.TIM1_IRQHandler   interrupts_hc32l13x.o
    0x000013ac   0x000013ac   0x00000008   Code   RO           22    i.TIM2_IRQHandler   interrupts_hc32l13x.o
    0x000013b4   0x000013b4   0x00000008   Code   RO           23    i.TIM3_IRQHandler   interrupts_hc32l13x.o
    0x000013bc   0x000013bc   0x00000008   Code   RO           24    i.TIM4_IRQHandler   interrupts_hc32l13x.o
    0x000013c4   0x000013c4   0x00000008   Code   RO           25    i.TIM5_IRQHandler   interrupts_hc32l13x.o
    0x000013cc   0x000013cc   0x00000008   Code   RO           26    i.TIM6_IRQHandler   interrupts_hc32l13x.o
    0x000013d4   0x000013d4   0x0000001e   Code   RO         2328    i.Tim0_IRQHandler   mybt.o
    0x000013f2   0x000013f2   0x00000008   Code   RO           27    i.UART0_IRQHandler  interrupts_hc32l13x.o
    0x000013fa   0x000013fa   0x00000008   Code   RO           28    i.UART1_IRQHandler  interrupts_hc32l13x.o
    0x00001402   0x00001402   0x00000008   Code   RO           29    i.VC0_IRQHandler    interrupts_hc32l13x.o
    0x0000140a   0x0000140a   0x00000008   Code   RO           30    i.VC1_IRQHandler    interrupts_hc32l13x.o
    0x00001412   0x00001412   0x00000008   Code   RO           31    i.WDT_IRQHandler    interrupts_hc32l13x.o
    0x0000141a   0x0000141a   0x00000014   Code   RO         2566    i.WDT_int           mywdt.o
    0x0000142e   0x0000142e   0x00000002   PAD
    0x00001430   0x00001430   0x00000010   Code   RO         1278    i.Wdt_Feed          wdt.o
    0x00001440   0x00001440   0x00000024   Code   RO         1280    i.Wdt_Init          wdt.o
    0x00001464   0x00001464   0x00000010   Code   RO         1284    i.Wdt_Start         wdt.o
    0x00001474   0x00001474   0x00000018   Code   RO         1285    i.Wdt_WriteWdtLoad  wdt.o
    0x0000148c   0x0000148c   0x00000018   Code   RO         1157    i._SysctrlUnlock    sysctrl.o
    0x000014a4   0x000014a4   0x0000001a   Code   RO          460    i.__ARM_common_switch8  adc.o
    0x000014be   0x000014be   0x00000002   PAD
    0x000014c0   0x000014c0   0x00000040   Code   RO         3123    i.__rt_ffs          kservice.o
    0x00001500   0x00001500   0x0000000e   Code   RO         3776    i.__scatterload_copy  mc_p.l(handlers.o)
    0x0000150e   0x0000150e   0x00000002   Code   RO         3777    i.__scatterload_null  mc_p.l(handlers.o)
    0x00001510   0x00001510   0x0000000e   Code   RO         3778    i.__scatterload_zeroinit  mc_p.l(handlers.o)
    0x0000151e   0x0000151e   0x00000002   PAD
    0x00001520   0x00001520   0x00000014   Code   RO         2934    i._has_defunct_thread  idle.o
    0x00001534   0x00001534   0x00000074   Code   RO         3490    i._rt_thread_init   thread.o
    0x000015a8   0x000015a8   0x0000001c   Code   RO         3611    i._rt_timer_init    timer.o
    0x000015c4   0x000015c4   0x00000014   Code   RO         3612    i._rt_timer_remove  timer.o
    0x000015d8   0x000015d8   0x00000014   Code   RO         2589    i.current_page      myflash.o
    0x000015ec   0x000015ec   0x00000012   Code   RO          840    i.ddl_memclr        ddl.o
    0x000015fe   0x000015fe   0x00000002   PAD
    0x00001600   0x00001600   0x00000044   Code   RO          841    i.delay100us        ddl.o
    0x00001644   0x00001644   0x000000a6   Code   RO         2591    i.flash_eeprom_page_switch  myflash.o
    0x000016ea   0x000016ea   0x00000030   Code   RO         2592    i.flash_eeprom_pwron_check  myflash.o
    0x0000171a   0x0000171a   0x00000022   Code   RO         2594    i.flash_eeprom_update_active_address  myflash.o
    0x0000173c   0x0000173c   0x00000014   Code   RO         2272    i.gpio_adc_init     mygpio.o
    0x00001750   0x00001750   0x00000040   Code   RO         2273    i.gpio_io_init      mygpio.o
    0x00001790   0x00001790   0x0000002e   Code   RO         2274    i.gpio_pcnt_init    mygpio.o
    0x000017be   0x000017be   0x0000004a   Code   RO         2275    i.gpio_tim0_init    mygpio.o
    0x00001808   0x00001808   0x00000042   Code   RO         2277    i.gpio_uart_init    mygpio.o
    0x0000184a   0x0000184a   0x00000002   PAD
    0x0000184c   0x0000184c   0x000000c8   Code   RO         2722    i.main              main.o
    0x00001914   0x00001914   0x0000000c   Code   RO         2868    i.main_thread_entry  components.o
    0x00001920   0x00001920   0x00000074   Code   RO         2368    i.my_adc_init       myadc.o
    0x00001994   0x00001994   0x0000002c   Code   RO         2597    i.my_eeprom_init    myflash.o
    0x000019c0   0x000019c0   0x00000014   Code   RO         2600    i.my_flash_init     myflash.o
    0x000019d4   0x000019d4   0x0000006a   Code   RO         2694    i.my_pcnt_init      mypcnt.o
    0x00001a3e   0x00001a3e   0x000000bc   Code   RO         2330    i.my_timer0_mode2_cfg  mybt.o
    0x00001afa   0x00001afa   0x00000018   Code   RO         2278    i.mygpio_init       mygpio.o
    0x00001b12   0x00001b12   0x00000002   PAD
    0x00001b14   0x00001b14   0x00000064   Code   RO         2214    i.myuart_init       myuart.o
    0x00001b78   0x00001b78   0x00000058   Code   RO         3303    i.plug_holes        mem.o
    0x00001bd0   0x00001bd0   0x00000144   Code   RO         3125    i.print_number      kservice.o
    0x00001d14   0x00001d14   0x0000002c   Code   RO         2869    i.rt_application_init  components.o
    0x00001d40   0x00001d40   0x0000001c   Code   RO         2870    i.rt_components_board_init  components.o
    0x00001d5c   0x00001d5c   0x0000001c   Code   RO         2871    i.rt_components_init  components.o
    0x00001d78   0x00001d78   0x00000018   Code   RO         3429    i.rt_enter_critical  scheduler.o
    0x00001d90   0x00001d90   0x00000034   Code   RO         3430    i.rt_exit_critical  scheduler.o
    0x00001dc4   0x00001dc4   0x000000c4   Code   RO         3305    i.rt_free           mem.o
    0x00001e88   0x00001e88   0x00000008   Code   RO         3706    i.rt_heap_begin_get  board.o
    0x00001e90   0x00001e90   0x00000008   Code   RO         3707    i.rt_heap_end_get   board.o
    0x00001e98   0x00001e98   0x00000054   Code   RO         3708    i.rt_hw_board_init  board.o
    0x00001eec   0x00001eec   0x0000002a   Code   RO         3128    i.rt_hw_console_output  kservice.o
    0x00001f16   0x00001f16   0x00000002   PAD
    0x00001f18   0x00001f18   0x000000f0   Code   RO         2800    i.rt_hw_hard_fault_exception  cpuport.o
    0x00002008   0x00002008   0x00000038   Code   RO         2801    i.rt_hw_stack_init  cpuport.o
    0x00002040   0x00002040   0x00000018   Code   RO         3094    i.rt_interrupt_enter  irq.o
    0x00002058   0x00002058   0x00000018   Code   RO         3096    i.rt_interrupt_leave  irq.o
    0x00002070   0x00002070   0x0000004e   Code   RO         2975    i.rt_ipc_list_suspend  ipc.o
    0x000020be   0x000020be   0x00000002   PAD
    0x000020c0   0x000020c0   0x00000024   Code   RO         3129    i.rt_kprintf        kservice.o
    0x000020e4   0x000020e4   0x0000000e   Code   RO         3353    i.rt_list_insert_after  object.o
    0x000020f2   0x000020f2   0x0000000e   Code   RO         3491    i.rt_list_insert_after  thread.o
    0x00002100   0x00002100   0x0000000e   Code   RO         3613    i.rt_list_insert_after  timer.o
    0x0000210e   0x0000210e   0x0000000e   Code   RO         2976    i.rt_list_insert_before  ipc.o
    0x0000211c   0x0000211c   0x00000012   Code   RO         3354    i.rt_list_remove    object.o
    0x0000212e   0x0000212e   0x00000012   Code   RO         3492    i.rt_list_remove    thread.o
    0x00002140   0x00002140   0x000000e8   Code   RO         3306    i.rt_malloc         mem.o
    0x00002228   0x00002228   0x0000003e   Code   RO         3135    i.rt_memset         kservice.o
    0x00002266   0x00002266   0x0000004c   Code   RO         3355    i.rt_object_allocate  object.o
    0x000022b2   0x000022b2   0x00000024   Code   RO         3356    i.rt_object_delete  object.o
    0x000022d6   0x000022d6   0x0000001e   Code   RO         3357    i.rt_object_detach  object.o
    0x000022f4   0x000022f4   0x00000020   Code   RO         3359    i.rt_object_get_information  object.o
    0x00002314   0x00002314   0x0000004c   Code   RO         3361    i.rt_object_init    object.o
    0x00002360   0x00002360   0x0000000e   Code   RO         3362    i.rt_object_is_systemobject  object.o
    0x0000236e   0x0000236e   0x00000002   PAD
    0x00002370   0x00002370   0x0000006c   Code   RO         3431    i.rt_schedule       scheduler.o
    0x000023dc   0x000023dc   0x0000005c   Code   RO         3432    i.rt_schedule_insert_thread  scheduler.o
    0x00002438   0x00002438   0x0000005c   Code   RO         3433    i.rt_schedule_remove_thread  scheduler.o
    0x00002494   0x00002494   0x00000020   Code   RO         2989    i.rt_sem_init       ipc.o
    0x000024b4   0x000024b4   0x00000036   Code   RO         2990    i.rt_sem_release    ipc.o
    0x000024ea   0x000024ea   0x00000072   Code   RO         2991    i.rt_sem_take       ipc.o
    0x0000255c   0x0000255c   0x000001d8   Code   RO         3137    i.rt_show_version   kservice.o
    0x00002734   0x00002734   0x00000010   Code   RO         3143    i.rt_strlen         kservice.o
    0x00002744   0x00002744   0x00000028   Code   RO         3145    i.rt_strncpy        kservice.o
    0x0000276c   0x0000276c   0x000000a8   Code   RO         3309    i.rt_system_heap_init  mem.o
    0x00002814   0x00002814   0x00000044   Code   RO         3434    i.rt_system_scheduler_init  scheduler.o
    0x00002858   0x00002858   0x00000038   Code   RO         3435    i.rt_system_scheduler_start  scheduler.o
    0x00002890   0x00002890   0x0000000c   Code   RO         3614    i.rt_system_timer_init  timer.o
    0x0000289c   0x0000289c   0x00000002   Code   RO         3615    i.rt_system_timer_thread_init  timer.o
    0x0000289e   0x0000289e   0x00000040   Code   RO         3494    i.rt_thread_create  thread.o
    0x000028de   0x000028de   0x00000002   PAD
    0x000028e0   0x000028e0   0x00000058   Code   RO         3498    i.rt_thread_exit    thread.o
    0x00002938   0x00002938   0x00000006   Code   RO         2935    i.rt_thread_idle_entry  idle.o
    0x0000293e   0x0000293e   0x00000002   PAD
    0x00002940   0x00002940   0x00000078   Code   RO         2936    i.rt_thread_idle_excute  idle.o
    0x000029b8   0x000029b8   0x00000008   Code   RO         2937    i.rt_thread_idle_gethandler  idle.o
    0x000029c0   0x000029c0   0x00000034   Code   RO         2938    i.rt_thread_idle_init  idle.o
    0x000029f4   0x000029f4   0x0000002a   Code   RO         3500    i.rt_thread_init    thread.o
    0x00002a1e   0x00002a1e   0x0000000c   Code   RO         3501    i.rt_thread_mdelay  thread.o
    0x00002a2a   0x00002a2a   0x0000003c   Code   RO         3502    i.rt_thread_resume  thread.o
    0x00002a66   0x00002a66   0x00000002   PAD
    0x00002a68   0x00002a68   0x0000000c   Code   RO         3503    i.rt_thread_self    thread.o
    0x00002a74   0x00002a74   0x00000040   Code   RO         3504    i.rt_thread_sleep   thread.o
    0x00002ab4   0x00002ab4   0x0000003c   Code   RO         3505    i.rt_thread_startup  thread.o
    0x00002af0   0x00002af0   0x00000040   Code   RO         3506    i.rt_thread_suspend  thread.o
    0x00002b30   0x00002b30   0x0000001e   Code   RO         3507    i.rt_thread_timeout  thread.o
    0x00002b4e   0x00002b4e   0x00000002   PAD
    0x00002b50   0x00002b50   0x0000005c   Code   RO         3508    i.rt_thread_yield   thread.o
    0x00002bac   0x00002bac   0x0000002e   Code   RO         2830    i.rt_tick_from_millisecond  clock.o
    0x00002bda   0x00002bda   0x00000002   PAD
    0x00002bdc   0x00002bdc   0x0000000c   Code   RO         2831    i.rt_tick_get       clock.o
    0x00002be8   0x00002be8   0x00000028   Code   RO         2832    i.rt_tick_increase  clock.o
    0x00002c10   0x00002c10   0x00000064   Code   RO         3616    i.rt_timer_check    timer.o
    0x00002c74   0x00002c74   0x00000032   Code   RO         3617    i.rt_timer_control  timer.o
    0x00002ca6   0x00002ca6   0x00000020   Code   RO         3620    i.rt_timer_detach   timer.o
    0x00002cc6   0x00002cc6   0x00000026   Code   RO         3621    i.rt_timer_init     timer.o
    0x00002cec   0x00002cec   0x00000090   Code   RO         3623    i.rt_timer_start    timer.o
    0x00002d7c   0x00002d7c   0x0000002e   Code   RO         3624    i.rt_timer_stop     timer.o
    0x00002daa   0x00002daa   0x00000002   PAD
    0x00002dac   0x00002dac   0x0000026c   Code   RO         3148    i.rt_vsnprintf      kservice.o
    0x00003018   0x00003018   0x00000004   Code   RO         2872    i.rti_board_end     components.o
    0x0000301c   0x0000301c   0x00000004   Code   RO         2873    i.rti_board_start   components.o
    0x00003020   0x00003020   0x00000004   Code   RO         2874    i.rti_end           components.o
    0x00003024   0x00003024   0x00000004   Code   RO         2875    i.rti_start         components.o
    0x00003028   0x00003028   0x0000002a   Code   RO         2876    i.rtthread_startup  components.o
    0x00003052   0x00003052   0x00000020   Code   RO         3150    i.skip_atoi         kservice.o
    0x00003072   0x00003072   0x00000002   PAD
    0x00003074   0x00003074   0x0000002c   Code   RO         2723    i.thread1_entry     main.o
    0x000030a0   0x000030a0   0x00000020   Code   RO         2217    i.uart1_send2       myuart.o
    0x000030c0   0x000030c0   0x00000020   Data   RO          970    .constdata          flash.o
    0x000030e0   0x000030e0   0x00000018   Data   RO         1158    .constdata          sysctrl.o
    0x000030f8   0x000030f8   0x0000000c   Data   RO         1574    .constdata          lpuart.o
    0x00003104   0x00003104   0x00000122   Data   RO         3152    .constdata          kservice.o
    0x00003226   0x00003226   0x00000002   PAD
    0x00003228   0x00003228   0x00000004   Data   RO         2877    .rti_fn.0           components.o
    0x0000322c   0x0000322c   0x00000004   Data   RO         2878    .rti_fn.0.end       components.o
    0x00003230   0x00003230   0x00000004   Data   RO         2139    .rti_fn.1           myinit.o
    0x00003234   0x00003234   0x00000004   Data   RO         2879    .rti_fn.1.end       components.o
    0x00003238   0x00003238   0x00000004   Data   RO         2880    .rti_fn.6.end       components.o
    0x0000323c   0x0000323c   0x00000020   Data   RO         3774    Region$$Table       anon$$obj.o


    Execution Region RW_IRAM1 (Exec base: 0x20000000, Load base: 0x0000325c, Size: 0x00001ed0, Max: 0x00002000, ABSOLUTE)

    Exec Addr    Load Addr    Size         Type   Attr      Idx    E Section Name        Object

    0x20000000   0x0000325c   0x00000004   Data   RW          249    .data               system_hc32l13x.o
    0x20000004   0x00003260   0x00000008   Data   RW         2219    .data               myuart.o
    0x2000000c   0x00003268   0x00000008   Data   RW         2369    .data               myadc.o
    0x20000014   0x00003270   0x00000004   Data   RW         2695    .data               mypcnt.o
    0x20000018   0x00003274   0x00000001   Data   RW         2725    .data               main.o
    0x20000019   0x00003275   0x00000001   Data   RW         2772    .data               app_led_blink.o
    0x2000001a   0x00003276   0x00000002   PAD
    0x2000001c   0x00003278   0x00000004   Data   RW         2802    .data               cpuport.o
    0x20000020   0x0000327c   0x00000004   Data   RW         2803    .data               cpuport.o
    0x20000024   0x00003280   0x00000004   Data   RW         2804    .data               cpuport.o
    0x20000028   0x00003284   0x00000004   Data   RW         2834    .data               clock.o
    0x2000002c   0x00003288   0x00000001   Data   RW         3097    .data               irq.o
    0x2000002d   0x00003289   0x00000003   PAD
    0x20000030   0x0000328c   0x00000018   Data   RW         3311    .data               mem.o
    0x20000048   0x000032a4   0x00000040   Data   RW         3364    .data               object.o
    0x20000088   0x000032e4   0x00000014   Data   RW         3437    .data               scheduler.o
    0x2000009c   0x000032f8   0x0000000c   Data   RW         3625    .data               timer.o
    0x200000a8   0x00003304   0x00000004   Data   RW         3710    .data               board.o
    0x200000ac        -       0x000000c8   Zero   RW         2218    .bss                myuart.o
    0x20000174        -       0x00000020   Zero   RW         2602    .bss                myflash.o
    0x20000194        -       0x000000fc   Zero   RW         2724    .bss                main.o
    0x20000290        -       0x0000017c   Zero   RW         2939    .bss                idle.o
    0x2000040c        -       0x00000080   Zero   RW         3151    .bss                kservice.o
    0x2000048c        -       0x00000020   Zero   RW         3310    .bss                mem.o
    0x200004ac        -       0x00000220   Zero   RW         3436    .bss                scheduler.o
    0x200006cc        -       0x00001000   Zero   RW         3709    .bss                board.o
    0x200016cc   0x00003308   0x00000004   PAD
    0x200016d0        -       0x00000800   Zero   RW          280    STACK               startup_hc32l13x.o


==============================================================================

Image component sizes


      Code (inc. data)   RO Data    RW Data    ZI Data      Debug   Object Name

       302         38          0          0          0      13762   adc.o
       144          6          0          0          0        685   app_breath.o
        40          4          0          1          0        695   app_led_blink.o
        48          8          0          0          0        891   bgr.o
       128         28          0          4       4096       3052   board.o
       668         50          0          0          0      13031   bt.o
        98         10          0          4          0       1784   clock.o
       180         30         16          0          0       5642   components.o
       216         32          0          0          0        792   context_rvds.o
       296        168          0         12          0       3038   cpuport.o
       116         14          0          0          0       2651   ddl.o
       672        106         32          0          0       6052   flash.o
       232         34          0          0          0       6790   gpio.o
       206         28          0          0        380       5914   idle.o
       356         18          0          0          0     146430   interrupts_hc32l13x.o
       292          0          0          0          0       6549   ipc.o
        48          8          0          1          0       1582   irq.o
      1708        410        290          0        128      11115   kservice.o
        26          0          0          0          0       2044   lptim.o
       158          6         12          0          0       5276   lpuart.o
        16          4          0          0          0        411   lvd.o
       244         86          0          1        252       1784   main.o
       684        180          0         24         32       3812   mem.o
       200         12          0          8          0       2071   myadc.o
       218          0          0          0          0       1100   mybt.o
       332          0          0          0         32       6179   myflash.o
       294          0          0          0          0       3136   mygpio.o
        60          4          4          0          0       2636   myinit.o
       106          6          0          0          0       1306   mykey.o
         8          0          0          0          0        433   mylvd.o
       262          4          0          4          0       1358   mypcnt.o
        20          0          0          0          0        445   myrtc.o
        28          6          0          0          0        447   mytimer.o
       216         22          0          8        200       2625   myuart.o
        20          0          0          0          0        422   mywdt.o
       296          4          0         64          0       8172   object.o
       408         38          0          0          0       5476   pcnt.o
        36         10          0          0          0        914   rtc.o
       492         80          0         20        544       8016   scheduler.o
        60         22        192          0       2048        616   startup_hc32l13x.o
       692         88         24          0          0       6625   sysctrl.o
        64          4          0          4          0       1583   system_hc32l13x.o
       736         42          0          0          0      11084   thread.o
       486         22          0         12          0       9984   timer.o
        92         20          0          0          0       2669   wdt.o

    ----------------------------------------------------------------------
     12044       1652        604        172       7716     321079   Object Totals
         0          0         32          0          0          0   (incl. Generated)
        40          0          2          5          4          0   (incl. Padding)

    ----------------------------------------------------------------------

      Code (inc. data)   RO Data    RW Data    ZI Data      Debug   Library Member Name

         0          0          0          0          0          0   entry.o
         0          0          0          0          0          0   entry10a.o
         0          0          0          0          0          0   entry11a.o
         8          4          0          0          0          0   entry2.o
         4          0          0          0          0          0   entry5.o
         0          0          0          0          0          0   entry7b.o
         0          0          0          0          0          0   entry8b.o
         8          4          0          0          0          0   entry9a.o
        30          0          0          0          0          0   handlers.o
        40          0          0          0          0         72   idiv.o
        36          8          0          0          0         68   init.o
        36          0          0          0          0         60   memcpya.o
        36          0          0          0          0        100   memseta.o
        44          0          0          0          0         72   uidiv.o

    ----------------------------------------------------------------------
       244         16          0          0          0        372   Library Totals
         2          0          0          0          0          0   (incl. Padding)

    ----------------------------------------------------------------------

      Code (inc. data)   RO Data    RW Data    ZI Data      Debug   Library Name

       242         16          0          0          0        372   mc_p.l

    ----------------------------------------------------------------------
       244         16          0          0          0        372   Library Totals

    ----------------------------------------------------------------------

==============================================================================


      Code (inc. data)   RO Data    RW Data    ZI Data      Debug   

     12288       1668        604        172       7716     312003   Grand Totals
     12288       1668        604        172       7716     312003   ELF Image Totals
     12288       1668        604        172          0          0   ROM Totals

==============================================================================

    Total RO  Size (Code + RO Data)                12892 (  12.59kB)
    Total RW  Size (RW Data + ZI Data)              7888 (   7.70kB)
    Total ROM Size (Code + RO Data + RW Data)      13064 (  12.76kB)

==============================================================================

